{"contracts/VotingContract.sol":{"VotingContract":{"abi":[{"inputs":[],"stateMutability":"nonpayable","type":"constructor"},{"anonymous":false,"inputs":[{"indexed":true,"internalType":"uint256","name":"electionId","type":"uint256"},{"indexed":true,"internalType":"uint256","name":"candidateId","type":"uint256"}],"name":"CandidateAddedToElection","type":"event"},{"anonymous":false,"inputs":[{"indexed":true,"internalType":"uint256","name":"candidateId","type":"uint256"}],"name":"CandidateApproved","type":"event"},{"anonymous":false,"inputs":[{"indexed":true,"internalType":"uint256","name":"candidateId","type":"uint256"},{"indexed":true,"internalType":"address","name":"userAddress","type":"address"},{"indexed":false,"internalType":"string","name":"partyName","type":"string"},{"indexed":false,"internalType":"string","name":"symbol","type":"string"}],"name":"CandidateRegistrationRequested","type":"event"},{"anonymous":false,"inputs":[{"indexed":true,"internalType":"uint256","name":"electionId","type":"uint256"},{"indexed":false,"internalType":"string","name":"title","type":"string"}],"name":"ElectionCreated","type":"event"},{"anonymous":false,"inputs":[{"indexed":true,"internalType":"uint256","name":"electionId","type":"uint256"},{"indexed":false,"internalType":"uint256","name":"votingStartDate","type":"uint256"},{"indexed":false,"internalType":"uint256","name":"votingEndDate","type":"uint256"},{"indexed":false,"internalType":"uint256","name":"resultAnnounceDate","type":"uint256"}],"name":"ElectionDatesUpdated","type":"event"},{"anonymous":false,"inputs":[{"indexed":true,"internalType":"uint256","name":"electionId","type":"uint256"}],"name":"ElectionEnded","type":"event"},{"anonymous":false,"inputs":[{"indexed":true,"internalType":"uint256","name":"electionId","type":"uint256"},{"indexed":false,"internalType":"bool","name":"paused","type":"bool"}],"name":"ElectionPaused","type":"event"},{"anonymous":false,"inputs":[{"indexed":true,"internalType":"uint256","name":"electionId","type":"uint256"}],"name":"ElectionStarted","type":"event"},{"anonymous":false,"inputs":[{"indexed":true,"internalType":"address","name":"previousOwner","type":"address"},{"indexed":true,"internalType":"address","name":"newOwner","type":"address"}],"name":"OwnershipTransferred","type":"event"},{"anonymous":false,"inputs":[{"indexed":false,"internalType":"address","name":"account","type":"address"}],"name":"Paused","type":"event"},{"anonymous":false,"inputs":[{"indexed":false,"internalType":"address","name":"account","type":"address"}],"name":"Unpaused","type":"event"},{"anonymous":false,"inputs":[{"indexed":true,"internalType":"address","name":"userAddress","type":"address"}],"name":"UserApproved","type":"event"},{"anonymous":false,"inputs":[{"indexed":true,"internalType":"address","name":"userAddress","type":"address"},{"indexed":false,"internalType":"string","name":"name","type":"string"}],"name":"UserRegistrationRequested","type":"event"},{"anonymous":false,"inputs":[{"indexed":true,"internalType":"uint256","name":"electionId","type":"uint256"},{"indexed":true,"internalType":"uint256","name":"candidateId","type":"uint256"},{"indexed":true,"internalType":"address","name":"voter","type":"address"}],"name":"VoteCast","type":"event"},{"anonymous":false,"inputs":[{"indexed":true,"internalType":"uint256","name":"electionId","type":"uint256"},{"indexed":true,"internalType":"address","name":"voter","type":"address"}],"name":"VoterEnrolled","type":"event"},{"inputs":[{"internalType":"uint256","name":"_electionId","type":"uint256"},{"internalType":"uint256","name":"_candidateId","type":"uint256"}],"name":"addCandidateToElection","outputs":[],"stateMutability":"nonpayable","type":"function"},{"inputs":[{"internalType":"uint256","name":"","type":"uint256"}],"name":"allCandidateIds","outputs":[{"internalType":"uint256","name":"","type":"uint256"}],"stateMutability":"view","type":"function"},{"inputs":[{"internalType":"uint256","name":"","type":"uint256"}],"name":"allElectionIds","outputs":[{"internalType":"uint256","name":"","type":"uint256"}],"stateMutability":"view","type":"function"},{"inputs":[{"internalType":"uint256","name":"","type":"uint256"}],"name":"allUserAddresses","outputs":[{"internalType":"address","name":"","type":"address"}],"stateMutability":"view","type":"function"},{"inputs":[{"internalType":"uint256","name":"_candidateId","type":"uint256"}],"name":"approveCandidate","outputs":[],"stateMutability":"nonpayable","type":"function"},{"inputs":[{"internalType":"address","name":"_userAddress","type":"address"}],"name":"approveUser","outputs":[],"stateMutability":"nonpayable","type":"function"},{"inputs":[{"internalType":"uint256","name":"","type":"uint256"}],"name":"candidates","outputs":[{"internalType":"uint256","name":"candidateId","type":"uint256"},{"internalType":"address","name":"userAddress","type":"address"},{"internalType":"string","name":"partyName","type":"string"},{"internalType":"string","name":"symbol","type":"string"},{"internalType":"uint256","name":"voteCount","type":"uint256"},{"internalType":"uint256","name":"electionId","type":"uint256"},{"internalType":"bool","name":"approved","type":"bool"},{"internalType":"bool","name":"exists","type":"bool"}],"stateMutability":"view","type":"function"},{"inputs":[{"internalType":"string","name":"_title","type":"string"},{"internalType":"string","name":"_description","type":"string"},{"internalType":"uint256","name":"_votingStartDate","type":"uint256"},{"internalType":"uint256","name":"_votingEndDate","type":"uint256"},{"internalType":"uint256","name":"_resultAnnounceDate","type":"uint256"}],"name":"createElection","outputs":[{"internalType":"uint256","name":"","type":"uint256"}],"stateMutability":"nonpayable","type":"function"},{"inputs":[{"internalType":"uint256","name":"","type":"uint256"}],"name":"elections","outputs":[{"internalType":"uint256","name":"electionId","type":"uint256"},{"internalType":"string","name":"title","type":"string"},{"internalType":"string","name":"description","type":"string"},{"internalType":"bool","name":"isActive","type":"bool"},{"internalType":"bool","name":"isEnded","type":"bool"},{"internalType":"uint256","name":"startTime","type":"uint256"},{"internalType":"uint256","name":"endTime","type":"uint256"},{"internalType":"uint256","name":"votingStartDate","type":"uint256"},{"internalType":"uint256","name":"votingEndDate","type":"uint256"},{"internalType":"uint256","name":"resultAnnounceDate","type":"uint256"},{"internalType":"bool","name":"resultAnnounced","type":"bool"},{"internalType":"bool","name":"paused","type":"bool"},{"internalType":"uint256","name":"totalVotes","type":"uint256"},{"internalType":"bool","name":"exists","type":"bool"}],"stateMutability":"view","type":"function"},{"inputs":[{"internalType":"uint256","name":"_electionId","type":"uint256"}],"name":"endElection","outputs":[],"stateMutability":"nonpayable","type":"function"},{"inputs":[{"internalType":"uint256","name":"_electionId","type":"uint256"}],"name":"enrollToVote","outputs":[],"stateMutability":"nonpayable","type":"function"},{"inputs":[],"name":"getAllCandidates","outputs":[{"internalType":"uint256[]","name":"","type":"uint256[]"}],"stateMutability":"view","type":"function"},{"inputs":[],"name":"getAllElections","outputs":[{"internalType":"uint256[]","name":"","type":"uint256[]"}],"stateMutability":"view","type":"function"},{"inputs":[],"name":"getAllUsers","outputs":[{"internalType":"address[]","name":"","type":"address[]"}],"stateMutability":"view","type":"function"},{"inputs":[{"internalType":"uint256","name":"_candidateId","type":"uint256"}],"name":"getCandidate","outputs":[{"internalType":"uint256","name":"candidateId","type":"uint256"},{"internalType":"address","name":"userAddress","type":"address"},{"internalType":"string","name":"partyName","type":"string"},{"internalType":"string","name":"symbol","type":"string"},{"internalType":"uint256","name":"voteCount","type":"uint256"},{"internalType":"uint256","name":"electionId","type":"uint256"},{"internalType":"bool","name":"approved","type":"bool"}],"stateMutability":"view","type":"function"},{"inputs":[{"internalType":"uint256","name":"_electionId","type":"uint256"}],"name":"getElection","outputs":[{"internalType":"uint256","name":"electionId","type":"uint256"},{"internalType":"string","name":"title","type":"string"},{"internalType":"string","name":"description","type":"string"},{"internalType":"bool","name":"isActive","type":"bool"},{"internalType":"bool","name":"isEnded","type":"bool"},{"internalType":"uint256[]","name":"candidateIds","type":"uint256[]"},{"internalType":"uint256","name":"startTime","type":"uint256"},{"internalType":"uint256","name":"endTime","type":"uint256"},{"internalType":"uint256","name":"votingStartDate","type":"uint256"},{"internalType":"uint256","name":"votingEndDate","type":"uint256"},{"internalType":"uint256","name":"resultAnnounceDate","type":"uint256"},{"internalType":"bool","name":"resultAnnounced","type":"bool"},{"internalType":"bool","name":"paused","type":"bool"},{"internalType":"uint256","name":"totalVotes","type":"uint256"}],"stateMutability":"view","type":"function"},{"inputs":[{"internalType":"uint256","name":"_electionId","type":"uint256"}],"name":"getElectionResults","outputs":[{"internalType":"uint256[]","name":"candidateIds","type":"uint256[]"},{"internalType":"uint256[]","name":"voteCounts","type":"uint256[]"}],"stateMutability":"view","type":"function"},{"inputs":[],"name":"getPendingCandidates","outputs":[{"internalType":"uint256[]","name":"","type":"uint256[]"}],"stateMutability":"view","type":"function"},{"inputs":[],"name":"getPendingUsers","outputs":[{"internalType":"address[]","name":"","type":"address[]"}],"stateMutability":"view","type":"function"},{"inputs":[{"internalType":"address","name":"_userAddress","type":"address"}],"name":"getUser","outputs":[{"internalType":"string","name":"name","type":"string"},{"internalType":"bool","name":"isRegistered","type":"bool"},{"internalType":"bool","name":"isCandidate","type":"bool"},{"internalType":"bool","name":"approved","type":"bool"},{"internalType":"uint256[]","name":"registeredElectionIds","type":"uint256[]"}],"stateMutability":"view","type":"function"},{"inputs":[{"internalType":"uint256","name":"_electionId","type":"uint256"},{"internalType":"address","name":"_voter","type":"address"}],"name":"hasUserVoted","outputs":[{"internalType":"bool","name":"","type":"bool"}],"stateMutability":"view","type":"function"},{"inputs":[{"internalType":"uint256","name":"_electionId","type":"uint256"},{"internalType":"address","name":"_voter","type":"address"}],"name":"isUserEnrolled","outputs":[{"internalType":"bool","name":"","type":"bool"}],"stateMutability":"view","type":"function"},{"inputs":[],"name":"owner","outputs":[{"internalType":"address","name":"","type":"address"}],"stateMutability":"view","type":"function"},{"inputs":[],"name":"pause","outputs":[],"stateMutability":"nonpayable","type":"function"},{"inputs":[{"internalType":"uint256","name":"_electionId","type":"uint256"}],"name":"pauseElection","outputs":[],"stateMutability":"nonpayable","type":"function"},{"inputs":[],"name":"paused","outputs":[{"internalType":"bool","name":"","type":"bool"}],"stateMutability":"view","type":"function"},{"inputs":[{"internalType":"uint256","name":"","type":"uint256"}],"name":"pendingCandidateApprovals","outputs":[{"internalType":"uint256","name":"","type":"uint256"}],"stateMutability":"view","type":"function"},{"inputs":[{"internalType":"uint256","name":"","type":"uint256"}],"name":"pendingUserApprovals","outputs":[{"internalType":"address","name":"","type":"address"}],"stateMutability":"view","type":"function"},{"inputs":[],"name":"renounceOwnership","outputs":[],"stateMutability":"nonpayable","type":"function"},{"inputs":[{"internalType":"string","name":"_partyName","type":"string"},{"internalType":"string","name":"_symbol","type":"string"}],"name":"requestCandidateRegistration","outputs":[],"stateMutability":"nonpayable","type":"function"},{"inputs":[{"internalType":"string","name":"_name","type":"string"}],"name":"requestUserRegistration","outputs":[],"stateMutability":"nonpayable","type":"function"},{"inputs":[{"internalType":"uint256","name":"_electionId","type":"uint256"}],"name":"startElection","outputs":[],"stateMutability":"nonpayable","type":"function"},{"inputs":[{"internalType":"address","name":"newOwner","type":"address"}],"name":"transferOwnership","outputs":[],"stateMutability":"nonpayable","type":"function"},{"inputs":[],"name":"unpause","outputs":[],"stateMutability":"nonpayable","type":"function"},{"inputs":[{"internalType":"uint256","name":"_electionId","type":"uint256"},{"internalType":"uint256","name":"_votingStartDate","type":"uint256"},{"internalType":"uint256","name":"_votingEndDate","type":"uint256"},{"internalType":"uint256","name":"_resultAnnounceDate","type":"uint256"}],"name":"updateElectionDates","outputs":[],"stateMutability":"nonpayable","type":"function"},{"inputs":[{"internalType":"uint256","name":"_electionId","type":"uint256"}],"name":"updateElectionState","outputs":[],"stateMutability":"nonpayable","type":"function"},{"inputs":[{"internalType":"address","name":"","type":"address"}],"name":"users","outputs":[{"internalType":"string","name":"name","type":"string"},{"internalType":"bool","name":"isRegistered","type":"bool"},{"internalType":"bool","name":"isCandidate","type":"bool"},{"internalType":"bool","name":"approved","type":"bool"},{"internalType":"bool","name":"exists","type":"bool"}],"stateMutability":"view","type":"function"},{"inputs":[{"internalType":"uint256","name":"_electionId","type":"uint256"},{"internalType":"uint256","name":"_candidateId","type":"uint256"}],"name":"vote","outputs":[],"stateMutability":"nonpayable","type":"function"}],"evm":{"bytecode":{"linkReferences":{},"object":"608080604052346100735760008054336001600160a01b0319821681178355916001600160a01b03909116907f8be0079c531659141344cd1fd0a4f28419497f9722a3daafe3b4186f6b6457e09080a36001805560ff19600254166002556001600b556001600c556132f690816100798239f35b600080fdfe6080604052600436101561001257600080fd5b60e0600035811c908163064956d714612b905781630a1741d314612aa35781630a17942e14612a5257816312f8a6ab146129f757816314ddd980146126155781632c6d9c85146124b45781632e4ecae1146123f45781632e6997fe1461237c5781633477ee2e146122c957816335b8e820146121b75781633f4ba83a146121235781635c975abb146121005781635e6fef0114611ffd5781636995604614611e7e5781636d32dc4b14611d085781636f77926b14611c2a578163715018a614611bd157816376ff090814611b80578163778c6439146119e55781637fd5f2681461196d5781638456cb59146118da57816389f98557146118985781638da5cb5b1461186f5781639a70b327146117e35781639c98bcbb146117415781639d71077714611611578163a87430ba14611584578163b384abef1461128c578163d624fdb614611087578163dc296ae114611019578163e2842d7914610f95578163e8ededa614610e5f578163eb4129f714610cf3578163ee2128f2146107d357508063f2fde38b1461070f578063f4362970146106d8578063fe09b5ec146106445763ff50e12f146101c157600080fd5b3461063f5760a036600319011261063f576004356001600160401b03811161063f576101f1903690600401612d0b565b6024356001600160401b03811161063f57610210903690600401612d0b565b610218612f0f565b815115610602578051156105bd576102334260443511613019565b61024260443560643511613075565b610251606435608435116130d2565b600c549061025e82612f95565b600c5581600052600560205260406000209082825583516001600160401b03811161042a576102906001840154612d95565b601f8111610588575b50806020601f821160011461051b57600091610510575b508160011b916000199060031b1c19161760018301555b805160028301916001600160401b03821161042a576102e68354612d95565b601f81116104d3575b50602090601f831160011461046757600e949392916000918361045c575b50508160011b916000199060031b1c19161790555b6003810161ffff1990818154169055600060405161033f81612ccf565b526004820180546000825580610440575b50506044356009830155606435600a830155608435600b830155600c82019081541690556000600d82015501600160ff19825416179055600a54600160401b81101561042a576001810180600a55811015610414577f52be7c4e77b4de76b7607d621492061fe13b58597e72dfb5e51ab8f6187ed141610409602094848094600a6000527fc65a7bb8d6351c1cf70c95a316cc6a92839c986682d98bc35f958f4883f9d2a8015560405191829187835287830190612e75565b0390a2604051908152f35b634e487b7160e01b600052603260045260246000fd5b634e487b7160e01b600052604160045260246000fd5b61045591600052602060002090810190612f7e565b3880610350565b01519050388061030d565b90601f198316918460005260206000209260005b8181106104bb5750916001939185600e98979694106104a2575b505050811b019055610322565b015160001960f88460031b161c19169055388080610495565b9293602060018192878601518155019501930161047b565b61050090846000526020600020601f850160051c81019160208610610506575b601f0160051c0190612f7e565b386102ef565b90915081906104f3565b9050850151386102b0565b91506001840160005260206000206000925b601f1983168410610570576001935082601f19811610610557575b5050811b0160018301556102c7565b87015160001960f88460031b161c191690553880610548565b8781015182556020938401936001909201910161052d565b6105b790600185016000526020600020601f840160051c8101916020851061050657601f0160051c0190612f7e565b38610299565b60405162461bcd60e51b815260206004820152601b60248201527f4465736372697074696f6e2063616e6e6f7420626520656d70747900000000006044820152606490fd5b60405162461bcd60e51b81526020600482015260156024820152745469746c652063616e6e6f7420626520656d70747960581b6044820152606490fd5b600080fd5b3461063f57600036600319011261063f57604051806006549182815260208091019260066000527ff652222313e28459528d920b65115c16c04f3efc82aaedc97be59f3f377c0d3f916000905b8282106106b8576106b4856106a881890382612cea565b60405191829182612ecb565b0390f35b83546001600160a01b031686529485019460019384019390910190610691565b3461063f57602036600319011261063f5760043560075481101561063f57610701602091612c2a565b90546040519160031b1c8152f35b3461063f57602036600319011261063f57610728612c14565b610730612f0f565b6001600160a01b0390811690811561077f57600054826001600160601b0360a01b821617600055167f8be0079c531659141344cd1fd0a4f28419497f9722a3daafe3b4186f6b6457e0600080a3005b60405162461bcd60e51b815260206004820152602660248201527f4f776e61626c653a206e6577206f776e657220697320746865207a65726f206160448201526564647265737360d01b6064820152608490fd5b3461063f57604036600319011261063f576004356001600160401b03811161063f57610803903690600401612d0b565b906024356001600160401b03811161063f57610823903690600401612d0b565b9133600052600360205260ff6003604060002001541615610cb857805115610c7357825115610c3557600b549161085983612f95565b600b556040519061086982612cb3565b83825233602083015282604083015284606083015260006080830152600060a0830152600060c08301526001818301528360005260046020526040600020825181556001810160018060a01b036020850151166001600160601b0360a01b82541617905560408301518051906001600160401b03821161042a5781906108f26002850154612d95565b601f8111610c00575b50602090601f8311600114610b8e57600092610b83575b50508160011b916000199060031b1c19161760028201555b60608301518051906001600160401b03821161042a5761094d6003840154612d95565b601f8111610b4e575b50602090601f8311600114610ad65791806109db96959492600694600092610acb575b50508160011b916000199060031b1c19161760038201555b6080840151600482015560a0840151600582015501916109c360c08201511515849060ff801983541691151516179055565b0151815461ff00191690151560081b61ff0016179055565b336000526003602052600160406000200161010061ff0019825416179055600754600160401b908181101561042a5783610a1e826001610a379401600755612c2a565b90919082549060031b91821b91600019901b1916179055565b6009549081101561042a576001810180600955811015610414577f8ee8ba30b5c49eea6c2fdcd6424eb5fbe1d9ce7fbf823596ae760ec67778e8429183610ab79260096000527f6e1540171b6c0c960b71a7020d9f60077f6af931a8bbf590da0223dacf75c7af0155610ac6604051928392604084526040840190612e75565b82810360208401523396612e75565b0390a3005b015190508a80610979565b906003840160005260206000209160005b601f1985168110610b365750926109db9695949260019260069583601f19811610610b1d575b505050811b016003820155610991565b015160001960f88460031b161c191690558a8080610b0d565b91926020600181928685015181550194019201610ae7565b610b7d90600385016000526020600020601f850160051c8101916020861061050657601f0160051c0190612f7e565b88610956565b015190508880610912565b9250600284016000526020600020906000935b601f1984168510610be5576001945083601f19811610610bcc575b505050811b01600282015561092a565b015160001960f88460031b161c19169055888080610bbc565b81810151835560209485019460019093019290910190610ba1565b610c2f90600286016000526020600020601f850160051c8101916020861061050657601f0160051c0190612f7e565b896108fb565b60405162461bcd60e51b815260206004820152601660248201527553796d626f6c2063616e6e6f7420626520656d70747960501b6044820152606490fd5b60405162461bcd60e51b815260206004820152601a60248201527f5061727479206e616d652063616e6e6f7420626520656d7074790000000000006044820152606490fd5b60405162461bcd60e51b8152602060048201526013602482015272155cd95c881b9bdd081c9959da5cdd195c9959606a1b6044820152606490fd5b3461063f57602036600319011261063f5760043580600052600560205260ff90610d2682600e6040600020015416613139565b806000526005602052604060002091600c830192835492828460081c161580610e4e575b610d5057005b8290600383019081548381161580610e40575b610e05575b50815483811680610df7575b610dba575b50505460081c169182610daf575b5081610da0575b50610d9557005b60ff19166001179055005b600b9150015442101583610d8e565b831615915084610d87565b61ffff19166101001782554260088501557f562cd572b2ba3b666cd989fc4ca98419ec81e75f04528df9d9d76fdb7807ee71600080a28680610d79565b50600a850154421015610d74565b60ff19166001178255426007850155807f159eee87222a0489c529f2153c26ad65d718f2cc33ebaa8d399d1dd5b39facaa600080a287610d68565b506009850154421015610d63565b5082600383015460081c1615610d4a565b3461063f5760208060031936011261063f576004358060005260058252610e9060ff600e6040600020015416613139565b806000526005825260ff60036040600020015460081c1615610f5b5760005260058152610ec3600460406000200161325d565b8051610ece81612f67565b90610edc6040519283612cea565b808252610eeb601f1991612f67565b01368483013760005b8251811015610f315780610f0b610f2c92856132ac565b5160005260048552600460406000200154610f2682856132ac565b52612f95565b610ef4565b50610f4e926106b491604051948594604086526040860190612d61565b9184830390850152612d61565b60405162461bcd60e51b8152600481018390526012602482015271115b1958dd1a5bdb881b9bdd08195b99195960721b6044820152606490fd5b3461063f57600036600319011261063f57604051806008549182815260208091019260086000527ff3f7a9fe364faab93b216da50a3214154f22a0a2b415b23a84c8169e8b636ee3916000905b828210610ff9576106b4856106a881890382612cea565b83546001600160a01b031686529485019460019384019390910190610fe2565b3461063f57604036600319011261063f57600435611035612bfe565b9080600052600560205261105360ff600e6040600020015416613139565b600052600560205260066040600020019060018060a01b0316600052602052602060ff604060002054166040519015158152f35b3461063f5760208060031936011261063f576110a1612c14565b906110aa612f0f565b60018060a01b03809216918260005260039081835260ff82604060002001541615611251578360005281835260019260ff846040600020015460101c1661121557600085815290839052604081208401805462ff00ff191662010001179055835b611138575b847ffbb0a472171a6eb950c8a87421215268a1b2df816da0a48e920e72ade27cfcf7600080a2005b600680548083101561120e57868461114f85612c61565b905490881b1c161461116c57505061116690612f95565b8361110b565b93945092600019918282019182116111f85761119b8461118e6111ba94612c61565b905490891b1c1691612c61565b90919082549060031b9160018060a01b03809116831b921b1916179055565b825480156111e25701926111cd84612c61565b81939154921b1b191690555581808080611110565b634e487b7160e01b600052603160045260246000fd5b634e487b7160e01b600052601160045260246000fd5b5050611110565b6064906040519062461bcd60e51b825260048201526015602482015274155cd95c88185b1c9958591e48185c1c1c9bdd9959605a1b6044820152fd5b60405162461bcd60e51b8152600481018490526013602482015272155cd95c88191bd95cc81b9bdd08195e1a5cdd606a1b6044820152606490fd5b3461063f5761129a36612eb5565b90336000526020916003835260ff6001936112c082866040600020015460101c1661321d565b836000526005918282526112dd81600e6040600020015416613139565b83600052600482526112fb8160066040600020015460081c16612fcd565b846000528282526113296040600020826003820154918183169283611576575b5082611564575b50506131db565b600286541461151f576002865584600052828252826040600020013360005282528060406000205416156114e357846000528282526006604060002001336000528252604060002054166114af5782600052600481528382604060002001540361146b5783600052818152600a6040600020015442116114275783600052818152600660406000200133600052815260406000208560ff19825416179055826000526004815260046040600020016113e18154612f95565b90558360005252600d6040600020016113fa8154612f95565b905533917f7fe1d4e6b34e228b5dc059fcdc037c71b216fb2417f47c171e505144a5e4f5fc600080a48055005b6064906040519062461bcd60e51b82526004820152601760248201527f566f74696e6720706572696f642068617320656e6465640000000000000000006044820152fd5b6064906040519062461bcd60e51b82526004820152601e60248201527f43616e646964617465206e6f7420696e207468697320656c656374696f6e00006044820152fd5b6064906040519062461bcd60e51b82526004820152600d60248201526c105b1c9958591e481d9bdd1959609a1b6044820152fd5b60405162461bcd60e51b81526004810183905260146024820152734e6f7420656e726f6c6c656420746f20766f746560601b6044820152606490fd5b60405162461bcd60e51b815260048101839052601f60248201527f5265656e7472616e637947756172643a207265656e7472616e742063616c6c006044820152606490fd5b600c015460081c161590508289611322565b60081c82161592508a61131b565b3461063f57602036600319011261063f576001600160a01b036115a5612c14565b1660005260036020526115e360406000206115bf81612dcf565b9060ff600360018301549201541660ff60405194859460a0865260a0860190612e75565b9281811615156020860152818160081c161515604086015260101c1615156060840152151560808301520390f35b3461063f57602036600319011261063f576004358060005260056020526040600020600e015460ff1661164390613139565b600052600560205260406000209081549060038301549260078101549160088201546009830154600a84015490600b85015492600c86015494600d870154966001810161168f90612dcf565b9a61169c60028301612dcf565b916004016116a99061325d565b916040519c8d9c8d528c6101c06020819201528d016116c791612e75565b8c810360408e01526116d891612e75565b9060ff8116151560608d015260081c60ff16151560808c01528a810360a08c015261170291612d61565b9760c08a015288015261010087015261012086015261014085015260ff8116151561016085015260081c60ff1615156101808401526101a08301520390f35b3461063f57602036600319011261063f5760043561175d612f0f565b80600052600560205261177a60ff600e6040600020015416613139565b80600052600560205261179760ff600360406000200154166131db565b80600052600560205260406000206003810161010061ffff198254161790556008429101557f562cd572b2ba3b666cd989fc4ca98419ec81e75f04528df9d9d76fdb7807ee71600080a2005b3461063f57600036600319011261063f576040518060075480825282602080930160076000527fa66cc928b5edb82af9bd49922954155ab7b0942694bea4ce44661d9a8736c6889260005b858282106118595750505061184592500383612cea565b6106b4604051928284938452830190612d61565b855484526001958601958895509301920161182e565b3461063f57600036600319011261063f576000546040516001600160a01b039091168152602090f35b3461063f57602036600319011261063f5760043560065481101561063f576118c1602091612c61565b905460405160039290921b1c6001600160a01b03168152f35b3461063f57600036600319011261063f576118f3612f0f565b60025460ff81166119355760019060ff1916176002557f62e78cea01bee320cd4e420270b5ea74000d11b0c9f74754ebdbfc544b05a2586020604051338152a1005b60405162461bcd60e51b815260206004820152601060248201526f14185d5cd8589b194e881c185d5cd95960821b6044820152606490fd5b3461063f57600036600319011261063f5760405180600a54808252826020809301600a6000527fc65a7bb8d6351c1cf70c95a316cc6a92839c986682d98bc35f958f4883f9d2a89260005b858282106119cf5750505061184592500383612cea565b85548452600195860195889550930192016119b8565b3461063f576119f336612eb5565b906119fc612f0f565b80600052602060058152611a1a60ff600e6040600020015416613139565b8260005260048152611a3960ff60066040600020015460081c16612fcd565b8160005260058152611a5f60036040600020015460ff8116159081611b71575b50613185565b826000526004815260ff6006604060002001541615611b34578260005260048152600560406000200154611ade576004908260005260058152611aa88483604060002001612fa4565b8360005252806005604060002001557fa4e69db433ebec4ded108fd5357e7b35d8671bc745d7f88a516b6c92f86a046e600080a3005b6084906040519062461bcd60e51b82526004820152602960248201527f43616e64696461746520616c72656164792061737369676e656420746f20616e6044820152681032b632b1ba34b7b760b91b6064820152fd5b6064906040519062461bcd60e51b82526004820152601660248201527510d85b991a59185d19481b9bdd08185c1c1c9bdd995960521b6044820152fd5b60ff915060081c161585611a59565b3461063f57602036600319011261063f57600435600a5481101561063f57602090600a6000527fc65a7bb8d6351c1cf70c95a316cc6a92839c986682d98bc35f958f4883f9d2a80154604051908152f35b3461063f57600036600319011261063f57611bea612f0f565b600080546001600160a01b0319811682556001600160a01b03167f8be0079c531659141344cd1fd0a4f28419497f9722a3daafe3b4186f6b6457e08280a3005b3461063f57602036600319011261063f576001600160a01b03611c4b612c14565b166000526003602052611ceb60406000206106b4604051611c6b81612c98565b611c7483612dcf565b8152600183015492602082019360ff811615158552604083019260ff8260081c161515845260ff606082019260101c161515825260ff6003611cb86002860161325d565b94856080850152015416151560a0820152519451151592511515905115159060405196879660a0885260a0880190612e75565b936020870152604086015260608501528382036080850152612d61565b3461063f5760208060031936011261063f5760043590611d26612f0f565b8160005260058152611d4260ff600e6040600020015416613139565b8160005260058152611d6760036040600020015460ff8116159081611e6f5750613185565b816000526005815260046040600020015415611e2b5781600052600581526009604060002001544210611ddd576005908260005252604060002060038101600160ff198254161790556007429101557f159eee87222a0489c529f2153c26ad65d718f2cc33ebaa8d399d1dd5b39facaa600080a2005b6084906040519062461bcd60e51b82526004820152602160248201527f566f74696e6720706572696f6420686173206e6f7420737461727465642079656044820152601d60fa1b6064820152fd5b6064906040519062461bcd60e51b82526004820152601960248201527f4e6f2063616e6469646174657320696e20656c656374696f6e000000000000006044820152fd5b60ff915060081c161584611a59565b3461063f57602036600319011261063f57600435611e9a612f0f565b806000526004602052611eba60ff60066040600020015460081c16612fcd565b80600052600460205260ff60066040600020015416611fb8578060005260046020528060066040600020016001908160ff19825416179055806000905b611f24575b827f24776d729722c25af4030aba0aa454b1bf0ce96bfdb29e2998c1a0bc3ded47d5600080a2005b6007805480831015611fb157611f3983612c2a565b959054600396871b1c14611f5d575050611f54919250612f95565b90829181611ef7565b909250600019918282019182116111f857610a1e611f7d611f8993612c2a565b905490871b1c91612c2a565b815480156111e257810192611f9d84612c2a565b81939154921b1b1916905555808280611efc565b5050611efc565b60405162461bcd60e51b815260206004820152601a60248201527f43616e64696461746520616c726561647920617070726f7665640000000000006044820152606490fd5b3461063f57602036600319011261063f5760043560005260056020526040600020908154906001830161202f90612dcf565b9261203c60028201612dcf565b906003810154926007820154906008830154906009840154600a85015491600b86015493600c87015495600d88015497600e015460ff16986040519c8d9c8d528c6101c06020819201528d0161209191612e75565b8c810360408e01526120a291612e75565b9960ff8116151560608d015260081c60ff16151560808c015260a08b015260c08a015288015261010087015261012086015260ff8116151561014086015260081c60ff16151561016085015261018084015215156101a08301520390f35b3461063f57600036600319011261063f57602060ff600254166040519015158152f35b3461063f57600036600319011261063f5761213c612f0f565b60025460ff81161561217b5760ff19166002557f5db9ee0a495bf2e6ff9c91a7834c1ba4fdd244a5e8aa4e537bd38aeae4b073aa6020604051338152a1005b60405162461bcd60e51b815260206004820152601460248201527314185d5cd8589b194e881b9bdd081c185d5cd95960621b6044820152606490fd5b3461063f57602036600319011261063f576004358060005260046020526121eb60ff60066040600020015460081c16612fcd565b6000526004602052604060002060405161220481612cb3565b8154815260018201546001600160a01b0390811660208301908152929091906122b561223260028301612dcf565b95604084019687526122a761224960038501612dcf565b9182606087015260048501549687608088015260066005870154968760a08a015201549660ff8089161515988960c084015260081c1615158382015251985116985190604051998a998a5260208a01528060408a0152880190612e75565b908682036060880152612e75565b92608085015260a084015260c08301520390f35b3461063f57602036600319011261063f576004356000526004602052604060002080549060018060a01b036001820154169260ff61230960028401612dcf565b61231560038501612dcf565b9361235960048201549561234b60066005850154940154946040519a8b9a8b5260208b01526101008060408c01528a0190612e75565b9088820360608a0152612e75565b94608087015260a0860152818116151560c086015260081c161515908301520390f35b3461063f57600036600319011261063f576040518060095480825282602080930160096000527f6e1540171b6c0c960b71a7020d9f60077f6af931a8bbf590da0223dacf75c7af9260005b858282106123de5750505061184592500383612cea565b85548452600195860195889550930192016123c7565b3461063f57602036600319011261063f57600435612410612f0f565b80600052600560205261242d60ff600e6040600020015416613139565b80600052600560205261244a60ff600360406000200154166131db565b8060005260056020527fe9b0dfc8f12abac9dcf7ca6c9d3a8a0f8adef5c9a7f8bf9bd660cbe4f696daf0602060ff600c6040600020016124a482825460081c1615829061ff00825491151560081b169061ff001916179055565b5460081c166040519015158152a2005b3461063f5760208060031936011261063f576004359033600052600381526124e960ff60016040600020015460101c1661321d565b81600052600580825261250660ff600e6040600020015416613139565b8260005280825260ff60036040600020015460081c166125db57826000528082528060406000200133600052825260ff604060002054166125a35790600391836000528082526040600020013360005281526040600020600160ff198254161790555261257a816002604060002001612fa4565b33907f38dcbd2eb182b340b867c36ed9ed4dd8f7d99da76fcfb282c4bf5ca7f5c75b1d600080a3005b60405162461bcd60e51b815260048101839052601060248201526f105b1c9958591e48195b9c9bdb1b195960821b6044820152606490fd5b60405162461bcd60e51b8152600481018390526012602482015271115b1958dd1a5bdb881a185cc8195b99195960721b6044820152606490fd5b3461063f57602036600319011261063f576004356001600160401b03811161063f57612645903690600401612d0b565b33600052600360205260ff600360406000200154166129b2578051156129765760405161267181612ccf565b600081526040519061268282612c98565b82825260208201600081526040830191600083526060840190600082526080850152600160a085015233600052600360205260406000209284518051906001600160401b03821161042a576126d78654612d95565b601f8111612944575b50602090601f83116001146128d657612747939291600091836128cb575b50508160011b916000199060031b1c19161785555b6127306001860194511515859060ff801983541691151516179055565b51835461ff00191690151560081b61ff0016178355565b51815462ff0000191690151560101b62ff00001617905560808201518051909290600283016001600160401b03821161042a57600160401b9485831161042a5760209082548484558085106128ae575b500190600052602060002060005b83811061289a5787876127ce88600360a08a0151151591019060ff801983541691151516179055565b6006548181101561042a576127ec81600161280a9301600655612c61565b81546001600160a01b0360039290921b91821b19163390911b179055565b6008549081101561042a5760018101806008558110156104145760086000527ff3f7a9fe364faab93b216da50a3214154f22a0a2b415b23a84c8169e8b636ee301336001600160601b0360a01b8254161790557fe4e252ab55ecd86d160954e9237b0d7bf0efd0068b29c423b595c5177d0a5dc4604051602081528061289533946020830190612e75565b0390a2005b6001906020845194019381840155016127a5565b6128c5908460005285846000209182019101612f7e565b88612797565b0151905089806126fe565b908660005260206000209160005b601f198516811061292c57509183916001936127479695601f19811610612913575b505050811b018555612713565b015160001960f88460031b161c19169055898080612906565b919260206001819286850151815501940192016128e4565b61297090876000526020600020601f850160051c8101916020861061050657601f0160051c0190612f7e565b886126e0565b60405162461bcd60e51b81526020600482015260146024820152734e616d652063616e6e6f7420626520656d70747960601b6044820152606490fd5b60405162461bcd60e51b815260206004820152601760248201527f5573657220616c726561647920726567697374657265640000000000000000006044820152606490fd5b3461063f57602036600319011261063f5760043560085481101561063f5760086000527ff3f7a9fe364faab93b216da50a3214154f22a0a2b415b23a84c8169e8b636ee301546040516001600160a01b039091168152602090f35b3461063f57602036600319011261063f5760043560095481101561063f5760209060096000527f6e1540171b6c0c960b71a7020d9f60077f6af931a8bbf590da0223dacf75c7af0154604051908152f35b3461063f57608036600319011261063f576004357f739ebd6b0791f74b4760666c62eba700312c8bc1d9aa1ac74caf71c1eebae0766060602435606435604435612aeb612f0f565b856000526005602052612b0860ff600e6040600020015416613139565b856000526005602052612b2e60036040600020015460ff8116159081612b815750613185565b612b39428411613019565b612b44838211613075565b612b4f8183116130d2565b85600052600560205281600b604060002085600982015583600a820155015560405192835260208301526040820152a2005b60ff915060081c161588611a59565b3461063f57604036600319011261063f57600435612bac612bfe565b90806000526005602052612bca60ff600e6040600020015416613139565b600052600560205260056040600020019060018060a01b0316600052602052602060ff604060002054166040519015158152f35b602435906001600160a01b038216820361063f57565b600435906001600160a01b038216820361063f57565b6007548110156104145760076000527fa66cc928b5edb82af9bd49922954155ab7b0942694bea4ce44661d9a8736c6880190600090565b6006548110156104145760066000527ff652222313e28459528d920b65115c16c04f3efc82aaedc97be59f3f377c0d3f0190600090565b60c081019081106001600160401b0382111761042a57604052565b61010081019081106001600160401b0382111761042a57604052565b602081019081106001600160401b0382111761042a57604052565b90601f801991011681019081106001600160401b0382111761042a57604052565b81601f8201121561063f578035906001600160401b03821161042a5760405192612d3f601f8401601f191660200185612cea565b8284526020838301011161063f57816000926020809301838601378301015290565b90815180825260208080930193019160005b828110612d81575050505090565b835185529381019392810192600101612d73565b90600182811c92168015612dc5575b6020831014612daf57565b634e487b7160e01b600052602260045260246000fd5b91607f1691612da4565b9060405191826000825492612de384612d95565b908184526001948581169081600014612e525750600114612e0f575b5050612e0d92500383612cea565b565b9093915060005260209081600020936000915b818310612e3a575050612e0d93508201013880612dff565b85548884018501529485019487945091830191612e22565b915050612e0d94506020925060ff191682840152151560051b8201013880612dff565b919082519283825260005b848110612ea1575050826000602080949584010152601f8019910116010190565b602081830181015184830182015201612e80565b604090600319011261063f576004359060243590565b6020908160408183019282815285518094520193019160005b828110612ef2575050505090565b83516001600160a01b031685529381019392810192600101612ee4565b6000546001600160a01b03163303612f2357565b606460405162461bcd60e51b815260206004820152602060248201527f4f776e61626c653a2063616c6c6572206973206e6f7420746865206f776e65726044820152fd5b6001600160401b03811161042a5760051b60200190565b818110612f89575050565b60008155600101612f7e565b60001981146111f85760010190565b805490600160401b82101561042a57600182018082558210156104145760005260206000200155565b15612fd457565b60405162461bcd60e51b815260206004820152601860248201527f43616e64696461746520646f6573206e6f7420657869737400000000000000006044820152606490fd5b1561302057565b60405162461bcd60e51b815260206004820152602760248201527f566f74696e672073746172742064617465206d75737420626520696e207468656044820152662066757475726560c81b6064820152608490fd5b1561307c57565b60405162461bcd60e51b815260206004820152602860248201527f566f74696e6720656e642064617465206d757374206265206166746572207374604482015267617274206461746560c01b6064820152608490fd5b156130d957565b60405162461bcd60e51b815260206004820152603260248201527f526573756c7420616e6e6f756e63652064617465206d75737420626520616674604482015271657220766f74696e6720656e64206461746560701b6064820152608490fd5b1561314057565b60405162461bcd60e51b815260206004820152601760248201527f456c656374696f6e20646f6573206e6f742065786973740000000000000000006044820152606490fd5b1561318c57565b60405162461bcd60e51b815260206004820152602160248201527f456c656374696f6e20616c72656164792073746172746564206f7220656e64656044820152601960fa1b6064820152608490fd5b156131e257565b60405162461bcd60e51b8152602060048201526013602482015272456c656374696f6e206e6f742061637469766560681b6044820152606490fd5b1561322457565b60405162461bcd60e51b8152602060048201526011602482015270155cd95c881b9bdd08185c1c1c9bdd9959607a1b6044820152606490fd5b9060405191828154918282526020928383019160005283600020936000905b82821061329257505050612e0d92500383612cea565b85548452600195860195889550938101939091019061327c565b80518210156104145760209160051b01019056fea2646970667358221220fcb6b28a655f33740a9780dde614b9b1293d060bc9187b7b55dc975bfea45d3b64736f6c63430008130033","opcodes":"PUSH1 0x80 DUP1 PUSH1 0x40 MSTORE CALLVALUE PUSH2 0x73 JUMPI PUSH1 0x0 DUP1 SLOAD CALLER PUSH1 0x1 PUSH1 0x1 PUSH1 0xA0 SHL SUB NOT DUP3 AND DUP2 OR DUP4 SSTORE SWAP2 PUSH1 0x1 PUSH1 0x1 PUSH1 0xA0 SHL SUB SWAP1 SWAP2 AND SWAP1 PUSH32 0x8BE0079C531659141344CD1FD0A4F28419497F9722A3DAAFE3B4186F6B6457E0 SWAP1 DUP1 LOG3 PUSH1 0x1 DUP1 SSTORE PUSH1 0xFF NOT PUSH1 0x2 SLOAD AND PUSH1 0x2 SSTORE PUSH1 0x1 PUSH1 0xB SSTORE PUSH1 0x1 PUSH1 0xC SSTORE PUSH2 0x32F6 SWAP1 DUP2 PUSH2 0x79 DUP3 CODECOPY RETURN JUMPDEST PUSH1 0x0 DUP1 REVERT INVALID PUSH1 0x80 PUSH1 0x40 MSTORE PUSH1 0x4 CALLDATASIZE LT ISZERO PUSH2 0x12 JUMPI PUSH1 0x0 DUP1 REVERT JUMPDEST PUSH1 0xE0 PUSH1 0x0 CALLDATALOAD DUP2 SHR SWAP1 DUP2 PUSH4 0x64956D7 EQ PUSH2 0x2B90 JUMPI DUP2 PUSH4 0xA1741D3 EQ PUSH2 0x2AA3 JUMPI DUP2 PUSH4 0xA17942E EQ PUSH2 0x2A52 JUMPI DUP2 PUSH4 0x12F8A6AB EQ PUSH2 0x29F7 JUMPI DUP2 PUSH4 0x14DDD980 EQ PUSH2 0x2615 JUMPI DUP2 PUSH4 0x2C6D9C85 EQ PUSH2 0x24B4 JUMPI DUP2 PUSH4 0x2E4ECAE1 EQ PUSH2 0x23F4 JUMPI DUP2 PUSH4 0x2E6997FE EQ PUSH2 0x237C JUMPI DUP2 PUSH4 0x3477EE2E EQ PUSH2 0x22C9 JUMPI DUP2 PUSH4 0x35B8E820 EQ PUSH2 0x21B7 JUMPI DUP2 PUSH4 0x3F4BA83A EQ PUSH2 0x2123 JUMPI DUP2 PUSH4 0x5C975ABB EQ PUSH2 0x2100 JUMPI DUP2 PUSH4 0x5E6FEF01 EQ PUSH2 0x1FFD JUMPI DUP2 PUSH4 0x69956046 EQ PUSH2 0x1E7E JUMPI DUP2 PUSH4 0x6D32DC4B EQ PUSH2 0x1D08 JUMPI DUP2 PUSH4 0x6F77926B EQ PUSH2 0x1C2A JUMPI DUP2 PUSH4 0x715018A6 EQ PUSH2 0x1BD1 JUMPI DUP2 PUSH4 0x76FF0908 EQ PUSH2 0x1B80 JUMPI DUP2 PUSH4 0x778C6439 EQ PUSH2 0x19E5 JUMPI DUP2 PUSH4 0x7FD5F268 EQ PUSH2 0x196D JUMPI DUP2 PUSH4 0x8456CB59 EQ PUSH2 0x18DA JUMPI DUP2 PUSH4 0x89F98557 EQ PUSH2 0x1898 JUMPI DUP2 PUSH4 0x8DA5CB5B EQ PUSH2 0x186F JUMPI DUP2 PUSH4 0x9A70B327 EQ PUSH2 0x17E3 JUMPI DUP2 PUSH4 0x9C98BCBB EQ PUSH2 0x1741 JUMPI DUP2 PUSH4 0x9D710777 EQ PUSH2 0x1611 JUMPI DUP2 PUSH4 0xA87430BA EQ PUSH2 0x1584 JUMPI DUP2 PUSH4 0xB384ABEF EQ PUSH2 0x128C JUMPI DUP2 PUSH4 0xD624FDB6 EQ PUSH2 0x1087 JUMPI DUP2 PUSH4 0xDC296AE1 EQ PUSH2 0x1019 JUMPI DUP2 PUSH4 0xE2842D79 EQ PUSH2 0xF95 JUMPI DUP2 PUSH4 0xE8EDEDA6 EQ PUSH2 0xE5F JUMPI DUP2 PUSH4 0xEB4129F7 EQ PUSH2 0xCF3 JUMPI DUP2 PUSH4 0xEE2128F2 EQ PUSH2 0x7D3 JUMPI POP DUP1 PUSH4 0xF2FDE38B EQ PUSH2 0x70F JUMPI DUP1 PUSH4 0xF4362970 EQ PUSH2 0x6D8 JUMPI DUP1 PUSH4 0xFE09B5EC EQ PUSH2 0x644 JUMPI PUSH4 0xFF50E12F EQ PUSH2 0x1C1 JUMPI PUSH1 0x0 DUP1 REVERT JUMPDEST CALLVALUE PUSH2 0x63F JUMPI PUSH1 0xA0 CALLDATASIZE PUSH1 0x3 NOT ADD SLT PUSH2 0x63F JUMPI PUSH1 0x4 CALLDATALOAD PUSH1 0x1 PUSH1 0x1 PUSH1 0x40 SHL SUB DUP2 GT PUSH2 0x63F JUMPI PUSH2 0x1F1 SWAP1 CALLDATASIZE SWAP1 PUSH1 0x4 ADD PUSH2 0x2D0B JUMP JUMPDEST PUSH1 0x24 CALLDATALOAD PUSH1 0x1 PUSH1 0x1 PUSH1 0x40 SHL SUB DUP2 GT PUSH2 0x63F JUMPI PUSH2 0x210 SWAP1 CALLDATASIZE SWAP1 PUSH1 0x4 ADD PUSH2 0x2D0B JUMP JUMPDEST PUSH2 0x218 PUSH2 0x2F0F JUMP JUMPDEST DUP2 MLOAD ISZERO PUSH2 0x602 JUMPI DUP1 MLOAD ISZERO PUSH2 0x5BD JUMPI PUSH2 0x233 TIMESTAMP PUSH1 0x44 CALLDATALOAD GT PUSH2 0x3019 JUMP JUMPDEST PUSH2 0x242 PUSH1 0x44 CALLDATALOAD PUSH1 0x64 CALLDATALOAD GT PUSH2 0x3075 JUMP JUMPDEST PUSH2 0x251 PUSH1 0x64 CALLDATALOAD PUSH1 0x84 CALLDATALOAD GT PUSH2 0x30D2 JUMP JUMPDEST PUSH1 0xC SLOAD SWAP1 PUSH2 0x25E DUP3 PUSH2 0x2F95 JUMP JUMPDEST PUSH1 0xC SSTORE DUP2 PUSH1 0x0 MSTORE PUSH1 0x5 PUSH1 0x20 MSTORE PUSH1 0x40 PUSH1 0x0 KECCAK256 SWAP1 DUP3 DUP3 SSTORE DUP4 MLOAD PUSH1 0x1 PUSH1 0x1 PUSH1 0x40 SHL SUB DUP2 GT PUSH2 0x42A JUMPI PUSH2 0x290 PUSH1 0x1 DUP5 ADD SLOAD PUSH2 0x2D95 JUMP JUMPDEST PUSH1 0x1F DUP2 GT PUSH2 0x588 JUMPI JUMPDEST POP DUP1 PUSH1 0x20 PUSH1 0x1F DUP3 GT PUSH1 0x1 EQ PUSH2 0x51B JUMPI PUSH1 0x0 SWAP2 PUSH2 0x510 JUMPI JUMPDEST POP DUP2 PUSH1 0x1 SHL SWAP2 PUSH1 0x0 NOT SWAP1 PUSH1 0x3 SHL SHR NOT AND OR PUSH1 0x1 DUP4 ADD SSTORE JUMPDEST DUP1 MLOAD PUSH1 0x2 DUP4 ADD SWAP2 PUSH1 0x1 PUSH1 0x1 PUSH1 0x40 SHL SUB DUP3 GT PUSH2 0x42A JUMPI PUSH2 0x2E6 DUP4 SLOAD PUSH2 0x2D95 JUMP JUMPDEST PUSH1 0x1F DUP2 GT PUSH2 0x4D3 JUMPI JUMPDEST POP PUSH1 0x20 SWAP1 PUSH1 0x1F DUP4 GT PUSH1 0x1 EQ PUSH2 0x467 JUMPI PUSH1 0xE SWAP5 SWAP4 SWAP3 SWAP2 PUSH1 0x0 SWAP2 DUP4 PUSH2 0x45C JUMPI JUMPDEST POP POP DUP2 PUSH1 0x1 SHL SWAP2 PUSH1 0x0 NOT SWAP1 PUSH1 0x3 SHL SHR NOT AND OR SWAP1 SSTORE JUMPDEST PUSH1 0x3 DUP2 ADD PUSH2 0xFFFF NOT SWAP1 DUP2 DUP2 SLOAD AND SWAP1 SSTORE PUSH1 0x0 PUSH1 0x40 MLOAD PUSH2 0x33F DUP2 PUSH2 0x2CCF JUMP JUMPDEST MSTORE PUSH1 0x4 DUP3 ADD DUP1 SLOAD PUSH1 0x0 DUP3 SSTORE DUP1 PUSH2 0x440 JUMPI JUMPDEST POP POP PUSH1 0x44 CALLDATALOAD PUSH1 0x9 DUP4 ADD SSTORE PUSH1 0x64 CALLDATALOAD PUSH1 0xA DUP4 ADD SSTORE PUSH1 0x84 CALLDATALOAD PUSH1 0xB DUP4 ADD SSTORE PUSH1 0xC DUP3 ADD SWAP1 DUP2 SLOAD AND SWAP1 SSTORE PUSH1 0x0 PUSH1 0xD DUP3 ADD SSTORE ADD PUSH1 0x1 PUSH1 0xFF NOT DUP3 SLOAD AND OR SWAP1 SSTORE PUSH1 0xA SLOAD PUSH1 0x1 PUSH1 0x40 SHL DUP2 LT ISZERO PUSH2 0x42A JUMPI PUSH1 0x1 DUP2 ADD DUP1 PUSH1 0xA SSTORE DUP2 LT ISZERO PUSH2 0x414 JUMPI PUSH32 0x52BE7C4E77B4DE76B7607D621492061FE13B58597E72DFB5E51AB8F6187ED141 PUSH2 0x409 PUSH1 0x20 SWAP5 DUP5 DUP1 SWAP5 PUSH1 0xA PUSH1 0x0 MSTORE PUSH32 0xC65A7BB8D6351C1CF70C95A316CC6A92839C986682D98BC35F958F4883F9D2A8 ADD SSTORE PUSH1 0x40 MLOAD SWAP2 DUP3 SWAP2 DUP8 DUP4 MSTORE DUP8 DUP4 ADD SWAP1 PUSH2 0x2E75 JUMP JUMPDEST SUB SWAP1 LOG2 PUSH1 0x40 MLOAD SWAP1 DUP2 MSTORE RETURN JUMPDEST PUSH4 0x4E487B71 PUSH1 0xE0 SHL PUSH1 0x0 MSTORE PUSH1 0x32 PUSH1 0x4 MSTORE PUSH1 0x24 PUSH1 0x0 REVERT JUMPDEST PUSH4 0x4E487B71 PUSH1 0xE0 SHL PUSH1 0x0 MSTORE PUSH1 0x41 PUSH1 0x4 MSTORE PUSH1 0x24 PUSH1 0x0 REVERT JUMPDEST PUSH2 0x455 SWAP2 PUSH1 0x0 MSTORE PUSH1 0x20 PUSH1 0x0 KECCAK256 SWAP1 DUP2 ADD SWAP1 PUSH2 0x2F7E JUMP JUMPDEST CODESIZE DUP1 PUSH2 0x350 JUMP JUMPDEST ADD MLOAD SWAP1 POP CODESIZE DUP1 PUSH2 0x30D JUMP JUMPDEST SWAP1 PUSH1 0x1F NOT DUP4 AND SWAP2 DUP5 PUSH1 0x0 MSTORE PUSH1 0x20 PUSH1 0x0 KECCAK256 SWAP3 PUSH1 0x0 JUMPDEST DUP2 DUP2 LT PUSH2 0x4BB JUMPI POP SWAP2 PUSH1 0x1 SWAP4 SWAP2 DUP6 PUSH1 0xE SWAP9 SWAP8 SWAP7 SWAP5 LT PUSH2 0x4A2 JUMPI JUMPDEST POP POP POP DUP2 SHL ADD SWAP1 SSTORE PUSH2 0x322 JUMP JUMPDEST ADD MLOAD PUSH1 0x0 NOT PUSH1 0xF8 DUP5 PUSH1 0x3 SHL AND SHR NOT AND SWAP1 SSTORE CODESIZE DUP1 DUP1 PUSH2 0x495 JUMP JUMPDEST SWAP3 SWAP4 PUSH1 0x20 PUSH1 0x1 DUP2 SWAP3 DUP8 DUP7 ADD MLOAD DUP2 SSTORE ADD SWAP6 ADD SWAP4 ADD PUSH2 0x47B JUMP JUMPDEST PUSH2 0x500 SWAP1 DUP5 PUSH1 0x0 MSTORE PUSH1 0x20 PUSH1 0x0 KECCAK256 PUSH1 0x1F DUP6 ADD PUSH1 0x5 SHR DUP2 ADD SWAP2 PUSH1 0x20 DUP7 LT PUSH2 0x506 JUMPI JUMPDEST PUSH1 0x1F ADD PUSH1 0x5 SHR ADD SWAP1 PUSH2 0x2F7E JUMP JUMPDEST CODESIZE PUSH2 0x2EF JUMP JUMPDEST SWAP1 SWAP2 POP DUP2 SWAP1 PUSH2 0x4F3 JUMP JUMPDEST SWAP1 POP DUP6 ADD MLOAD CODESIZE PUSH2 0x2B0 JUMP JUMPDEST SWAP2 POP PUSH1 0x1 DUP5 ADD PUSH1 0x0 MSTORE PUSH1 0x20 PUSH1 0x0 KECCAK256 PUSH1 0x0 SWAP3 JUMPDEST PUSH1 0x1F NOT DUP4 AND DUP5 LT PUSH2 0x570 JUMPI PUSH1 0x1 SWAP4 POP DUP3 PUSH1 0x1F NOT DUP2 AND LT PUSH2 0x557 JUMPI JUMPDEST POP POP DUP2 SHL ADD PUSH1 0x1 DUP4 ADD SSTORE PUSH2 0x2C7 JUMP JUMPDEST DUP8 ADD MLOAD PUSH1 0x0 NOT PUSH1 0xF8 DUP5 PUSH1 0x3 SHL AND SHR NOT AND SWAP1 SSTORE CODESIZE DUP1 PUSH2 0x548 JUMP JUMPDEST DUP8 DUP2 ADD MLOAD DUP3 SSTORE PUSH1 0x20 SWAP4 DUP5 ADD SWAP4 PUSH1 0x1 SWAP1 SWAP3 ADD SWAP2 ADD PUSH2 0x52D JUMP JUMPDEST PUSH2 0x5B7 SWAP1 PUSH1 0x1 DUP6 ADD PUSH1 0x0 MSTORE PUSH1 0x20 PUSH1 0x0 KECCAK256 PUSH1 0x1F DUP5 ADD PUSH1 0x5 SHR DUP2 ADD SWAP2 PUSH1 0x20 DUP6 LT PUSH2 0x506 JUMPI PUSH1 0x1F ADD PUSH1 0x5 SHR ADD SWAP1 PUSH2 0x2F7E JUMP JUMPDEST CODESIZE PUSH2 0x299 JUMP JUMPDEST PUSH1 0x40 MLOAD PUSH3 0x461BCD PUSH1 0xE5 SHL DUP2 MSTORE PUSH1 0x20 PUSH1 0x4 DUP3 ADD MSTORE PUSH1 0x1B PUSH1 0x24 DUP3 ADD MSTORE PUSH32 0x4465736372697074696F6E2063616E6E6F7420626520656D7074790000000000 PUSH1 0x44 DUP3 ADD MSTORE PUSH1 0x64 SWAP1 REVERT JUMPDEST PUSH1 0x40 MLOAD PUSH3 0x461BCD PUSH1 0xE5 SHL DUP2 MSTORE PUSH1 0x20 PUSH1 0x4 DUP3 ADD MSTORE PUSH1 0x15 PUSH1 0x24 DUP3 ADD MSTORE PUSH21 0x5469746C652063616E6E6F7420626520656D707479 PUSH1 0x58 SHL PUSH1 0x44 DUP3 ADD MSTORE PUSH1 0x64 SWAP1 REVERT JUMPDEST PUSH1 0x0 DUP1 REVERT JUMPDEST CALLVALUE PUSH2 0x63F JUMPI PUSH1 0x0 CALLDATASIZE PUSH1 0x3 NOT ADD SLT PUSH2 0x63F JUMPI PUSH1 0x40 MLOAD DUP1 PUSH1 0x6 SLOAD SWAP2 DUP3 DUP2 MSTORE PUSH1 0x20 DUP1 SWAP2 ADD SWAP3 PUSH1 0x6 PUSH1 0x0 MSTORE PUSH32 0xF652222313E28459528D920B65115C16C04F3EFC82AAEDC97BE59F3F377C0D3F SWAP2 PUSH1 0x0 SWAP1 JUMPDEST DUP3 DUP3 LT PUSH2 0x6B8 JUMPI PUSH2 0x6B4 DUP6 PUSH2 0x6A8 DUP2 DUP10 SUB DUP3 PUSH2 0x2CEA JUMP JUMPDEST PUSH1 0x40 MLOAD SWAP2 DUP3 SWAP2 DUP3 PUSH2 0x2ECB JUMP JUMPDEST SUB SWAP1 RETURN JUMPDEST DUP4 SLOAD PUSH1 0x1 PUSH1 0x1 PUSH1 0xA0 SHL SUB AND DUP7 MSTORE SWAP5 DUP6 ADD SWAP5 PUSH1 0x1 SWAP4 DUP5 ADD SWAP4 SWAP1 SWAP2 ADD SWAP1 PUSH2 0x691 JUMP JUMPDEST CALLVALUE PUSH2 0x63F JUMPI PUSH1 0x20 CALLDATASIZE PUSH1 0x3 NOT ADD SLT PUSH2 0x63F JUMPI PUSH1 0x4 CALLDATALOAD PUSH1 0x7 SLOAD DUP2 LT ISZERO PUSH2 0x63F JUMPI PUSH2 0x701 PUSH1 0x20 SWAP2 PUSH2 0x2C2A JUMP JUMPDEST SWAP1 SLOAD PUSH1 0x40 MLOAD SWAP2 PUSH1 0x3 SHL SHR DUP2 MSTORE RETURN JUMPDEST CALLVALUE PUSH2 0x63F JUMPI PUSH1 0x20 CALLDATASIZE PUSH1 0x3 NOT ADD SLT PUSH2 0x63F JUMPI PUSH2 0x728 PUSH2 0x2C14 JUMP JUMPDEST PUSH2 0x730 PUSH2 0x2F0F JUMP JUMPDEST PUSH1 0x1 PUSH1 0x1 PUSH1 0xA0 SHL SUB SWAP1 DUP2 AND SWAP1 DUP2 ISZERO PUSH2 0x77F JUMPI PUSH1 0x0 SLOAD DUP3 PUSH1 0x1 PUSH1 0x1 PUSH1 0x60 SHL SUB PUSH1 0xA0 SHL DUP3 AND OR PUSH1 0x0 SSTORE AND PUSH32 0x8BE0079C531659141344CD1FD0A4F28419497F9722A3DAAFE3B4186F6B6457E0 PUSH1 0x0 DUP1 LOG3 STOP JUMPDEST PUSH1 0x40 MLOAD PUSH3 0x461BCD PUSH1 0xE5 SHL DUP2 MSTORE PUSH1 0x20 PUSH1 0x4 DUP3 ADD MSTORE PUSH1 0x26 PUSH1 0x24 DUP3 ADD MSTORE PUSH32 0x4F776E61626C653A206E6577206F776E657220697320746865207A65726F2061 PUSH1 0x44 DUP3 ADD MSTORE PUSH6 0x646472657373 PUSH1 0xD0 SHL PUSH1 0x64 DUP3 ADD MSTORE PUSH1 0x84 SWAP1 REVERT JUMPDEST CALLVALUE PUSH2 0x63F JUMPI PUSH1 0x40 CALLDATASIZE PUSH1 0x3 NOT ADD SLT PUSH2 0x63F JUMPI PUSH1 0x4 CALLDATALOAD PUSH1 0x1 PUSH1 0x1 PUSH1 0x40 SHL SUB DUP2 GT PUSH2 0x63F JUMPI PUSH2 0x803 SWAP1 CALLDATASIZE SWAP1 PUSH1 0x4 ADD PUSH2 0x2D0B JUMP JUMPDEST SWAP1 PUSH1 0x24 CALLDATALOAD PUSH1 0x1 PUSH1 0x1 PUSH1 0x40 SHL SUB DUP2 GT PUSH2 0x63F JUMPI PUSH2 0x823 SWAP1 CALLDATASIZE SWAP1 PUSH1 0x4 ADD PUSH2 0x2D0B JUMP JUMPDEST SWAP2 CALLER PUSH1 0x0 MSTORE PUSH1 0x3 PUSH1 0x20 MSTORE PUSH1 0xFF PUSH1 0x3 PUSH1 0x40 PUSH1 0x0 KECCAK256 ADD SLOAD AND ISZERO PUSH2 0xCB8 JUMPI DUP1 MLOAD ISZERO PUSH2 0xC73 JUMPI DUP3 MLOAD ISZERO PUSH2 0xC35 JUMPI PUSH1 0xB SLOAD SWAP2 PUSH2 0x859 DUP4 PUSH2 0x2F95 JUMP JUMPDEST PUSH1 0xB SSTORE PUSH1 0x40 MLOAD SWAP1 PUSH2 0x869 DUP3 PUSH2 0x2CB3 JUMP JUMPDEST DUP4 DUP3 MSTORE CALLER PUSH1 0x20 DUP4 ADD MSTORE DUP3 PUSH1 0x40 DUP4 ADD MSTORE DUP5 PUSH1 0x60 DUP4 ADD MSTORE PUSH1 0x0 PUSH1 0x80 DUP4 ADD MSTORE PUSH1 0x0 PUSH1 0xA0 DUP4 ADD MSTORE PUSH1 0x0 PUSH1 0xC0 DUP4 ADD MSTORE PUSH1 0x1 DUP2 DUP4 ADD MSTORE DUP4 PUSH1 0x0 MSTORE PUSH1 0x4 PUSH1 0x20 MSTORE PUSH1 0x40 PUSH1 0x0 KECCAK256 DUP3 MLOAD DUP2 SSTORE PUSH1 0x1 DUP2 ADD PUSH1 0x1 DUP1 PUSH1 0xA0 SHL SUB PUSH1 0x20 DUP6 ADD MLOAD AND PUSH1 0x1 PUSH1 0x1 PUSH1 0x60 SHL SUB PUSH1 0xA0 SHL DUP3 SLOAD AND OR SWAP1 SSTORE PUSH1 0x40 DUP4 ADD MLOAD DUP1 MLOAD SWAP1 PUSH1 0x1 PUSH1 0x1 PUSH1 0x40 SHL SUB DUP3 GT PUSH2 0x42A JUMPI DUP2 SWAP1 PUSH2 0x8F2 PUSH1 0x2 DUP6 ADD SLOAD PUSH2 0x2D95 JUMP JUMPDEST PUSH1 0x1F DUP2 GT PUSH2 0xC00 JUMPI JUMPDEST POP PUSH1 0x20 SWAP1 PUSH1 0x1F DUP4 GT PUSH1 0x1 EQ PUSH2 0xB8E JUMPI PUSH1 0x0 SWAP3 PUSH2 0xB83 JUMPI JUMPDEST POP POP DUP2 PUSH1 0x1 SHL SWAP2 PUSH1 0x0 NOT SWAP1 PUSH1 0x3 SHL SHR NOT AND OR PUSH1 0x2 DUP3 ADD SSTORE JUMPDEST PUSH1 0x60 DUP4 ADD MLOAD DUP1 MLOAD SWAP1 PUSH1 0x1 PUSH1 0x1 PUSH1 0x40 SHL SUB DUP3 GT PUSH2 0x42A JUMPI PUSH2 0x94D PUSH1 0x3 DUP5 ADD SLOAD PUSH2 0x2D95 JUMP JUMPDEST PUSH1 0x1F DUP2 GT PUSH2 0xB4E JUMPI JUMPDEST POP PUSH1 0x20 SWAP1 PUSH1 0x1F DUP4 GT PUSH1 0x1 EQ PUSH2 0xAD6 JUMPI SWAP2 DUP1 PUSH2 0x9DB SWAP7 SWAP6 SWAP5 SWAP3 PUSH1 0x6 SWAP5 PUSH1 0x0 SWAP3 PUSH2 0xACB JUMPI JUMPDEST POP POP DUP2 PUSH1 0x1 SHL SWAP2 PUSH1 0x0 NOT SWAP1 PUSH1 0x3 SHL SHR NOT AND OR PUSH1 0x3 DUP3 ADD SSTORE JUMPDEST PUSH1 0x80 DUP5 ADD MLOAD PUSH1 0x4 DUP3 ADD SSTORE PUSH1 0xA0 DUP5 ADD MLOAD PUSH1 0x5 DUP3 ADD SSTORE ADD SWAP2 PUSH2 0x9C3 PUSH1 0xC0 DUP3 ADD MLOAD ISZERO ISZERO DUP5 SWAP1 PUSH1 0xFF DUP1 NOT DUP4 SLOAD AND SWAP2 ISZERO ISZERO AND OR SWAP1 SSTORE JUMP JUMPDEST ADD MLOAD DUP2 SLOAD PUSH2 0xFF00 NOT AND SWAP1 ISZERO ISZERO PUSH1 0x8 SHL PUSH2 0xFF00 AND OR SWAP1 SSTORE JUMP JUMPDEST CALLER PUSH1 0x0 MSTORE PUSH1 0x3 PUSH1 0x20 MSTORE PUSH1 0x1 PUSH1 0x40 PUSH1 0x0 KECCAK256 ADD PUSH2 0x100 PUSH2 0xFF00 NOT DUP3 SLOAD AND OR SWAP1 SSTORE PUSH1 0x7 SLOAD PUSH1 0x1 PUSH1 0x40 SHL SWAP1 DUP2 DUP2 LT ISZERO PUSH2 0x42A JUMPI DUP4 PUSH2 0xA1E DUP3 PUSH1 0x1 PUSH2 0xA37 SWAP5 ADD PUSH1 0x7 SSTORE PUSH2 0x2C2A JUMP JUMPDEST SWAP1 SWAP2 SWAP1 DUP3 SLOAD SWAP1 PUSH1 0x3 SHL SWAP2 DUP3 SHL SWAP2 PUSH1 0x0 NOT SWAP1 SHL NOT AND OR SWAP1 SSTORE JUMP JUMPDEST PUSH1 0x9 SLOAD SWAP1 DUP2 LT ISZERO PUSH2 0x42A JUMPI PUSH1 0x1 DUP2 ADD DUP1 PUSH1 0x9 SSTORE DUP2 LT ISZERO PUSH2 0x414 JUMPI PUSH32 0x8EE8BA30B5C49EEA6C2FDCD6424EB5FBE1D9CE7FBF823596AE760EC67778E842 SWAP2 DUP4 PUSH2 0xAB7 SWAP3 PUSH1 0x9 PUSH1 0x0 MSTORE PUSH32 0x6E1540171B6C0C960B71A7020D9F60077F6AF931A8BBF590DA0223DACF75C7AF ADD SSTORE PUSH2 0xAC6 PUSH1 0x40 MLOAD SWAP3 DUP4 SWAP3 PUSH1 0x40 DUP5 MSTORE PUSH1 0x40 DUP5 ADD SWAP1 PUSH2 0x2E75 JUMP JUMPDEST DUP3 DUP2 SUB PUSH1 0x20 DUP5 ADD MSTORE CALLER SWAP7 PUSH2 0x2E75 JUMP JUMPDEST SUB SWAP1 LOG3 STOP JUMPDEST ADD MLOAD SWAP1 POP DUP11 DUP1 PUSH2 0x979 JUMP JUMPDEST SWAP1 PUSH1 0x3 DUP5 ADD PUSH1 0x0 MSTORE PUSH1 0x20 PUSH1 0x0 KECCAK256 SWAP2 PUSH1 0x0 JUMPDEST PUSH1 0x1F NOT DUP6 AND DUP2 LT PUSH2 0xB36 JUMPI POP SWAP3 PUSH2 0x9DB SWAP7 SWAP6 SWAP5 SWAP3 PUSH1 0x1 SWAP3 PUSH1 0x6 SWAP6 DUP4 PUSH1 0x1F NOT DUP2 AND LT PUSH2 0xB1D JUMPI JUMPDEST POP POP POP DUP2 SHL ADD PUSH1 0x3 DUP3 ADD SSTORE PUSH2 0x991 JUMP JUMPDEST ADD MLOAD PUSH1 0x0 NOT PUSH1 0xF8 DUP5 PUSH1 0x3 SHL AND SHR NOT AND SWAP1 SSTORE DUP11 DUP1 DUP1 PUSH2 0xB0D JUMP JUMPDEST SWAP2 SWAP3 PUSH1 0x20 PUSH1 0x1 DUP2 SWAP3 DUP7 DUP6 ADD MLOAD DUP2 SSTORE ADD SWAP5 ADD SWAP3 ADD PUSH2 0xAE7 JUMP JUMPDEST PUSH2 0xB7D SWAP1 PUSH1 0x3 DUP6 ADD PUSH1 0x0 MSTORE PUSH1 0x20 PUSH1 0x0 KECCAK256 PUSH1 0x1F DUP6 ADD PUSH1 0x5 SHR DUP2 ADD SWAP2 PUSH1 0x20 DUP7 LT PUSH2 0x506 JUMPI PUSH1 0x1F ADD PUSH1 0x5 SHR ADD SWAP1 PUSH2 0x2F7E JUMP JUMPDEST DUP9 PUSH2 0x956 JUMP JUMPDEST ADD MLOAD SWAP1 POP DUP9 DUP1 PUSH2 0x912 JUMP JUMPDEST SWAP3 POP PUSH1 0x2 DUP5 ADD PUSH1 0x0 MSTORE PUSH1 0x20 PUSH1 0x0 KECCAK256 SWAP1 PUSH1 0x0 SWAP4 JUMPDEST PUSH1 0x1F NOT DUP5 AND DUP6 LT PUSH2 0xBE5 JUMPI PUSH1 0x1 SWAP5 POP DUP4 PUSH1 0x1F NOT DUP2 AND LT PUSH2 0xBCC JUMPI JUMPDEST POP POP POP DUP2 SHL ADD PUSH1 0x2 DUP3 ADD SSTORE PUSH2 0x92A JUMP JUMPDEST ADD MLOAD PUSH1 0x0 NOT PUSH1 0xF8 DUP5 PUSH1 0x3 SHL AND SHR NOT AND SWAP1 SSTORE DUP9 DUP1 DUP1 PUSH2 0xBBC JUMP JUMPDEST DUP2 DUP2 ADD MLOAD DUP4 SSTORE PUSH1 0x20 SWAP5 DUP6 ADD SWAP5 PUSH1 0x1 SWAP1 SWAP4 ADD SWAP3 SWAP1 SWAP2 ADD SWAP1 PUSH2 0xBA1 JUMP JUMPDEST PUSH2 0xC2F SWAP1 PUSH1 0x2 DUP7 ADD PUSH1 0x0 MSTORE PUSH1 0x20 PUSH1 0x0 KECCAK256 PUSH1 0x1F DUP6 ADD PUSH1 0x5 SHR DUP2 ADD SWAP2 PUSH1 0x20 DUP7 LT PUSH2 0x506 JUMPI PUSH1 0x1F ADD PUSH1 0x5 SHR ADD SWAP1 PUSH2 0x2F7E JUMP JUMPDEST DUP10 PUSH2 0x8FB JUMP JUMPDEST PUSH1 0x40 MLOAD PUSH3 0x461BCD PUSH1 0xE5 SHL DUP2 MSTORE PUSH1 0x20 PUSH1 0x4 DUP3 ADD MSTORE PUSH1 0x16 PUSH1 0x24 DUP3 ADD MSTORE PUSH22 0x53796D626F6C2063616E6E6F7420626520656D707479 PUSH1 0x50 SHL PUSH1 0x44 DUP3 ADD MSTORE PUSH1 0x64 SWAP1 REVERT JUMPDEST PUSH1 0x40 MLOAD PUSH3 0x461BCD PUSH1 0xE5 SHL DUP2 MSTORE PUSH1 0x20 PUSH1 0x4 DUP3 ADD MSTORE PUSH1 0x1A PUSH1 0x24 DUP3 ADD MSTORE PUSH32 0x5061727479206E616D652063616E6E6F7420626520656D707479000000000000 PUSH1 0x44 DUP3 ADD MSTORE PUSH1 0x64 SWAP1 REVERT JUMPDEST PUSH1 0x40 MLOAD PUSH3 0x461BCD PUSH1 0xE5 SHL DUP2 MSTORE PUSH1 0x20 PUSH1 0x4 DUP3 ADD MSTORE PUSH1 0x13 PUSH1 0x24 DUP3 ADD MSTORE PUSH19 0x155CD95C881B9BDD081C9959DA5CDD195C9959 PUSH1 0x6A SHL PUSH1 0x44 DUP3 ADD MSTORE PUSH1 0x64 SWAP1 REVERT JUMPDEST CALLVALUE PUSH2 0x63F JUMPI PUSH1 0x20 CALLDATASIZE PUSH1 0x3 NOT ADD SLT PUSH2 0x63F JUMPI PUSH1 0x4 CALLDATALOAD DUP1 PUSH1 0x0 MSTORE PUSH1 0x5 PUSH1 0x20 MSTORE PUSH1 0xFF SWAP1 PUSH2 0xD26 DUP3 PUSH1 0xE PUSH1 0x40 PUSH1 0x0 KECCAK256 ADD SLOAD AND PUSH2 0x3139 JUMP JUMPDEST DUP1 PUSH1 0x0 MSTORE PUSH1 0x5 PUSH1 0x20 MSTORE PUSH1 0x40 PUSH1 0x0 KECCAK256 SWAP2 PUSH1 0xC DUP4 ADD SWAP3 DUP4 SLOAD SWAP3 DUP3 DUP5 PUSH1 0x8 SHR AND ISZERO DUP1 PUSH2 0xE4E JUMPI JUMPDEST PUSH2 0xD50 JUMPI STOP JUMPDEST DUP3 SWAP1 PUSH1 0x3 DUP4 ADD SWAP1 DUP2 SLOAD DUP4 DUP2 AND ISZERO DUP1 PUSH2 0xE40 JUMPI JUMPDEST PUSH2 0xE05 JUMPI JUMPDEST POP DUP2 SLOAD DUP4 DUP2 AND DUP1 PUSH2 0xDF7 JUMPI JUMPDEST PUSH2 0xDBA JUMPI JUMPDEST POP POP SLOAD PUSH1 0x8 SHR AND SWAP2 DUP3 PUSH2 0xDAF JUMPI JUMPDEST POP DUP2 PUSH2 0xDA0 JUMPI JUMPDEST POP PUSH2 0xD95 JUMPI STOP JUMPDEST PUSH1 0xFF NOT AND PUSH1 0x1 OR SWAP1 SSTORE STOP JUMPDEST PUSH1 0xB SWAP2 POP ADD SLOAD TIMESTAMP LT ISZERO DUP4 PUSH2 0xD8E JUMP JUMPDEST DUP4 AND ISZERO SWAP2 POP DUP5 PUSH2 0xD87 JUMP JUMPDEST PUSH2 0xFFFF NOT AND PUSH2 0x100 OR DUP3 SSTORE TIMESTAMP PUSH1 0x8 DUP6 ADD SSTORE PUSH32 0x562CD572B2BA3B666CD989FC4CA98419EC81E75F04528DF9D9D76FDB7807EE71 PUSH1 0x0 DUP1 LOG2 DUP7 DUP1 PUSH2 0xD79 JUMP JUMPDEST POP PUSH1 0xA DUP6 ADD SLOAD TIMESTAMP LT ISZERO PUSH2 0xD74 JUMP JUMPDEST PUSH1 0xFF NOT AND PUSH1 0x1 OR DUP3 SSTORE TIMESTAMP PUSH1 0x7 DUP6 ADD SSTORE DUP1 PUSH32 0x159EEE87222A0489C529F2153C26AD65D718F2CC33EBAA8D399D1DD5B39FACAA PUSH1 0x0 DUP1 LOG2 DUP8 PUSH2 0xD68 JUMP JUMPDEST POP PUSH1 0x9 DUP6 ADD SLOAD TIMESTAMP LT ISZERO PUSH2 0xD63 JUMP JUMPDEST POP DUP3 PUSH1 0x3 DUP4 ADD SLOAD PUSH1 0x8 SHR AND ISZERO PUSH2 0xD4A JUMP JUMPDEST CALLVALUE PUSH2 0x63F JUMPI PUSH1 0x20 DUP1 PUSH1 0x3 NOT CALLDATASIZE ADD SLT PUSH2 0x63F JUMPI PUSH1 0x4 CALLDATALOAD DUP1 PUSH1 0x0 MSTORE PUSH1 0x5 DUP3 MSTORE PUSH2 0xE90 PUSH1 0xFF PUSH1 0xE PUSH1 0x40 PUSH1 0x0 KECCAK256 ADD SLOAD AND PUSH2 0x3139 JUMP JUMPDEST DUP1 PUSH1 0x0 MSTORE PUSH1 0x5 DUP3 MSTORE PUSH1 0xFF PUSH1 0x3 PUSH1 0x40 PUSH1 0x0 KECCAK256 ADD SLOAD PUSH1 0x8 SHR AND ISZERO PUSH2 0xF5B JUMPI PUSH1 0x0 MSTORE PUSH1 0x5 DUP2 MSTORE PUSH2 0xEC3 PUSH1 0x4 PUSH1 0x40 PUSH1 0x0 KECCAK256 ADD PUSH2 0x325D JUMP JUMPDEST DUP1 MLOAD PUSH2 0xECE DUP2 PUSH2 0x2F67 JUMP JUMPDEST SWAP1 PUSH2 0xEDC PUSH1 0x40 MLOAD SWAP3 DUP4 PUSH2 0x2CEA JUMP JUMPDEST DUP1 DUP3 MSTORE PUSH2 0xEEB PUSH1 0x1F NOT SWAP2 PUSH2 0x2F67 JUMP JUMPDEST ADD CALLDATASIZE DUP5 DUP4 ADD CALLDATACOPY PUSH1 0x0 JUMPDEST DUP3 MLOAD DUP2 LT ISZERO PUSH2 0xF31 JUMPI DUP1 PUSH2 0xF0B PUSH2 0xF2C SWAP3 DUP6 PUSH2 0x32AC JUMP JUMPDEST MLOAD PUSH1 0x0 MSTORE PUSH1 0x4 DUP6 MSTORE PUSH1 0x4 PUSH1 0x40 PUSH1 0x0 KECCAK256 ADD SLOAD PUSH2 0xF26 DUP3 DUP6 PUSH2 0x32AC JUMP JUMPDEST MSTORE PUSH2 0x2F95 JUMP JUMPDEST PUSH2 0xEF4 JUMP JUMPDEST POP PUSH2 0xF4E SWAP3 PUSH2 0x6B4 SWAP2 PUSH1 0x40 MLOAD SWAP5 DUP6 SWAP5 PUSH1 0x40 DUP7 MSTORE PUSH1 0x40 DUP7 ADD SWAP1 PUSH2 0x2D61 JUMP JUMPDEST SWAP2 DUP5 DUP4 SUB SWAP1 DUP6 ADD MSTORE PUSH2 0x2D61 JUMP JUMPDEST PUSH1 0x40 MLOAD PUSH3 0x461BCD PUSH1 0xE5 SHL DUP2 MSTORE PUSH1 0x4 DUP2 ADD DUP4 SWAP1 MSTORE PUSH1 0x12 PUSH1 0x24 DUP3 ADD MSTORE PUSH18 0x115B1958DD1A5BDB881B9BDD08195B991959 PUSH1 0x72 SHL PUSH1 0x44 DUP3 ADD MSTORE PUSH1 0x64 SWAP1 REVERT JUMPDEST CALLVALUE PUSH2 0x63F JUMPI PUSH1 0x0 CALLDATASIZE PUSH1 0x3 NOT ADD SLT PUSH2 0x63F JUMPI PUSH1 0x40 MLOAD DUP1 PUSH1 0x8 SLOAD SWAP2 DUP3 DUP2 MSTORE PUSH1 0x20 DUP1 SWAP2 ADD SWAP3 PUSH1 0x8 PUSH1 0x0 MSTORE PUSH32 0xF3F7A9FE364FAAB93B216DA50A3214154F22A0A2B415B23A84C8169E8B636EE3 SWAP2 PUSH1 0x0 SWAP1 JUMPDEST DUP3 DUP3 LT PUSH2 0xFF9 JUMPI PUSH2 0x6B4 DUP6 PUSH2 0x6A8 DUP2 DUP10 SUB DUP3 PUSH2 0x2CEA JUMP JUMPDEST DUP4 SLOAD PUSH1 0x1 PUSH1 0x1 PUSH1 0xA0 SHL SUB AND DUP7 MSTORE SWAP5 DUP6 ADD SWAP5 PUSH1 0x1 SWAP4 DUP5 ADD SWAP4 SWAP1 SWAP2 ADD SWAP1 PUSH2 0xFE2 JUMP JUMPDEST CALLVALUE PUSH2 0x63F JUMPI PUSH1 0x40 CALLDATASIZE PUSH1 0x3 NOT ADD SLT PUSH2 0x63F JUMPI PUSH1 0x4 CALLDATALOAD PUSH2 0x1035 PUSH2 0x2BFE JUMP JUMPDEST SWAP1 DUP1 PUSH1 0x0 MSTORE PUSH1 0x5 PUSH1 0x20 MSTORE PUSH2 0x1053 PUSH1 0xFF PUSH1 0xE PUSH1 0x40 PUSH1 0x0 KECCAK256 ADD SLOAD AND PUSH2 0x3139 JUMP JUMPDEST PUSH1 0x0 MSTORE PUSH1 0x5 PUSH1 0x20 MSTORE PUSH1 0x6 PUSH1 0x40 PUSH1 0x0 KECCAK256 ADD SWAP1 PUSH1 0x1 DUP1 PUSH1 0xA0 SHL SUB AND PUSH1 0x0 MSTORE PUSH1 0x20 MSTORE PUSH1 0x20 PUSH1 0xFF PUSH1 0x40 PUSH1 0x0 KECCAK256 SLOAD AND PUSH1 0x40 MLOAD SWAP1 ISZERO ISZERO DUP2 MSTORE RETURN JUMPDEST CALLVALUE PUSH2 0x63F JUMPI PUSH1 0x20 DUP1 PUSH1 0x3 NOT CALLDATASIZE ADD SLT PUSH2 0x63F JUMPI PUSH2 0x10A1 PUSH2 0x2C14 JUMP JUMPDEST SWAP1 PUSH2 0x10AA PUSH2 0x2F0F JUMP JUMPDEST PUSH1 0x1 DUP1 PUSH1 0xA0 SHL SUB DUP1 SWAP3 AND SWAP2 DUP3 PUSH1 0x0 MSTORE PUSH1 0x3 SWAP1 DUP2 DUP4 MSTORE PUSH1 0xFF DUP3 PUSH1 0x40 PUSH1 0x0 KECCAK256 ADD SLOAD AND ISZERO PUSH2 0x1251 JUMPI DUP4 PUSH1 0x0 MSTORE DUP2 DUP4 MSTORE PUSH1 0x1 SWAP3 PUSH1 0xFF DUP5 PUSH1 0x40 PUSH1 0x0 KECCAK256 ADD SLOAD PUSH1 0x10 SHR AND PUSH2 0x1215 JUMPI PUSH1 0x0 DUP6 DUP2 MSTORE SWAP1 DUP4 SWAP1 MSTORE PUSH1 0x40 DUP2 KECCAK256 DUP5 ADD DUP1 SLOAD PUSH3 0xFF00FF NOT AND PUSH3 0x10001 OR SWAP1 SSTORE DUP4 JUMPDEST PUSH2 0x1138 JUMPI JUMPDEST DUP5 PUSH32 0xFBB0A472171A6EB950C8A87421215268A1B2DF816DA0A48E920E72ADE27CFCF7 PUSH1 0x0 DUP1 LOG2 STOP JUMPDEST PUSH1 0x6 DUP1 SLOAD DUP1 DUP4 LT ISZERO PUSH2 0x120E JUMPI DUP7 DUP5 PUSH2 0x114F DUP6 PUSH2 0x2C61 JUMP JUMPDEST SWAP1 SLOAD SWAP1 DUP9 SHL SHR AND EQ PUSH2 0x116C JUMPI POP POP PUSH2 0x1166 SWAP1 PUSH2 0x2F95 JUMP JUMPDEST DUP4 PUSH2 0x110B JUMP JUMPDEST SWAP4 SWAP5 POP SWAP3 PUSH1 0x0 NOT SWAP2 DUP3 DUP3 ADD SWAP2 DUP3 GT PUSH2 0x11F8 JUMPI PUSH2 0x119B DUP5 PUSH2 0x118E PUSH2 0x11BA SWAP5 PUSH2 0x2C61 JUMP JUMPDEST SWAP1 SLOAD SWAP1 DUP10 SHL SHR AND SWAP2 PUSH2 0x2C61 JUMP JUMPDEST SWAP1 SWAP2 SWAP1 DUP3 SLOAD SWAP1 PUSH1 0x3 SHL SWAP2 PUSH1 0x1 DUP1 PUSH1 0xA0 SHL SUB DUP1 SWAP2 AND DUP4 SHL SWAP3 SHL NOT AND OR SWAP1 SSTORE JUMP JUMPDEST DUP3 SLOAD DUP1 ISZERO PUSH2 0x11E2 JUMPI ADD SWAP3 PUSH2 0x11CD DUP5 PUSH2 0x2C61 JUMP JUMPDEST DUP2 SWAP4 SWAP2 SLOAD SWAP3 SHL SHL NOT AND SWAP1 SSTORE SSTORE DUP2 DUP1 DUP1 DUP1 PUSH2 0x1110 JUMP JUMPDEST PUSH4 0x4E487B71 PUSH1 0xE0 SHL PUSH1 0x0 MSTORE PUSH1 0x31 PUSH1 0x4 MSTORE PUSH1 0x24 PUSH1 0x0 REVERT JUMPDEST PUSH4 0x4E487B71 PUSH1 0xE0 SHL PUSH1 0x0 MSTORE PUSH1 0x11 PUSH1 0x4 MSTORE PUSH1 0x24 PUSH1 0x0 REVERT JUMPDEST POP POP PUSH2 0x1110 JUMP JUMPDEST PUSH1 0x64 SWAP1 PUSH1 0x40 MLOAD SWAP1 PUSH3 0x461BCD PUSH1 0xE5 SHL DUP3 MSTORE PUSH1 0x4 DUP3 ADD MSTORE PUSH1 0x15 PUSH1 0x24 DUP3 ADD MSTORE PUSH21 0x155CD95C88185B1C9958591E48185C1C1C9BDD9959 PUSH1 0x5A SHL PUSH1 0x44 DUP3 ADD MSTORE REVERT JUMPDEST PUSH1 0x40 MLOAD PUSH3 0x461BCD PUSH1 0xE5 SHL DUP2 MSTORE PUSH1 0x4 DUP2 ADD DUP5 SWAP1 MSTORE PUSH1 0x13 PUSH1 0x24 DUP3 ADD MSTORE PUSH19 0x155CD95C88191BD95CC81B9BDD08195E1A5CDD PUSH1 0x6A SHL PUSH1 0x44 DUP3 ADD MSTORE PUSH1 0x64 SWAP1 REVERT JUMPDEST CALLVALUE PUSH2 0x63F JUMPI PUSH2 0x129A CALLDATASIZE PUSH2 0x2EB5 JUMP JUMPDEST SWAP1 CALLER PUSH1 0x0 MSTORE PUSH1 0x20 SWAP2 PUSH1 0x3 DUP4 MSTORE PUSH1 0xFF PUSH1 0x1 SWAP4 PUSH2 0x12C0 DUP3 DUP7 PUSH1 0x40 PUSH1 0x0 KECCAK256 ADD SLOAD PUSH1 0x10 SHR AND PUSH2 0x321D JUMP JUMPDEST DUP4 PUSH1 0x0 MSTORE PUSH1 0x5 SWAP2 DUP3 DUP3 MSTORE PUSH2 0x12DD DUP2 PUSH1 0xE PUSH1 0x40 PUSH1 0x0 KECCAK256 ADD SLOAD AND PUSH2 0x3139 JUMP JUMPDEST DUP4 PUSH1 0x0 MSTORE PUSH1 0x4 DUP3 MSTORE PUSH2 0x12FB DUP2 PUSH1 0x6 PUSH1 0x40 PUSH1 0x0 KECCAK256 ADD SLOAD PUSH1 0x8 SHR AND PUSH2 0x2FCD JUMP JUMPDEST DUP5 PUSH1 0x0 MSTORE DUP3 DUP3 MSTORE PUSH2 0x1329 PUSH1 0x40 PUSH1 0x0 KECCAK256 DUP3 PUSH1 0x3 DUP3 ADD SLOAD SWAP2 DUP2 DUP4 AND SWAP3 DUP4 PUSH2 0x1576 JUMPI JUMPDEST POP DUP3 PUSH2 0x1564 JUMPI JUMPDEST POP POP PUSH2 0x31DB JUMP JUMPDEST PUSH1 0x2 DUP7 SLOAD EQ PUSH2 0x151F JUMPI PUSH1 0x2 DUP7 SSTORE DUP5 PUSH1 0x0 MSTORE DUP3 DUP3 MSTORE DUP3 PUSH1 0x40 PUSH1 0x0 KECCAK256 ADD CALLER PUSH1 0x0 MSTORE DUP3 MSTORE DUP1 PUSH1 0x40 PUSH1 0x0 KECCAK256 SLOAD AND ISZERO PUSH2 0x14E3 JUMPI DUP5 PUSH1 0x0 MSTORE DUP3 DUP3 MSTORE PUSH1 0x6 PUSH1 0x40 PUSH1 0x0 KECCAK256 ADD CALLER PUSH1 0x0 MSTORE DUP3 MSTORE PUSH1 0x40 PUSH1 0x0 KECCAK256 SLOAD AND PUSH2 0x14AF JUMPI DUP3 PUSH1 0x0 MSTORE PUSH1 0x4 DUP2 MSTORE DUP4 DUP3 PUSH1 0x40 PUSH1 0x0 KECCAK256 ADD SLOAD SUB PUSH2 0x146B JUMPI DUP4 PUSH1 0x0 MSTORE DUP2 DUP2 MSTORE PUSH1 0xA PUSH1 0x40 PUSH1 0x0 KECCAK256 ADD SLOAD TIMESTAMP GT PUSH2 0x1427 JUMPI DUP4 PUSH1 0x0 MSTORE DUP2 DUP2 MSTORE PUSH1 0x6 PUSH1 0x40 PUSH1 0x0 KECCAK256 ADD CALLER PUSH1 0x0 MSTORE DUP2 MSTORE PUSH1 0x40 PUSH1 0x0 KECCAK256 DUP6 PUSH1 0xFF NOT DUP3 SLOAD AND OR SWAP1 SSTORE DUP3 PUSH1 0x0 MSTORE PUSH1 0x4 DUP2 MSTORE PUSH1 0x4 PUSH1 0x40 PUSH1 0x0 KECCAK256 ADD PUSH2 0x13E1 DUP2 SLOAD PUSH2 0x2F95 JUMP JUMPDEST SWAP1 SSTORE DUP4 PUSH1 0x0 MSTORE MSTORE PUSH1 0xD PUSH1 0x40 PUSH1 0x0 KECCAK256 ADD PUSH2 0x13FA DUP2 SLOAD PUSH2 0x2F95 JUMP JUMPDEST SWAP1 SSTORE CALLER SWAP2 PUSH32 0x7FE1D4E6B34E228B5DC059FCDC037C71B216FB2417F47C171E505144A5E4F5FC PUSH1 0x0 DUP1 LOG4 DUP1 SSTORE STOP JUMPDEST PUSH1 0x64 SWAP1 PUSH1 0x40 MLOAD SWAP1 PUSH3 0x461BCD PUSH1 0xE5 SHL DUP3 MSTORE PUSH1 0x4 DUP3 ADD MSTORE PUSH1 0x17 PUSH1 0x24 DUP3 ADD MSTORE PUSH32 0x566F74696E6720706572696F642068617320656E646564000000000000000000 PUSH1 0x44 DUP3 ADD MSTORE REVERT JUMPDEST PUSH1 0x64 SWAP1 PUSH1 0x40 MLOAD SWAP1 PUSH3 0x461BCD PUSH1 0xE5 SHL DUP3 MSTORE PUSH1 0x4 DUP3 ADD MSTORE PUSH1 0x1E PUSH1 0x24 DUP3 ADD MSTORE PUSH32 0x43616E646964617465206E6F7420696E207468697320656C656374696F6E0000 PUSH1 0x44 DUP3 ADD MSTORE REVERT JUMPDEST PUSH1 0x64 SWAP1 PUSH1 0x40 MLOAD SWAP1 PUSH3 0x461BCD PUSH1 0xE5 SHL DUP3 MSTORE PUSH1 0x4 DUP3 ADD MSTORE PUSH1 0xD PUSH1 0x24 DUP3 ADD MSTORE PUSH13 0x105B1C9958591E481D9BDD1959 PUSH1 0x9A SHL PUSH1 0x44 DUP3 ADD MSTORE REVERT JUMPDEST PUSH1 0x40 MLOAD PUSH3 0x461BCD PUSH1 0xE5 SHL DUP2 MSTORE PUSH1 0x4 DUP2 ADD DUP4 SWAP1 MSTORE PUSH1 0x14 PUSH1 0x24 DUP3 ADD MSTORE PUSH20 0x4E6F7420656E726F6C6C656420746F20766F7465 PUSH1 0x60 SHL PUSH1 0x44 DUP3 ADD MSTORE PUSH1 0x64 SWAP1 REVERT JUMPDEST PUSH1 0x40 MLOAD PUSH3 0x461BCD PUSH1 0xE5 SHL DUP2 MSTORE PUSH1 0x4 DUP2 ADD DUP4 SWAP1 MSTORE PUSH1 0x1F PUSH1 0x24 DUP3 ADD MSTORE PUSH32 0x5265656E7472616E637947756172643A207265656E7472616E742063616C6C00 PUSH1 0x44 DUP3 ADD MSTORE PUSH1 0x64 SWAP1 REVERT JUMPDEST PUSH1 0xC ADD SLOAD PUSH1 0x8 SHR AND ISZERO SWAP1 POP DUP3 DUP10 PUSH2 0x1322 JUMP JUMPDEST PUSH1 0x8 SHR DUP3 AND ISZERO SWAP3 POP DUP11 PUSH2 0x131B JUMP JUMPDEST CALLVALUE PUSH2 0x63F JUMPI PUSH1 0x20 CALLDATASIZE PUSH1 0x3 NOT ADD SLT PUSH2 0x63F JUMPI PUSH1 0x1 PUSH1 0x1 PUSH1 0xA0 SHL SUB PUSH2 0x15A5 PUSH2 0x2C14 JUMP JUMPDEST AND PUSH1 0x0 MSTORE PUSH1 0x3 PUSH1 0x20 MSTORE PUSH2 0x15E3 PUSH1 0x40 PUSH1 0x0 KECCAK256 PUSH2 0x15BF DUP2 PUSH2 0x2DCF JUMP JUMPDEST SWAP1 PUSH1 0xFF PUSH1 0x3 PUSH1 0x1 DUP4 ADD SLOAD SWAP3 ADD SLOAD AND PUSH1 0xFF PUSH1 0x40 MLOAD SWAP5 DUP6 SWAP5 PUSH1 0xA0 DUP7 MSTORE PUSH1 0xA0 DUP7 ADD SWAP1 PUSH2 0x2E75 JUMP JUMPDEST SWAP3 DUP2 DUP2 AND ISZERO ISZERO PUSH1 0x20 DUP7 ADD MSTORE DUP2 DUP2 PUSH1 0x8 SHR AND ISZERO ISZERO PUSH1 0x40 DUP7 ADD MSTORE PUSH1 0x10 SHR AND ISZERO ISZERO PUSH1 0x60 DUP5 ADD MSTORE ISZERO ISZERO PUSH1 0x80 DUP4 ADD MSTORE SUB SWAP1 RETURN JUMPDEST CALLVALUE PUSH2 0x63F JUMPI PUSH1 0x20 CALLDATASIZE PUSH1 0x3 NOT ADD SLT PUSH2 0x63F JUMPI PUSH1 0x4 CALLDATALOAD DUP1 PUSH1 0x0 MSTORE PUSH1 0x5 PUSH1 0x20 MSTORE PUSH1 0x40 PUSH1 0x0 KECCAK256 PUSH1 0xE ADD SLOAD PUSH1 0xFF AND PUSH2 0x1643 SWAP1 PUSH2 0x3139 JUMP JUMPDEST PUSH1 0x0 MSTORE PUSH1 0x5 PUSH1 0x20 MSTORE PUSH1 0x40 PUSH1 0x0 KECCAK256 SWAP1 DUP2 SLOAD SWAP1 PUSH1 0x3 DUP4 ADD SLOAD SWAP3 PUSH1 0x7 DUP2 ADD SLOAD SWAP2 PUSH1 0x8 DUP3 ADD SLOAD PUSH1 0x9 DUP4 ADD SLOAD PUSH1 0xA DUP5 ADD SLOAD SWAP1 PUSH1 0xB DUP6 ADD SLOAD SWAP3 PUSH1 0xC DUP7 ADD SLOAD SWAP5 PUSH1 0xD DUP8 ADD SLOAD SWAP7 PUSH1 0x1 DUP2 ADD PUSH2 0x168F SWAP1 PUSH2 0x2DCF JUMP JUMPDEST SWAP11 PUSH2 0x169C PUSH1 0x2 DUP4 ADD PUSH2 0x2DCF JUMP JUMPDEST SWAP2 PUSH1 0x4 ADD PUSH2 0x16A9 SWAP1 PUSH2 0x325D JUMP JUMPDEST SWAP2 PUSH1 0x40 MLOAD SWAP13 DUP14 SWAP13 DUP14 MSTORE DUP13 PUSH2 0x1C0 PUSH1 0x20 DUP2 SWAP3 ADD MSTORE DUP14 ADD PUSH2 0x16C7 SWAP2 PUSH2 0x2E75 JUMP JUMPDEST DUP13 DUP2 SUB PUSH1 0x40 DUP15 ADD MSTORE PUSH2 0x16D8 SWAP2 PUSH2 0x2E75 JUMP JUMPDEST SWAP1 PUSH1 0xFF DUP2 AND ISZERO ISZERO PUSH1 0x60 DUP14 ADD MSTORE PUSH1 0x8 SHR PUSH1 0xFF AND ISZERO ISZERO PUSH1 0x80 DUP13 ADD MSTORE DUP11 DUP2 SUB PUSH1 0xA0 DUP13 ADD MSTORE PUSH2 0x1702 SWAP2 PUSH2 0x2D61 JUMP JUMPDEST SWAP8 PUSH1 0xC0 DUP11 ADD MSTORE DUP9 ADD MSTORE PUSH2 0x100 DUP8 ADD MSTORE PUSH2 0x120 DUP7 ADD MSTORE PUSH2 0x140 DUP6 ADD MSTORE PUSH1 0xFF DUP2 AND ISZERO ISZERO PUSH2 0x160 DUP6 ADD MSTORE PUSH1 0x8 SHR PUSH1 0xFF AND ISZERO ISZERO PUSH2 0x180 DUP5 ADD MSTORE PUSH2 0x1A0 DUP4 ADD MSTORE SUB SWAP1 RETURN JUMPDEST CALLVALUE PUSH2 0x63F JUMPI PUSH1 0x20 CALLDATASIZE PUSH1 0x3 NOT ADD SLT PUSH2 0x63F JUMPI PUSH1 0x4 CALLDATALOAD PUSH2 0x175D PUSH2 0x2F0F JUMP JUMPDEST DUP1 PUSH1 0x0 MSTORE PUSH1 0x5 PUSH1 0x20 MSTORE PUSH2 0x177A PUSH1 0xFF PUSH1 0xE PUSH1 0x40 PUSH1 0x0 KECCAK256 ADD SLOAD AND PUSH2 0x3139 JUMP JUMPDEST DUP1 PUSH1 0x0 MSTORE PUSH1 0x5 PUSH1 0x20 MSTORE PUSH2 0x1797 PUSH1 0xFF PUSH1 0x3 PUSH1 0x40 PUSH1 0x0 KECCAK256 ADD SLOAD AND PUSH2 0x31DB JUMP JUMPDEST DUP1 PUSH1 0x0 MSTORE PUSH1 0x5 PUSH1 0x20 MSTORE PUSH1 0x40 PUSH1 0x0 KECCAK256 PUSH1 0x3 DUP2 ADD PUSH2 0x100 PUSH2 0xFFFF NOT DUP3 SLOAD AND OR SWAP1 SSTORE PUSH1 0x8 TIMESTAMP SWAP2 ADD SSTORE PUSH32 0x562CD572B2BA3B666CD989FC4CA98419EC81E75F04528DF9D9D76FDB7807EE71 PUSH1 0x0 DUP1 LOG2 STOP JUMPDEST CALLVALUE PUSH2 0x63F JUMPI PUSH1 0x0 CALLDATASIZE PUSH1 0x3 NOT ADD SLT PUSH2 0x63F JUMPI PUSH1 0x40 MLOAD DUP1 PUSH1 0x7 SLOAD DUP1 DUP3 MSTORE DUP3 PUSH1 0x20 DUP1 SWAP4 ADD PUSH1 0x7 PUSH1 0x0 MSTORE PUSH32 0xA66CC928B5EDB82AF9BD49922954155AB7B0942694BEA4CE44661D9A8736C688 SWAP3 PUSH1 0x0 JUMPDEST DUP6 DUP3 DUP3 LT PUSH2 0x1859 JUMPI POP POP POP PUSH2 0x1845 SWAP3 POP SUB DUP4 PUSH2 0x2CEA JUMP JUMPDEST PUSH2 0x6B4 PUSH1 0x40 MLOAD SWAP3 DUP3 DUP5 SWAP4 DUP5 MSTORE DUP4 ADD SWAP1 PUSH2 0x2D61 JUMP JUMPDEST DUP6 SLOAD DUP5 MSTORE PUSH1 0x1 SWAP6 DUP7 ADD SWAP6 DUP9 SWAP6 POP SWAP4 ADD SWAP3 ADD PUSH2 0x182E JUMP JUMPDEST CALLVALUE PUSH2 0x63F JUMPI PUSH1 0x0 CALLDATASIZE PUSH1 0x3 NOT ADD SLT PUSH2 0x63F JUMPI PUSH1 0x0 SLOAD PUSH1 0x40 MLOAD PUSH1 0x1 PUSH1 0x1 PUSH1 0xA0 SHL SUB SWAP1 SWAP2 AND DUP2 MSTORE PUSH1 0x20 SWAP1 RETURN JUMPDEST CALLVALUE PUSH2 0x63F JUMPI PUSH1 0x20 CALLDATASIZE PUSH1 0x3 NOT ADD SLT PUSH2 0x63F JUMPI PUSH1 0x4 CALLDATALOAD PUSH1 0x6 SLOAD DUP2 LT ISZERO PUSH2 0x63F JUMPI PUSH2 0x18C1 PUSH1 0x20 SWAP2 PUSH2 0x2C61 JUMP JUMPDEST SWAP1 SLOAD PUSH1 0x40 MLOAD PUSH1 0x3 SWAP3 SWAP1 SWAP3 SHL SHR PUSH1 0x1 PUSH1 0x1 PUSH1 0xA0 SHL SUB AND DUP2 MSTORE RETURN JUMPDEST CALLVALUE PUSH2 0x63F JUMPI PUSH1 0x0 CALLDATASIZE PUSH1 0x3 NOT ADD SLT PUSH2 0x63F JUMPI PUSH2 0x18F3 PUSH2 0x2F0F JUMP JUMPDEST PUSH1 0x2 SLOAD PUSH1 0xFF DUP2 AND PUSH2 0x1935 JUMPI PUSH1 0x1 SWAP1 PUSH1 0xFF NOT AND OR PUSH1 0x2 SSTORE PUSH32 0x62E78CEA01BEE320CD4E420270B5EA74000D11B0C9F74754EBDBFC544B05A258 PUSH1 0x20 PUSH1 0x40 MLOAD CALLER DUP2 MSTORE LOG1 STOP JUMPDEST PUSH1 0x40 MLOAD PUSH3 0x461BCD PUSH1 0xE5 SHL DUP2 MSTORE PUSH1 0x20 PUSH1 0x4 DUP3 ADD MSTORE PUSH1 0x10 PUSH1 0x24 DUP3 ADD MSTORE PUSH16 0x14185D5CD8589B194E881C185D5CD959 PUSH1 0x82 SHL PUSH1 0x44 DUP3 ADD MSTORE PUSH1 0x64 SWAP1 REVERT JUMPDEST CALLVALUE PUSH2 0x63F JUMPI PUSH1 0x0 CALLDATASIZE PUSH1 0x3 NOT ADD SLT PUSH2 0x63F JUMPI PUSH1 0x40 MLOAD DUP1 PUSH1 0xA SLOAD DUP1 DUP3 MSTORE DUP3 PUSH1 0x20 DUP1 SWAP4 ADD PUSH1 0xA PUSH1 0x0 MSTORE PUSH32 0xC65A7BB8D6351C1CF70C95A316CC6A92839C986682D98BC35F958F4883F9D2A8 SWAP3 PUSH1 0x0 JUMPDEST DUP6 DUP3 DUP3 LT PUSH2 0x19CF JUMPI POP POP POP PUSH2 0x1845 SWAP3 POP SUB DUP4 PUSH2 0x2CEA JUMP JUMPDEST DUP6 SLOAD DUP5 MSTORE PUSH1 0x1 SWAP6 DUP7 ADD SWAP6 DUP9 SWAP6 POP SWAP4 ADD SWAP3 ADD PUSH2 0x19B8 JUMP JUMPDEST CALLVALUE PUSH2 0x63F JUMPI PUSH2 0x19F3 CALLDATASIZE PUSH2 0x2EB5 JUMP JUMPDEST SWAP1 PUSH2 0x19FC PUSH2 0x2F0F JUMP JUMPDEST DUP1 PUSH1 0x0 MSTORE PUSH1 0x20 PUSH1 0x5 DUP2 MSTORE PUSH2 0x1A1A PUSH1 0xFF PUSH1 0xE PUSH1 0x40 PUSH1 0x0 KECCAK256 ADD SLOAD AND PUSH2 0x3139 JUMP JUMPDEST DUP3 PUSH1 0x0 MSTORE PUSH1 0x4 DUP2 MSTORE PUSH2 0x1A39 PUSH1 0xFF PUSH1 0x6 PUSH1 0x40 PUSH1 0x0 KECCAK256 ADD SLOAD PUSH1 0x8 SHR AND PUSH2 0x2FCD JUMP JUMPDEST DUP2 PUSH1 0x0 MSTORE PUSH1 0x5 DUP2 MSTORE PUSH2 0x1A5F PUSH1 0x3 PUSH1 0x40 PUSH1 0x0 KECCAK256 ADD SLOAD PUSH1 0xFF DUP2 AND ISZERO SWAP1 DUP2 PUSH2 0x1B71 JUMPI JUMPDEST POP PUSH2 0x3185 JUMP JUMPDEST DUP3 PUSH1 0x0 MSTORE PUSH1 0x4 DUP2 MSTORE PUSH1 0xFF PUSH1 0x6 PUSH1 0x40 PUSH1 0x0 KECCAK256 ADD SLOAD AND ISZERO PUSH2 0x1B34 JUMPI DUP3 PUSH1 0x0 MSTORE PUSH1 0x4 DUP2 MSTORE PUSH1 0x5 PUSH1 0x40 PUSH1 0x0 KECCAK256 ADD SLOAD PUSH2 0x1ADE JUMPI PUSH1 0x4 SWAP1 DUP3 PUSH1 0x0 MSTORE PUSH1 0x5 DUP2 MSTORE PUSH2 0x1AA8 DUP5 DUP4 PUSH1 0x40 PUSH1 0x0 KECCAK256 ADD PUSH2 0x2FA4 JUMP JUMPDEST DUP4 PUSH1 0x0 MSTORE MSTORE DUP1 PUSH1 0x5 PUSH1 0x40 PUSH1 0x0 KECCAK256 ADD SSTORE PUSH32 0xA4E69DB433EBEC4DED108FD5357E7B35D8671BC745D7F88A516B6C92F86A046E PUSH1 0x0 DUP1 LOG3 STOP JUMPDEST PUSH1 0x84 SWAP1 PUSH1 0x40 MLOAD SWAP1 PUSH3 0x461BCD PUSH1 0xE5 SHL DUP3 MSTORE PUSH1 0x4 DUP3 ADD MSTORE PUSH1 0x29 PUSH1 0x24 DUP3 ADD MSTORE PUSH32 0x43616E64696461746520616C72656164792061737369676E656420746F20616E PUSH1 0x44 DUP3 ADD MSTORE PUSH9 0x1032B632B1BA34B7B7 PUSH1 0xB9 SHL PUSH1 0x64 DUP3 ADD MSTORE REVERT JUMPDEST PUSH1 0x64 SWAP1 PUSH1 0x40 MLOAD SWAP1 PUSH3 0x461BCD PUSH1 0xE5 SHL DUP3 MSTORE PUSH1 0x4 DUP3 ADD MSTORE PUSH1 0x16 PUSH1 0x24 DUP3 ADD MSTORE PUSH22 0x10D85B991A59185D19481B9BDD08185C1C1C9BDD9959 PUSH1 0x52 SHL PUSH1 0x44 DUP3 ADD MSTORE REVERT JUMPDEST PUSH1 0xFF SWAP2 POP PUSH1 0x8 SHR AND ISZERO DUP6 PUSH2 0x1A59 JUMP JUMPDEST CALLVALUE PUSH2 0x63F JUMPI PUSH1 0x20 CALLDATASIZE PUSH1 0x3 NOT ADD SLT PUSH2 0x63F JUMPI PUSH1 0x4 CALLDATALOAD PUSH1 0xA SLOAD DUP2 LT ISZERO PUSH2 0x63F JUMPI PUSH1 0x20 SWAP1 PUSH1 0xA PUSH1 0x0 MSTORE PUSH32 0xC65A7BB8D6351C1CF70C95A316CC6A92839C986682D98BC35F958F4883F9D2A8 ADD SLOAD PUSH1 0x40 MLOAD SWAP1 DUP2 MSTORE RETURN JUMPDEST CALLVALUE PUSH2 0x63F JUMPI PUSH1 0x0 CALLDATASIZE PUSH1 0x3 NOT ADD SLT PUSH2 0x63F JUMPI PUSH2 0x1BEA PUSH2 0x2F0F JUMP JUMPDEST PUSH1 0x0 DUP1 SLOAD PUSH1 0x1 PUSH1 0x1 PUSH1 0xA0 SHL SUB NOT DUP2 AND DUP3 SSTORE PUSH1 0x1 PUSH1 0x1 PUSH1 0xA0 SHL SUB AND PUSH32 0x8BE0079C531659141344CD1FD0A4F28419497F9722A3DAAFE3B4186F6B6457E0 DUP3 DUP1 LOG3 STOP JUMPDEST CALLVALUE PUSH2 0x63F JUMPI PUSH1 0x20 CALLDATASIZE PUSH1 0x3 NOT ADD SLT PUSH2 0x63F JUMPI PUSH1 0x1 PUSH1 0x1 PUSH1 0xA0 SHL SUB PUSH2 0x1C4B PUSH2 0x2C14 JUMP JUMPDEST AND PUSH1 0x0 MSTORE PUSH1 0x3 PUSH1 0x20 MSTORE PUSH2 0x1CEB PUSH1 0x40 PUSH1 0x0 KECCAK256 PUSH2 0x6B4 PUSH1 0x40 MLOAD PUSH2 0x1C6B DUP2 PUSH2 0x2C98 JUMP JUMPDEST PUSH2 0x1C74 DUP4 PUSH2 0x2DCF JUMP JUMPDEST DUP2 MSTORE PUSH1 0x1 DUP4 ADD SLOAD SWAP3 PUSH1 0x20 DUP3 ADD SWAP4 PUSH1 0xFF DUP2 AND ISZERO ISZERO DUP6 MSTORE PUSH1 0x40 DUP4 ADD SWAP3 PUSH1 0xFF DUP3 PUSH1 0x8 SHR AND ISZERO ISZERO DUP5 MSTORE PUSH1 0xFF PUSH1 0x60 DUP3 ADD SWAP3 PUSH1 0x10 SHR AND ISZERO ISZERO DUP3 MSTORE PUSH1 0xFF PUSH1 0x3 PUSH2 0x1CB8 PUSH1 0x2 DUP7 ADD PUSH2 0x325D JUMP JUMPDEST SWAP5 DUP6 PUSH1 0x80 DUP6 ADD MSTORE ADD SLOAD AND ISZERO ISZERO PUSH1 0xA0 DUP3 ADD MSTORE MLOAD SWAP5 MLOAD ISZERO ISZERO SWAP3 MLOAD ISZERO ISZERO SWAP1 MLOAD ISZERO ISZERO SWAP1 PUSH1 0x40 MLOAD SWAP7 DUP8 SWAP7 PUSH1 0xA0 DUP9 MSTORE PUSH1 0xA0 DUP9 ADD SWAP1 PUSH2 0x2E75 JUMP JUMPDEST SWAP4 PUSH1 0x20 DUP8 ADD MSTORE PUSH1 0x40 DUP7 ADD MSTORE PUSH1 0x60 DUP6 ADD MSTORE DUP4 DUP3 SUB PUSH1 0x80 DUP6 ADD MSTORE PUSH2 0x2D61 JUMP JUMPDEST CALLVALUE PUSH2 0x63F JUMPI PUSH1 0x20 DUP1 PUSH1 0x3 NOT CALLDATASIZE ADD SLT PUSH2 0x63F JUMPI PUSH1 0x4 CALLDATALOAD SWAP1 PUSH2 0x1D26 PUSH2 0x2F0F JUMP JUMPDEST DUP2 PUSH1 0x0 MSTORE PUSH1 0x5 DUP2 MSTORE PUSH2 0x1D42 PUSH1 0xFF PUSH1 0xE PUSH1 0x40 PUSH1 0x0 KECCAK256 ADD SLOAD AND PUSH2 0x3139 JUMP JUMPDEST DUP2 PUSH1 0x0 MSTORE PUSH1 0x5 DUP2 MSTORE PUSH2 0x1D67 PUSH1 0x3 PUSH1 0x40 PUSH1 0x0 KECCAK256 ADD SLOAD PUSH1 0xFF DUP2 AND ISZERO SWAP1 DUP2 PUSH2 0x1E6F JUMPI POP PUSH2 0x3185 JUMP JUMPDEST DUP2 PUSH1 0x0 MSTORE PUSH1 0x5 DUP2 MSTORE PUSH1 0x4 PUSH1 0x40 PUSH1 0x0 KECCAK256 ADD SLOAD ISZERO PUSH2 0x1E2B JUMPI DUP2 PUSH1 0x0 MSTORE PUSH1 0x5 DUP2 MSTORE PUSH1 0x9 PUSH1 0x40 PUSH1 0x0 KECCAK256 ADD SLOAD TIMESTAMP LT PUSH2 0x1DDD JUMPI PUSH1 0x5 SWAP1 DUP3 PUSH1 0x0 MSTORE MSTORE PUSH1 0x40 PUSH1 0x0 KECCAK256 PUSH1 0x3 DUP2 ADD PUSH1 0x1 PUSH1 0xFF NOT DUP3 SLOAD AND OR SWAP1 SSTORE PUSH1 0x7 TIMESTAMP SWAP2 ADD SSTORE PUSH32 0x159EEE87222A0489C529F2153C26AD65D718F2CC33EBAA8D399D1DD5B39FACAA PUSH1 0x0 DUP1 LOG2 STOP JUMPDEST PUSH1 0x84 SWAP1 PUSH1 0x40 MLOAD SWAP1 PUSH3 0x461BCD PUSH1 0xE5 SHL DUP3 MSTORE PUSH1 0x4 DUP3 ADD MSTORE PUSH1 0x21 PUSH1 0x24 DUP3 ADD MSTORE PUSH32 0x566F74696E6720706572696F6420686173206E6F742073746172746564207965 PUSH1 0x44 DUP3 ADD MSTORE PUSH1 0x1D PUSH1 0xFA SHL PUSH1 0x64 DUP3 ADD MSTORE REVERT JUMPDEST PUSH1 0x64 SWAP1 PUSH1 0x40 MLOAD SWAP1 PUSH3 0x461BCD PUSH1 0xE5 SHL DUP3 MSTORE PUSH1 0x4 DUP3 ADD MSTORE PUSH1 0x19 PUSH1 0x24 DUP3 ADD MSTORE PUSH32 0x4E6F2063616E6469646174657320696E20656C656374696F6E00000000000000 PUSH1 0x44 DUP3 ADD MSTORE REVERT JUMPDEST PUSH1 0xFF SWAP2 POP PUSH1 0x8 SHR AND ISZERO DUP5 PUSH2 0x1A59 JUMP JUMPDEST CALLVALUE PUSH2 0x63F JUMPI PUSH1 0x20 CALLDATASIZE PUSH1 0x3 NOT ADD SLT PUSH2 0x63F JUMPI PUSH1 0x4 CALLDATALOAD PUSH2 0x1E9A PUSH2 0x2F0F JUMP JUMPDEST DUP1 PUSH1 0x0 MSTORE PUSH1 0x4 PUSH1 0x20 MSTORE PUSH2 0x1EBA PUSH1 0xFF PUSH1 0x6 PUSH1 0x40 PUSH1 0x0 KECCAK256 ADD SLOAD PUSH1 0x8 SHR AND PUSH2 0x2FCD JUMP JUMPDEST DUP1 PUSH1 0x0 MSTORE PUSH1 0x4 PUSH1 0x20 MSTORE PUSH1 0xFF PUSH1 0x6 PUSH1 0x40 PUSH1 0x0 KECCAK256 ADD SLOAD AND PUSH2 0x1FB8 JUMPI DUP1 PUSH1 0x0 MSTORE PUSH1 0x4 PUSH1 0x20 MSTORE DUP1 PUSH1 0x6 PUSH1 0x40 PUSH1 0x0 KECCAK256 ADD PUSH1 0x1 SWAP1 DUP2 PUSH1 0xFF NOT DUP3 SLOAD AND OR SWAP1 SSTORE DUP1 PUSH1 0x0 SWAP1 JUMPDEST PUSH2 0x1F24 JUMPI JUMPDEST DUP3 PUSH32 0x24776D729722C25AF4030ABA0AA454B1BF0CE96BFDB29E2998C1A0BC3DED47D5 PUSH1 0x0 DUP1 LOG2 STOP JUMPDEST PUSH1 0x7 DUP1 SLOAD DUP1 DUP4 LT ISZERO PUSH2 0x1FB1 JUMPI PUSH2 0x1F39 DUP4 PUSH2 0x2C2A JUMP JUMPDEST SWAP6 SWAP1 SLOAD PUSH1 0x3 SWAP7 DUP8 SHL SHR EQ PUSH2 0x1F5D JUMPI POP POP PUSH2 0x1F54 SWAP2 SWAP3 POP PUSH2 0x2F95 JUMP JUMPDEST SWAP1 DUP3 SWAP2 DUP2 PUSH2 0x1EF7 JUMP JUMPDEST SWAP1 SWAP3 POP PUSH1 0x0 NOT SWAP2 DUP3 DUP3 ADD SWAP2 DUP3 GT PUSH2 0x11F8 JUMPI PUSH2 0xA1E PUSH2 0x1F7D PUSH2 0x1F89 SWAP4 PUSH2 0x2C2A JUMP JUMPDEST SWAP1 SLOAD SWAP1 DUP8 SHL SHR SWAP2 PUSH2 0x2C2A JUMP JUMPDEST DUP2 SLOAD DUP1 ISZERO PUSH2 0x11E2 JUMPI DUP2 ADD SWAP3 PUSH2 0x1F9D DUP5 PUSH2 0x2C2A JUMP JUMPDEST DUP2 SWAP4 SWAP2 SLOAD SWAP3 SHL SHL NOT AND SWAP1 SSTORE SSTORE DUP1 DUP3 DUP1 PUSH2 0x1EFC JUMP JUMPDEST POP POP PUSH2 0x1EFC JUMP JUMPDEST PUSH1 0x40 MLOAD PUSH3 0x461BCD PUSH1 0xE5 SHL DUP2 MSTORE PUSH1 0x20 PUSH1 0x4 DUP3 ADD MSTORE PUSH1 0x1A PUSH1 0x24 DUP3 ADD MSTORE PUSH32 0x43616E64696461746520616C726561647920617070726F766564000000000000 PUSH1 0x44 DUP3 ADD MSTORE PUSH1 0x64 SWAP1 REVERT JUMPDEST CALLVALUE PUSH2 0x63F JUMPI PUSH1 0x20 CALLDATASIZE PUSH1 0x3 NOT ADD SLT PUSH2 0x63F JUMPI PUSH1 0x4 CALLDATALOAD PUSH1 0x0 MSTORE PUSH1 0x5 PUSH1 0x20 MSTORE PUSH1 0x40 PUSH1 0x0 KECCAK256 SWAP1 DUP2 SLOAD SWAP1 PUSH1 0x1 DUP4 ADD PUSH2 0x202F SWAP1 PUSH2 0x2DCF JUMP JUMPDEST SWAP3 PUSH2 0x203C PUSH1 0x2 DUP3 ADD PUSH2 0x2DCF JUMP JUMPDEST SWAP1 PUSH1 0x3 DUP2 ADD SLOAD SWAP3 PUSH1 0x7 DUP3 ADD SLOAD SWAP1 PUSH1 0x8 DUP4 ADD SLOAD SWAP1 PUSH1 0x9 DUP5 ADD SLOAD PUSH1 0xA DUP6 ADD SLOAD SWAP2 PUSH1 0xB DUP7 ADD SLOAD SWAP4 PUSH1 0xC DUP8 ADD SLOAD SWAP6 PUSH1 0xD DUP9 ADD SLOAD SWAP8 PUSH1 0xE ADD SLOAD PUSH1 0xFF AND SWAP9 PUSH1 0x40 MLOAD SWAP13 DUP14 SWAP13 DUP14 MSTORE DUP13 PUSH2 0x1C0 PUSH1 0x20 DUP2 SWAP3 ADD MSTORE DUP14 ADD PUSH2 0x2091 SWAP2 PUSH2 0x2E75 JUMP JUMPDEST DUP13 DUP2 SUB PUSH1 0x40 DUP15 ADD MSTORE PUSH2 0x20A2 SWAP2 PUSH2 0x2E75 JUMP JUMPDEST SWAP10 PUSH1 0xFF DUP2 AND ISZERO ISZERO PUSH1 0x60 DUP14 ADD MSTORE PUSH1 0x8 SHR PUSH1 0xFF AND ISZERO ISZERO PUSH1 0x80 DUP13 ADD MSTORE PUSH1 0xA0 DUP12 ADD MSTORE PUSH1 0xC0 DUP11 ADD MSTORE DUP9 ADD MSTORE PUSH2 0x100 DUP8 ADD MSTORE PUSH2 0x120 DUP7 ADD MSTORE PUSH1 0xFF DUP2 AND ISZERO ISZERO PUSH2 0x140 DUP7 ADD MSTORE PUSH1 0x8 SHR PUSH1 0xFF AND ISZERO ISZERO PUSH2 0x160 DUP6 ADD MSTORE PUSH2 0x180 DUP5 ADD MSTORE ISZERO ISZERO PUSH2 0x1A0 DUP4 ADD MSTORE SUB SWAP1 RETURN JUMPDEST CALLVALUE PUSH2 0x63F JUMPI PUSH1 0x0 CALLDATASIZE PUSH1 0x3 NOT ADD SLT PUSH2 0x63F JUMPI PUSH1 0x20 PUSH1 0xFF PUSH1 0x2 SLOAD AND PUSH1 0x40 MLOAD SWAP1 ISZERO ISZERO DUP2 MSTORE RETURN JUMPDEST CALLVALUE PUSH2 0x63F JUMPI PUSH1 0x0 CALLDATASIZE PUSH1 0x3 NOT ADD SLT PUSH2 0x63F JUMPI PUSH2 0x213C PUSH2 0x2F0F JUMP JUMPDEST PUSH1 0x2 SLOAD PUSH1 0xFF DUP2 AND ISZERO PUSH2 0x217B JUMPI PUSH1 0xFF NOT AND PUSH1 0x2 SSTORE PUSH32 0x5DB9EE0A495BF2E6FF9C91A7834C1BA4FDD244A5E8AA4E537BD38AEAE4B073AA PUSH1 0x20 PUSH1 0x40 MLOAD CALLER DUP2 MSTORE LOG1 STOP JUMPDEST PUSH1 0x40 MLOAD PUSH3 0x461BCD PUSH1 0xE5 SHL DUP2 MSTORE PUSH1 0x20 PUSH1 0x4 DUP3 ADD MSTORE PUSH1 0x14 PUSH1 0x24 DUP3 ADD MSTORE PUSH20 0x14185D5CD8589B194E881B9BDD081C185D5CD959 PUSH1 0x62 SHL PUSH1 0x44 DUP3 ADD MSTORE PUSH1 0x64 SWAP1 REVERT JUMPDEST CALLVALUE PUSH2 0x63F JUMPI PUSH1 0x20 CALLDATASIZE PUSH1 0x3 NOT ADD SLT PUSH2 0x63F JUMPI PUSH1 0x4 CALLDATALOAD DUP1 PUSH1 0x0 MSTORE PUSH1 0x4 PUSH1 0x20 MSTORE PUSH2 0x21EB PUSH1 0xFF PUSH1 0x6 PUSH1 0x40 PUSH1 0x0 KECCAK256 ADD SLOAD PUSH1 0x8 SHR AND PUSH2 0x2FCD JUMP JUMPDEST PUSH1 0x0 MSTORE PUSH1 0x4 PUSH1 0x20 MSTORE PUSH1 0x40 PUSH1 0x0 KECCAK256 PUSH1 0x40 MLOAD PUSH2 0x2204 DUP2 PUSH2 0x2CB3 JUMP JUMPDEST DUP2 SLOAD DUP2 MSTORE PUSH1 0x1 DUP3 ADD SLOAD PUSH1 0x1 PUSH1 0x1 PUSH1 0xA0 SHL SUB SWAP1 DUP2 AND PUSH1 0x20 DUP4 ADD SWAP1 DUP2 MSTORE SWAP3 SWAP1 SWAP2 SWAP1 PUSH2 0x22B5 PUSH2 0x2232 PUSH1 0x2 DUP4 ADD PUSH2 0x2DCF JUMP JUMPDEST SWAP6 PUSH1 0x40 DUP5 ADD SWAP7 DUP8 MSTORE PUSH2 0x22A7 PUSH2 0x2249 PUSH1 0x3 DUP6 ADD PUSH2 0x2DCF JUMP JUMPDEST SWAP2 DUP3 PUSH1 0x60 DUP8 ADD MSTORE PUSH1 0x4 DUP6 ADD SLOAD SWAP7 DUP8 PUSH1 0x80 DUP9 ADD MSTORE PUSH1 0x6 PUSH1 0x5 DUP8 ADD SLOAD SWAP7 DUP8 PUSH1 0xA0 DUP11 ADD MSTORE ADD SLOAD SWAP7 PUSH1 0xFF DUP1 DUP10 AND ISZERO ISZERO SWAP9 DUP10 PUSH1 0xC0 DUP5 ADD MSTORE PUSH1 0x8 SHR AND ISZERO ISZERO DUP4 DUP3 ADD MSTORE MLOAD SWAP9 MLOAD AND SWAP9 MLOAD SWAP1 PUSH1 0x40 MLOAD SWAP10 DUP11 SWAP10 DUP11 MSTORE PUSH1 0x20 DUP11 ADD MSTORE DUP1 PUSH1 0x40 DUP11 ADD MSTORE DUP9 ADD SWAP1 PUSH2 0x2E75 JUMP JUMPDEST SWAP1 DUP7 DUP3 SUB PUSH1 0x60 DUP9 ADD MSTORE PUSH2 0x2E75 JUMP JUMPDEST SWAP3 PUSH1 0x80 DUP6 ADD MSTORE PUSH1 0xA0 DUP5 ADD MSTORE PUSH1 0xC0 DUP4 ADD MSTORE SUB SWAP1 RETURN JUMPDEST CALLVALUE PUSH2 0x63F JUMPI PUSH1 0x20 CALLDATASIZE PUSH1 0x3 NOT ADD SLT PUSH2 0x63F JUMPI PUSH1 0x4 CALLDATALOAD PUSH1 0x0 MSTORE PUSH1 0x4 PUSH1 0x20 MSTORE PUSH1 0x40 PUSH1 0x0 KECCAK256 DUP1 SLOAD SWAP1 PUSH1 0x1 DUP1 PUSH1 0xA0 SHL SUB PUSH1 0x1 DUP3 ADD SLOAD AND SWAP3 PUSH1 0xFF PUSH2 0x2309 PUSH1 0x2 DUP5 ADD PUSH2 0x2DCF JUMP JUMPDEST PUSH2 0x2315 PUSH1 0x3 DUP6 ADD PUSH2 0x2DCF JUMP JUMPDEST SWAP4 PUSH2 0x2359 PUSH1 0x4 DUP3 ADD SLOAD SWAP6 PUSH2 0x234B PUSH1 0x6 PUSH1 0x5 DUP6 ADD SLOAD SWAP5 ADD SLOAD SWAP5 PUSH1 0x40 MLOAD SWAP11 DUP12 SWAP11 DUP12 MSTORE PUSH1 0x20 DUP12 ADD MSTORE PUSH2 0x100 DUP1 PUSH1 0x40 DUP13 ADD MSTORE DUP11 ADD SWAP1 PUSH2 0x2E75 JUMP JUMPDEST SWAP1 DUP9 DUP3 SUB PUSH1 0x60 DUP11 ADD MSTORE PUSH2 0x2E75 JUMP JUMPDEST SWAP5 PUSH1 0x80 DUP8 ADD MSTORE PUSH1 0xA0 DUP7 ADD MSTORE DUP2 DUP2 AND ISZERO ISZERO PUSH1 0xC0 DUP7 ADD MSTORE PUSH1 0x8 SHR AND ISZERO ISZERO SWAP1 DUP4 ADD MSTORE SUB SWAP1 RETURN JUMPDEST CALLVALUE PUSH2 0x63F JUMPI PUSH1 0x0 CALLDATASIZE PUSH1 0x3 NOT ADD SLT PUSH2 0x63F JUMPI PUSH1 0x40 MLOAD DUP1 PUSH1 0x9 SLOAD DUP1 DUP3 MSTORE DUP3 PUSH1 0x20 DUP1 SWAP4 ADD PUSH1 0x9 PUSH1 0x0 MSTORE PUSH32 0x6E1540171B6C0C960B71A7020D9F60077F6AF931A8BBF590DA0223DACF75C7AF SWAP3 PUSH1 0x0 JUMPDEST DUP6 DUP3 DUP3 LT PUSH2 0x23DE JUMPI POP POP POP PUSH2 0x1845 SWAP3 POP SUB DUP4 PUSH2 0x2CEA JUMP JUMPDEST DUP6 SLOAD DUP5 MSTORE PUSH1 0x1 SWAP6 DUP7 ADD SWAP6 DUP9 SWAP6 POP SWAP4 ADD SWAP3 ADD PUSH2 0x23C7 JUMP JUMPDEST CALLVALUE PUSH2 0x63F JUMPI PUSH1 0x20 CALLDATASIZE PUSH1 0x3 NOT ADD SLT PUSH2 0x63F JUMPI PUSH1 0x4 CALLDATALOAD PUSH2 0x2410 PUSH2 0x2F0F JUMP JUMPDEST DUP1 PUSH1 0x0 MSTORE PUSH1 0x5 PUSH1 0x20 MSTORE PUSH2 0x242D PUSH1 0xFF PUSH1 0xE PUSH1 0x40 PUSH1 0x0 KECCAK256 ADD SLOAD AND PUSH2 0x3139 JUMP JUMPDEST DUP1 PUSH1 0x0 MSTORE PUSH1 0x5 PUSH1 0x20 MSTORE PUSH2 0x244A PUSH1 0xFF PUSH1 0x3 PUSH1 0x40 PUSH1 0x0 KECCAK256 ADD SLOAD AND PUSH2 0x31DB JUMP JUMPDEST DUP1 PUSH1 0x0 MSTORE PUSH1 0x5 PUSH1 0x20 MSTORE PUSH32 0xE9B0DFC8F12ABAC9DCF7CA6C9D3A8A0F8ADEF5C9A7F8BF9BD660CBE4F696DAF0 PUSH1 0x20 PUSH1 0xFF PUSH1 0xC PUSH1 0x40 PUSH1 0x0 KECCAK256 ADD PUSH2 0x24A4 DUP3 DUP3 SLOAD PUSH1 0x8 SHR AND ISZERO DUP3 SWAP1 PUSH2 0xFF00 DUP3 SLOAD SWAP2 ISZERO ISZERO PUSH1 0x8 SHL AND SWAP1 PUSH2 0xFF00 NOT AND OR SWAP1 SSTORE JUMP JUMPDEST SLOAD PUSH1 0x8 SHR AND PUSH1 0x40 MLOAD SWAP1 ISZERO ISZERO DUP2 MSTORE LOG2 STOP JUMPDEST CALLVALUE PUSH2 0x63F JUMPI PUSH1 0x20 DUP1 PUSH1 0x3 NOT CALLDATASIZE ADD SLT PUSH2 0x63F JUMPI PUSH1 0x4 CALLDATALOAD SWAP1 CALLER PUSH1 0x0 MSTORE PUSH1 0x3 DUP2 MSTORE PUSH2 0x24E9 PUSH1 0xFF PUSH1 0x1 PUSH1 0x40 PUSH1 0x0 KECCAK256 ADD SLOAD PUSH1 0x10 SHR AND PUSH2 0x321D JUMP JUMPDEST DUP2 PUSH1 0x0 MSTORE PUSH1 0x5 DUP1 DUP3 MSTORE PUSH2 0x2506 PUSH1 0xFF PUSH1 0xE PUSH1 0x40 PUSH1 0x0 KECCAK256 ADD SLOAD AND PUSH2 0x3139 JUMP JUMPDEST DUP3 PUSH1 0x0 MSTORE DUP1 DUP3 MSTORE PUSH1 0xFF PUSH1 0x3 PUSH1 0x40 PUSH1 0x0 KECCAK256 ADD SLOAD PUSH1 0x8 SHR AND PUSH2 0x25DB JUMPI DUP3 PUSH1 0x0 MSTORE DUP1 DUP3 MSTORE DUP1 PUSH1 0x40 PUSH1 0x0 KECCAK256 ADD CALLER PUSH1 0x0 MSTORE DUP3 MSTORE PUSH1 0xFF PUSH1 0x40 PUSH1 0x0 KECCAK256 SLOAD AND PUSH2 0x25A3 JUMPI SWAP1 PUSH1 0x3 SWAP2 DUP4 PUSH1 0x0 MSTORE DUP1 DUP3 MSTORE PUSH1 0x40 PUSH1 0x0 KECCAK256 ADD CALLER PUSH1 0x0 MSTORE DUP2 MSTORE PUSH1 0x40 PUSH1 0x0 KECCAK256 PUSH1 0x1 PUSH1 0xFF NOT DUP3 SLOAD AND OR SWAP1 SSTORE MSTORE PUSH2 0x257A DUP2 PUSH1 0x2 PUSH1 0x40 PUSH1 0x0 KECCAK256 ADD PUSH2 0x2FA4 JUMP JUMPDEST CALLER SWAP1 PUSH32 0x38DCBD2EB182B340B867C36ED9ED4DD8F7D99DA76FCFB282C4BF5CA7F5C75B1D PUSH1 0x0 DUP1 LOG3 STOP JUMPDEST PUSH1 0x40 MLOAD PUSH3 0x461BCD PUSH1 0xE5 SHL DUP2 MSTORE PUSH1 0x4 DUP2 ADD DUP4 SWAP1 MSTORE PUSH1 0x10 PUSH1 0x24 DUP3 ADD MSTORE PUSH16 0x105B1C9958591E48195B9C9BDB1B1959 PUSH1 0x82 SHL PUSH1 0x44 DUP3 ADD MSTORE PUSH1 0x64 SWAP1 REVERT JUMPDEST PUSH1 0x40 MLOAD PUSH3 0x461BCD PUSH1 0xE5 SHL DUP2 MSTORE PUSH1 0x4 DUP2 ADD DUP4 SWAP1 MSTORE PUSH1 0x12 PUSH1 0x24 DUP3 ADD MSTORE PUSH18 0x115B1958DD1A5BDB881A185CC8195B991959 PUSH1 0x72 SHL PUSH1 0x44 DUP3 ADD MSTORE PUSH1 0x64 SWAP1 REVERT JUMPDEST CALLVALUE PUSH2 0x63F JUMPI PUSH1 0x20 CALLDATASIZE PUSH1 0x3 NOT ADD SLT PUSH2 0x63F JUMPI PUSH1 0x4 CALLDATALOAD PUSH1 0x1 PUSH1 0x1 PUSH1 0x40 SHL SUB DUP2 GT PUSH2 0x63F JUMPI PUSH2 0x2645 SWAP1 CALLDATASIZE SWAP1 PUSH1 0x4 ADD PUSH2 0x2D0B JUMP JUMPDEST CALLER PUSH1 0x0 MSTORE PUSH1 0x3 PUSH1 0x20 MSTORE PUSH1 0xFF PUSH1 0x3 PUSH1 0x40 PUSH1 0x0 KECCAK256 ADD SLOAD AND PUSH2 0x29B2 JUMPI DUP1 MLOAD ISZERO PUSH2 0x2976 JUMPI PUSH1 0x40 MLOAD PUSH2 0x2671 DUP2 PUSH2 0x2CCF JUMP JUMPDEST PUSH1 0x0 DUP2 MSTORE PUSH1 0x40 MLOAD SWAP1 PUSH2 0x2682 DUP3 PUSH2 0x2C98 JUMP JUMPDEST DUP3 DUP3 MSTORE PUSH1 0x20 DUP3 ADD PUSH1 0x0 DUP2 MSTORE PUSH1 0x40 DUP4 ADD SWAP2 PUSH1 0x0 DUP4 MSTORE PUSH1 0x60 DUP5 ADD SWAP1 PUSH1 0x0 DUP3 MSTORE PUSH1 0x80 DUP6 ADD MSTORE PUSH1 0x1 PUSH1 0xA0 DUP6 ADD MSTORE CALLER PUSH1 0x0 MSTORE PUSH1 0x3 PUSH1 0x20 MSTORE PUSH1 0x40 PUSH1 0x0 KECCAK256 SWAP3 DUP5 MLOAD DUP1 MLOAD SWAP1 PUSH1 0x1 PUSH1 0x1 PUSH1 0x40 SHL SUB DUP3 GT PUSH2 0x42A JUMPI PUSH2 0x26D7 DUP7 SLOAD PUSH2 0x2D95 JUMP JUMPDEST PUSH1 0x1F DUP2 GT PUSH2 0x2944 JUMPI JUMPDEST POP PUSH1 0x20 SWAP1 PUSH1 0x1F DUP4 GT PUSH1 0x1 EQ PUSH2 0x28D6 JUMPI PUSH2 0x2747 SWAP4 SWAP3 SWAP2 PUSH1 0x0 SWAP2 DUP4 PUSH2 0x28CB JUMPI JUMPDEST POP POP DUP2 PUSH1 0x1 SHL SWAP2 PUSH1 0x0 NOT SWAP1 PUSH1 0x3 SHL SHR NOT AND OR DUP6 SSTORE JUMPDEST PUSH2 0x2730 PUSH1 0x1 DUP7 ADD SWAP5 MLOAD ISZERO ISZERO DUP6 SWAP1 PUSH1 0xFF DUP1 NOT DUP4 SLOAD AND SWAP2 ISZERO ISZERO AND OR SWAP1 SSTORE JUMP JUMPDEST MLOAD DUP4 SLOAD PUSH2 0xFF00 NOT AND SWAP1 ISZERO ISZERO PUSH1 0x8 SHL PUSH2 0xFF00 AND OR DUP4 SSTORE JUMP JUMPDEST MLOAD DUP2 SLOAD PUSH3 0xFF0000 NOT AND SWAP1 ISZERO ISZERO PUSH1 0x10 SHL PUSH3 0xFF0000 AND OR SWAP1 SSTORE PUSH1 0x80 DUP3 ADD MLOAD DUP1 MLOAD SWAP1 SWAP3 SWAP1 PUSH1 0x2 DUP4 ADD PUSH1 0x1 PUSH1 0x1 PUSH1 0x40 SHL SUB DUP3 GT PUSH2 0x42A JUMPI PUSH1 0x1 PUSH1 0x40 SHL SWAP5 DUP6 DUP4 GT PUSH2 0x42A JUMPI PUSH1 0x20 SWAP1 DUP3 SLOAD DUP5 DUP5 SSTORE DUP1 DUP6 LT PUSH2 0x28AE JUMPI JUMPDEST POP ADD SWAP1 PUSH1 0x0 MSTORE PUSH1 0x20 PUSH1 0x0 KECCAK256 PUSH1 0x0 JUMPDEST DUP4 DUP2 LT PUSH2 0x289A JUMPI DUP8 DUP8 PUSH2 0x27CE DUP9 PUSH1 0x3 PUSH1 0xA0 DUP11 ADD MLOAD ISZERO ISZERO SWAP2 ADD SWAP1 PUSH1 0xFF DUP1 NOT DUP4 SLOAD AND SWAP2 ISZERO ISZERO AND OR SWAP1 SSTORE JUMP JUMPDEST PUSH1 0x6 SLOAD DUP2 DUP2 LT ISZERO PUSH2 0x42A JUMPI PUSH2 0x27EC DUP2 PUSH1 0x1 PUSH2 0x280A SWAP4 ADD PUSH1 0x6 SSTORE PUSH2 0x2C61 JUMP JUMPDEST DUP2 SLOAD PUSH1 0x1 PUSH1 0x1 PUSH1 0xA0 SHL SUB PUSH1 0x3 SWAP3 SWAP1 SWAP3 SHL SWAP2 DUP3 SHL NOT AND CALLER SWAP1 SWAP2 SHL OR SWAP1 SSTORE JUMP JUMPDEST PUSH1 0x8 SLOAD SWAP1 DUP2 LT ISZERO PUSH2 0x42A JUMPI PUSH1 0x1 DUP2 ADD DUP1 PUSH1 0x8 SSTORE DUP2 LT ISZERO PUSH2 0x414 JUMPI PUSH1 0x8 PUSH1 0x0 MSTORE PUSH32 0xF3F7A9FE364FAAB93B216DA50A3214154F22A0A2B415B23A84C8169E8B636EE3 ADD CALLER PUSH1 0x1 PUSH1 0x1 PUSH1 0x60 SHL SUB PUSH1 0xA0 SHL DUP3 SLOAD AND OR SWAP1 SSTORE PUSH32 0xE4E252AB55ECD86D160954E9237B0D7BF0EFD0068B29C423B595C5177D0A5DC4 PUSH1 0x40 MLOAD PUSH1 0x20 DUP2 MSTORE DUP1 PUSH2 0x2895 CALLER SWAP5 PUSH1 0x20 DUP4 ADD SWAP1 PUSH2 0x2E75 JUMP JUMPDEST SUB SWAP1 LOG2 STOP JUMPDEST PUSH1 0x1 SWAP1 PUSH1 0x20 DUP5 MLOAD SWAP5 ADD SWAP4 DUP2 DUP5 ADD SSTORE ADD PUSH2 0x27A5 JUMP JUMPDEST PUSH2 0x28C5 SWAP1 DUP5 PUSH1 0x0 MSTORE DUP6 DUP5 PUSH1 0x0 KECCAK256 SWAP2 DUP3 ADD SWAP2 ADD PUSH2 0x2F7E JUMP JUMPDEST DUP9 PUSH2 0x2797 JUMP JUMPDEST ADD MLOAD SWAP1 POP DUP10 DUP1 PUSH2 0x26FE JUMP JUMPDEST SWAP1 DUP7 PUSH1 0x0 MSTORE PUSH1 0x20 PUSH1 0x0 KECCAK256 SWAP2 PUSH1 0x0 JUMPDEST PUSH1 0x1F NOT DUP6 AND DUP2 LT PUSH2 0x292C JUMPI POP SWAP2 DUP4 SWAP2 PUSH1 0x1 SWAP4 PUSH2 0x2747 SWAP7 SWAP6 PUSH1 0x1F NOT DUP2 AND LT PUSH2 0x2913 JUMPI JUMPDEST POP POP POP DUP2 SHL ADD DUP6 SSTORE PUSH2 0x2713 JUMP JUMPDEST ADD MLOAD PUSH1 0x0 NOT PUSH1 0xF8 DUP5 PUSH1 0x3 SHL AND SHR NOT AND SWAP1 SSTORE DUP10 DUP1 DUP1 PUSH2 0x2906 JUMP JUMPDEST SWAP2 SWAP3 PUSH1 0x20 PUSH1 0x1 DUP2 SWAP3 DUP7 DUP6 ADD MLOAD DUP2 SSTORE ADD SWAP5 ADD SWAP3 ADD PUSH2 0x28E4 JUMP JUMPDEST PUSH2 0x2970 SWAP1 DUP8 PUSH1 0x0 MSTORE PUSH1 0x20 PUSH1 0x0 KECCAK256 PUSH1 0x1F DUP6 ADD PUSH1 0x5 SHR DUP2 ADD SWAP2 PUSH1 0x20 DUP7 LT PUSH2 0x506 JUMPI PUSH1 0x1F ADD PUSH1 0x5 SHR ADD SWAP1 PUSH2 0x2F7E JUMP JUMPDEST DUP9 PUSH2 0x26E0 JUMP JUMPDEST PUSH1 0x40 MLOAD PUSH3 0x461BCD PUSH1 0xE5 SHL DUP2 MSTORE PUSH1 0x20 PUSH1 0x4 DUP3 ADD MSTORE PUSH1 0x14 PUSH1 0x24 DUP3 ADD MSTORE PUSH20 0x4E616D652063616E6E6F7420626520656D707479 PUSH1 0x60 SHL PUSH1 0x44 DUP3 ADD MSTORE PUSH1 0x64 SWAP1 REVERT JUMPDEST PUSH1 0x40 MLOAD PUSH3 0x461BCD PUSH1 0xE5 SHL DUP2 MSTORE PUSH1 0x20 PUSH1 0x4 DUP3 ADD MSTORE PUSH1 0x17 PUSH1 0x24 DUP3 ADD MSTORE PUSH32 0x5573657220616C72656164792072656769737465726564000000000000000000 PUSH1 0x44 DUP3 ADD MSTORE PUSH1 0x64 SWAP1 REVERT JUMPDEST CALLVALUE PUSH2 0x63F JUMPI PUSH1 0x20 CALLDATASIZE PUSH1 0x3 NOT ADD SLT PUSH2 0x63F JUMPI PUSH1 0x4 CALLDATALOAD PUSH1 0x8 SLOAD DUP2 LT ISZERO PUSH2 0x63F JUMPI PUSH1 0x8 PUSH1 0x0 MSTORE PUSH32 0xF3F7A9FE364FAAB93B216DA50A3214154F22A0A2B415B23A84C8169E8B636EE3 ADD SLOAD PUSH1 0x40 MLOAD PUSH1 0x1 PUSH1 0x1 PUSH1 0xA0 SHL SUB SWAP1 SWAP2 AND DUP2 MSTORE PUSH1 0x20 SWAP1 RETURN JUMPDEST CALLVALUE PUSH2 0x63F JUMPI PUSH1 0x20 CALLDATASIZE PUSH1 0x3 NOT ADD SLT PUSH2 0x63F JUMPI PUSH1 0x4 CALLDATALOAD PUSH1 0x9 SLOAD DUP2 LT ISZERO PUSH2 0x63F JUMPI PUSH1 0x20 SWAP1 PUSH1 0x9 PUSH1 0x0 MSTORE PUSH32 0x6E1540171B6C0C960B71A7020D9F60077F6AF931A8BBF590DA0223DACF75C7AF ADD SLOAD PUSH1 0x40 MLOAD SWAP1 DUP2 MSTORE RETURN JUMPDEST CALLVALUE PUSH2 0x63F JUMPI PUSH1 0x80 CALLDATASIZE PUSH1 0x3 NOT ADD SLT PUSH2 0x63F JUMPI PUSH1 0x4 CALLDATALOAD PUSH32 0x739EBD6B0791F74B4760666C62EBA700312C8BC1D9AA1AC74CAF71C1EEBAE076 PUSH1 0x60 PUSH1 0x24 CALLDATALOAD PUSH1 0x64 CALLDATALOAD PUSH1 0x44 CALLDATALOAD PUSH2 0x2AEB PUSH2 0x2F0F JUMP JUMPDEST DUP6 PUSH1 0x0 MSTORE PUSH1 0x5 PUSH1 0x20 MSTORE PUSH2 0x2B08 PUSH1 0xFF PUSH1 0xE PUSH1 0x40 PUSH1 0x0 KECCAK256 ADD SLOAD AND PUSH2 0x3139 JUMP JUMPDEST DUP6 PUSH1 0x0 MSTORE PUSH1 0x5 PUSH1 0x20 MSTORE PUSH2 0x2B2E PUSH1 0x3 PUSH1 0x40 PUSH1 0x0 KECCAK256 ADD SLOAD PUSH1 0xFF DUP2 AND ISZERO SWAP1 DUP2 PUSH2 0x2B81 JUMPI POP PUSH2 0x3185 JUMP JUMPDEST PUSH2 0x2B39 TIMESTAMP DUP5 GT PUSH2 0x3019 JUMP JUMPDEST PUSH2 0x2B44 DUP4 DUP3 GT PUSH2 0x3075 JUMP JUMPDEST PUSH2 0x2B4F DUP2 DUP4 GT PUSH2 0x30D2 JUMP JUMPDEST DUP6 PUSH1 0x0 MSTORE PUSH1 0x5 PUSH1 0x20 MSTORE DUP2 PUSH1 0xB PUSH1 0x40 PUSH1 0x0 KECCAK256 DUP6 PUSH1 0x9 DUP3 ADD SSTORE DUP4 PUSH1 0xA DUP3 ADD SSTORE ADD SSTORE PUSH1 0x40 MLOAD SWAP3 DUP4 MSTORE PUSH1 0x20 DUP4 ADD MSTORE PUSH1 0x40 DUP3 ADD MSTORE LOG2 STOP JUMPDEST PUSH1 0xFF SWAP2 POP PUSH1 0x8 SHR AND ISZERO DUP9 PUSH2 0x1A59 JUMP JUMPDEST CALLVALUE PUSH2 0x63F JUMPI PUSH1 0x40 CALLDATASIZE PUSH1 0x3 NOT ADD SLT PUSH2 0x63F JUMPI PUSH1 0x4 CALLDATALOAD PUSH2 0x2BAC PUSH2 0x2BFE JUMP JUMPDEST SWAP1 DUP1 PUSH1 0x0 MSTORE PUSH1 0x5 PUSH1 0x20 MSTORE PUSH2 0x2BCA PUSH1 0xFF PUSH1 0xE PUSH1 0x40 PUSH1 0x0 KECCAK256 ADD SLOAD AND PUSH2 0x3139 JUMP JUMPDEST PUSH1 0x0 MSTORE PUSH1 0x5 PUSH1 0x20 MSTORE PUSH1 0x5 PUSH1 0x40 PUSH1 0x0 KECCAK256 ADD SWAP1 PUSH1 0x1 DUP1 PUSH1 0xA0 SHL SUB AND PUSH1 0x0 MSTORE PUSH1 0x20 MSTORE PUSH1 0x20 PUSH1 0xFF PUSH1 0x40 PUSH1 0x0 KECCAK256 SLOAD AND PUSH1 0x40 MLOAD SWAP1 ISZERO ISZERO DUP2 MSTORE RETURN JUMPDEST PUSH1 0x24 CALLDATALOAD SWAP1 PUSH1 0x1 PUSH1 0x1 PUSH1 0xA0 SHL SUB DUP3 AND DUP3 SUB PUSH2 0x63F JUMPI JUMP JUMPDEST PUSH1 0x4 CALLDATALOAD SWAP1 PUSH1 0x1 PUSH1 0x1 PUSH1 0xA0 SHL SUB DUP3 AND DUP3 SUB PUSH2 0x63F JUMPI JUMP JUMPDEST PUSH1 0x7 SLOAD DUP2 LT ISZERO PUSH2 0x414 JUMPI PUSH1 0x7 PUSH1 0x0 MSTORE PUSH32 0xA66CC928B5EDB82AF9BD49922954155AB7B0942694BEA4CE44661D9A8736C688 ADD SWAP1 PUSH1 0x0 SWAP1 JUMP JUMPDEST PUSH1 0x6 SLOAD DUP2 LT ISZERO PUSH2 0x414 JUMPI PUSH1 0x6 PUSH1 0x0 MSTORE PUSH32 0xF652222313E28459528D920B65115C16C04F3EFC82AAEDC97BE59F3F377C0D3F ADD SWAP1 PUSH1 0x0 SWAP1 JUMP JUMPDEST PUSH1 0xC0 DUP2 ADD SWAP1 DUP2 LT PUSH1 0x1 PUSH1 0x1 PUSH1 0x40 SHL SUB DUP3 GT OR PUSH2 0x42A JUMPI PUSH1 0x40 MSTORE JUMP JUMPDEST PUSH2 0x100 DUP2 ADD SWAP1 DUP2 LT PUSH1 0x1 PUSH1 0x1 PUSH1 0x40 SHL SUB DUP3 GT OR PUSH2 0x42A JUMPI PUSH1 0x40 MSTORE JUMP JUMPDEST PUSH1 0x20 DUP2 ADD SWAP1 DUP2 LT PUSH1 0x1 PUSH1 0x1 PUSH1 0x40 SHL SUB DUP3 GT OR PUSH2 0x42A JUMPI PUSH1 0x40 MSTORE JUMP JUMPDEST SWAP1 PUSH1 0x1F DUP1 NOT SWAP2 ADD AND DUP2 ADD SWAP1 DUP2 LT PUSH1 0x1 PUSH1 0x1 PUSH1 0x40 SHL SUB DUP3 GT OR PUSH2 0x42A JUMPI PUSH1 0x40 MSTORE JUMP JUMPDEST DUP2 PUSH1 0x1F DUP3 ADD SLT ISZERO PUSH2 0x63F JUMPI DUP1 CALLDATALOAD SWAP1 PUSH1 0x1 PUSH1 0x1 PUSH1 0x40 SHL SUB DUP3 GT PUSH2 0x42A JUMPI PUSH1 0x40 MLOAD SWAP3 PUSH2 0x2D3F PUSH1 0x1F DUP5 ADD PUSH1 0x1F NOT AND PUSH1 0x20 ADD DUP6 PUSH2 0x2CEA JUMP JUMPDEST DUP3 DUP5 MSTORE PUSH1 0x20 DUP4 DUP4 ADD ADD GT PUSH2 0x63F JUMPI DUP2 PUSH1 0x0 SWAP3 PUSH1 0x20 DUP1 SWAP4 ADD DUP4 DUP7 ADD CALLDATACOPY DUP4 ADD ADD MSTORE SWAP1 JUMP JUMPDEST SWAP1 DUP2 MLOAD DUP1 DUP3 MSTORE PUSH1 0x20 DUP1 DUP1 SWAP4 ADD SWAP4 ADD SWAP2 PUSH1 0x0 JUMPDEST DUP3 DUP2 LT PUSH2 0x2D81 JUMPI POP POP POP POP SWAP1 JUMP JUMPDEST DUP4 MLOAD DUP6 MSTORE SWAP4 DUP2 ADD SWAP4 SWAP3 DUP2 ADD SWAP3 PUSH1 0x1 ADD PUSH2 0x2D73 JUMP JUMPDEST SWAP1 PUSH1 0x1 DUP3 DUP2 SHR SWAP3 AND DUP1 ISZERO PUSH2 0x2DC5 JUMPI JUMPDEST PUSH1 0x20 DUP4 LT EQ PUSH2 0x2DAF JUMPI JUMP JUMPDEST PUSH4 0x4E487B71 PUSH1 0xE0 SHL PUSH1 0x0 MSTORE PUSH1 0x22 PUSH1 0x4 MSTORE PUSH1 0x24 PUSH1 0x0 REVERT JUMPDEST SWAP2 PUSH1 0x7F AND SWAP2 PUSH2 0x2DA4 JUMP JUMPDEST SWAP1 PUSH1 0x40 MLOAD SWAP2 DUP3 PUSH1 0x0 DUP3 SLOAD SWAP3 PUSH2 0x2DE3 DUP5 PUSH2 0x2D95 JUMP JUMPDEST SWAP1 DUP2 DUP5 MSTORE PUSH1 0x1 SWAP5 DUP6 DUP2 AND SWAP1 DUP2 PUSH1 0x0 EQ PUSH2 0x2E52 JUMPI POP PUSH1 0x1 EQ PUSH2 0x2E0F JUMPI JUMPDEST POP POP PUSH2 0x2E0D SWAP3 POP SUB DUP4 PUSH2 0x2CEA JUMP JUMPDEST JUMP JUMPDEST SWAP1 SWAP4 SWAP2 POP PUSH1 0x0 MSTORE PUSH1 0x20 SWAP1 DUP2 PUSH1 0x0 KECCAK256 SWAP4 PUSH1 0x0 SWAP2 JUMPDEST DUP2 DUP4 LT PUSH2 0x2E3A JUMPI POP POP PUSH2 0x2E0D SWAP4 POP DUP3 ADD ADD CODESIZE DUP1 PUSH2 0x2DFF JUMP JUMPDEST DUP6 SLOAD DUP9 DUP5 ADD DUP6 ADD MSTORE SWAP5 DUP6 ADD SWAP5 DUP8 SWAP5 POP SWAP2 DUP4 ADD SWAP2 PUSH2 0x2E22 JUMP JUMPDEST SWAP2 POP POP PUSH2 0x2E0D SWAP5 POP PUSH1 0x20 SWAP3 POP PUSH1 0xFF NOT AND DUP3 DUP5 ADD MSTORE ISZERO ISZERO PUSH1 0x5 SHL DUP3 ADD ADD CODESIZE DUP1 PUSH2 0x2DFF JUMP JUMPDEST SWAP2 SWAP1 DUP3 MLOAD SWAP3 DUP4 DUP3 MSTORE PUSH1 0x0 JUMPDEST DUP5 DUP2 LT PUSH2 0x2EA1 JUMPI POP POP DUP3 PUSH1 0x0 PUSH1 0x20 DUP1 SWAP5 SWAP6 DUP5 ADD ADD MSTORE PUSH1 0x1F DUP1 NOT SWAP2 ADD AND ADD ADD SWAP1 JUMP JUMPDEST PUSH1 0x20 DUP2 DUP4 ADD DUP2 ADD MLOAD DUP5 DUP4 ADD DUP3 ADD MSTORE ADD PUSH2 0x2E80 JUMP JUMPDEST PUSH1 0x40 SWAP1 PUSH1 0x3 NOT ADD SLT PUSH2 0x63F JUMPI PUSH1 0x4 CALLDATALOAD SWAP1 PUSH1 0x24 CALLDATALOAD SWAP1 JUMP JUMPDEST PUSH1 0x20 SWAP1 DUP2 PUSH1 0x40 DUP2 DUP4 ADD SWAP3 DUP3 DUP2 MSTORE DUP6 MLOAD DUP1 SWAP5 MSTORE ADD SWAP4 ADD SWAP2 PUSH1 0x0 JUMPDEST DUP3 DUP2 LT PUSH2 0x2EF2 JUMPI POP POP POP POP SWAP1 JUMP JUMPDEST DUP4 MLOAD PUSH1 0x1 PUSH1 0x1 PUSH1 0xA0 SHL SUB AND DUP6 MSTORE SWAP4 DUP2 ADD SWAP4 SWAP3 DUP2 ADD SWAP3 PUSH1 0x1 ADD PUSH2 0x2EE4 JUMP JUMPDEST PUSH1 0x0 SLOAD PUSH1 0x1 PUSH1 0x1 PUSH1 0xA0 SHL SUB AND CALLER SUB PUSH2 0x2F23 JUMPI JUMP JUMPDEST PUSH1 0x64 PUSH1 0x40 MLOAD PUSH3 0x461BCD PUSH1 0xE5 SHL DUP2 MSTORE PUSH1 0x20 PUSH1 0x4 DUP3 ADD MSTORE PUSH1 0x20 PUSH1 0x24 DUP3 ADD MSTORE PUSH32 0x4F776E61626C653A2063616C6C6572206973206E6F7420746865206F776E6572 PUSH1 0x44 DUP3 ADD MSTORE REVERT JUMPDEST PUSH1 0x1 PUSH1 0x1 PUSH1 0x40 SHL SUB DUP2 GT PUSH2 0x42A JUMPI PUSH1 0x5 SHL PUSH1 0x20 ADD SWAP1 JUMP JUMPDEST DUP2 DUP2 LT PUSH2 0x2F89 JUMPI POP POP JUMP JUMPDEST PUSH1 0x0 DUP2 SSTORE PUSH1 0x1 ADD PUSH2 0x2F7E JUMP JUMPDEST PUSH1 0x0 NOT DUP2 EQ PUSH2 0x11F8 JUMPI PUSH1 0x1 ADD SWAP1 JUMP JUMPDEST DUP1 SLOAD SWAP1 PUSH1 0x1 PUSH1 0x40 SHL DUP3 LT ISZERO PUSH2 0x42A JUMPI PUSH1 0x1 DUP3 ADD DUP1 DUP3 SSTORE DUP3 LT ISZERO PUSH2 0x414 JUMPI PUSH1 0x0 MSTORE PUSH1 0x20 PUSH1 0x0 KECCAK256 ADD SSTORE JUMP JUMPDEST ISZERO PUSH2 0x2FD4 JUMPI JUMP JUMPDEST PUSH1 0x40 MLOAD PUSH3 0x461BCD PUSH1 0xE5 SHL DUP2 MSTORE PUSH1 0x20 PUSH1 0x4 DUP3 ADD MSTORE PUSH1 0x18 PUSH1 0x24 DUP3 ADD MSTORE PUSH32 0x43616E64696461746520646F6573206E6F742065786973740000000000000000 PUSH1 0x44 DUP3 ADD MSTORE PUSH1 0x64 SWAP1 REVERT JUMPDEST ISZERO PUSH2 0x3020 JUMPI JUMP JUMPDEST PUSH1 0x40 MLOAD PUSH3 0x461BCD PUSH1 0xE5 SHL DUP2 MSTORE PUSH1 0x20 PUSH1 0x4 DUP3 ADD MSTORE PUSH1 0x27 PUSH1 0x24 DUP3 ADD MSTORE PUSH32 0x566F74696E672073746172742064617465206D75737420626520696E20746865 PUSH1 0x44 DUP3 ADD MSTORE PUSH7 0x20667574757265 PUSH1 0xC8 SHL PUSH1 0x64 DUP3 ADD MSTORE PUSH1 0x84 SWAP1 REVERT JUMPDEST ISZERO PUSH2 0x307C JUMPI JUMP JUMPDEST PUSH1 0x40 MLOAD PUSH3 0x461BCD PUSH1 0xE5 SHL DUP2 MSTORE PUSH1 0x20 PUSH1 0x4 DUP3 ADD MSTORE PUSH1 0x28 PUSH1 0x24 DUP3 ADD MSTORE PUSH32 0x566F74696E6720656E642064617465206D757374206265206166746572207374 PUSH1 0x44 DUP3 ADD MSTORE PUSH8 0x6172742064617465 PUSH1 0xC0 SHL PUSH1 0x64 DUP3 ADD MSTORE PUSH1 0x84 SWAP1 REVERT JUMPDEST ISZERO PUSH2 0x30D9 JUMPI JUMP JUMPDEST PUSH1 0x40 MLOAD PUSH3 0x461BCD PUSH1 0xE5 SHL DUP2 MSTORE PUSH1 0x20 PUSH1 0x4 DUP3 ADD MSTORE PUSH1 0x32 PUSH1 0x24 DUP3 ADD MSTORE PUSH32 0x526573756C7420616E6E6F756E63652064617465206D75737420626520616674 PUSH1 0x44 DUP3 ADD MSTORE PUSH18 0x657220766F74696E6720656E642064617465 PUSH1 0x70 SHL PUSH1 0x64 DUP3 ADD MSTORE PUSH1 0x84 SWAP1 REVERT JUMPDEST ISZERO PUSH2 0x3140 JUMPI JUMP JUMPDEST PUSH1 0x40 MLOAD PUSH3 0x461BCD PUSH1 0xE5 SHL DUP2 MSTORE PUSH1 0x20 PUSH1 0x4 DUP3 ADD MSTORE PUSH1 0x17 PUSH1 0x24 DUP3 ADD MSTORE PUSH32 0x456C656374696F6E20646F6573206E6F74206578697374000000000000000000 PUSH1 0x44 DUP3 ADD MSTORE PUSH1 0x64 SWAP1 REVERT JUMPDEST ISZERO PUSH2 0x318C JUMPI JUMP JUMPDEST PUSH1 0x40 MLOAD PUSH3 0x461BCD PUSH1 0xE5 SHL DUP2 MSTORE PUSH1 0x20 PUSH1 0x4 DUP3 ADD MSTORE PUSH1 0x21 PUSH1 0x24 DUP3 ADD MSTORE PUSH32 0x456C656374696F6E20616C72656164792073746172746564206F7220656E6465 PUSH1 0x44 DUP3 ADD MSTORE PUSH1 0x19 PUSH1 0xFA SHL PUSH1 0x64 DUP3 ADD MSTORE PUSH1 0x84 SWAP1 REVERT JUMPDEST ISZERO PUSH2 0x31E2 JUMPI JUMP JUMPDEST PUSH1 0x40 MLOAD PUSH3 0x461BCD PUSH1 0xE5 SHL DUP2 MSTORE PUSH1 0x20 PUSH1 0x4 DUP3 ADD MSTORE PUSH1 0x13 PUSH1 0x24 DUP3 ADD MSTORE PUSH19 0x456C656374696F6E206E6F7420616374697665 PUSH1 0x68 SHL PUSH1 0x44 DUP3 ADD MSTORE PUSH1 0x64 SWAP1 REVERT JUMPDEST ISZERO PUSH2 0x3224 JUMPI JUMP JUMPDEST PUSH1 0x40 MLOAD PUSH3 0x461BCD PUSH1 0xE5 SHL DUP2 MSTORE PUSH1 0x20 PUSH1 0x4 DUP3 ADD MSTORE PUSH1 0x11 PUSH1 0x24 DUP3 ADD MSTORE PUSH17 0x155CD95C881B9BDD08185C1C1C9BDD9959 PUSH1 0x7A SHL PUSH1 0x44 DUP3 ADD MSTORE PUSH1 0x64 SWAP1 REVERT JUMPDEST SWAP1 PUSH1 0x40 MLOAD SWAP2 DUP3 DUP2 SLOAD SWAP2 DUP3 DUP3 MSTORE PUSH1 0x20 SWAP3 DUP4 DUP4 ADD SWAP2 PUSH1 0x0 MSTORE DUP4 PUSH1 0x0 KECCAK256 SWAP4 PUSH1 0x0 SWAP1 JUMPDEST DUP3 DUP3 LT PUSH2 0x3292 JUMPI POP POP POP PUSH2 0x2E0D SWAP3 POP SUB DUP4 PUSH2 0x2CEA JUMP JUMPDEST DUP6 SLOAD DUP5 MSTORE PUSH1 0x1 SWAP6 DUP7 ADD SWAP6 DUP9 SWAP6 POP SWAP4 DUP2 ADD SWAP4 SWAP1 SWAP2 ADD SWAP1 PUSH2 0x327C JUMP JUMPDEST DUP1 MLOAD DUP3 LT ISZERO PUSH2 0x414 JUMPI PUSH1 0x20 SWAP2 PUSH1 0x5 SHL ADD ADD SWAP1 JUMP INVALID LOG2 PUSH5 0x6970667358 0x22 SLT KECCAK256 0xFC 0xB6 0xB2 DUP11 PUSH6 0x5F33740A9780 0xDD 0xE6 EQ 0xB9 0xB1 0x29 RETURNDATASIZE MOD SIGNEXTEND 0xC9 XOR PUSH28 0x7B55DC975BFEA45D3B64736F6C634300081300330000000000000000 "},"methodIdentifiers":{"addCandidateToElection(uint256,uint256)":"778c6439","allCandidateIds(uint256)":"0a17942e","allElectionIds(uint256)":"76ff0908","allUserAddresses(uint256)":"12f8a6ab","approveCandidate(uint256)":"69956046","approveUser(address)":"d624fdb6","candidates(uint256)":"3477ee2e","createElection(string,string,uint256,uint256,uint256)":"ff50e12f","elections(uint256)":"5e6fef01","endElection(uint256)":"9c98bcbb","enrollToVote(uint256)":"2c6d9c85","getAllCandidates()":"2e6997fe","getAllElections()":"7fd5f268","getAllUsers()":"e2842d79","getCandidate(uint256)":"35b8e820","getElection(uint256)":"9d710777","getElectionResults(uint256)":"e8ededa6","getPendingCandidates()":"9a70b327","getPendingUsers()":"fe09b5ec","getUser(address)":"6f77926b","hasUserVoted(uint256,address)":"dc296ae1","isUserEnrolled(uint256,address)":"064956d7","owner()":"8da5cb5b","pause()":"8456cb59","pauseElection(uint256)":"2e4ecae1","paused()":"5c975abb","pendingCandidateApprovals(uint256)":"f4362970","pendingUserApprovals(uint256)":"89f98557","renounceOwnership()":"715018a6","requestCandidateRegistration(string,string)":"ee2128f2","requestUserRegistration(string)":"14ddd980","startElection(uint256)":"6d32dc4b","transferOwnership(address)":"f2fde38b","unpause()":"3f4ba83a","updateElectionDates(uint256,uint256,uint256,uint256)":"0a1741d3","updateElectionState(uint256)":"eb4129f7","users(address)":"a87430ba","vote(uint256,uint256)":"b384abef"}}}}}