{"contracts/VotingContract.sol":{"VotingContract":{"abi":[{"inputs":[],"stateMutability":"nonpayable","type":"constructor"},{"anonymous":false,"inputs":[{"indexed":true,"internalType":"uint256","name":"electionId","type":"uint256"},{"indexed":true,"internalType":"uint256","name":"candidateId","type":"uint256"}],"name":"CandidateAddedToElection","type":"event"},{"anonymous":false,"inputs":[{"indexed":true,"internalType":"uint256","name":"candidateId","type":"uint256"}],"name":"CandidateApproved","type":"event"},{"anonymous":false,"inputs":[{"indexed":true,"internalType":"uint256","name":"candidateId","type":"uint256"},{"indexed":true,"internalType":"address","name":"userAddress","type":"address"},{"indexed":false,"internalType":"string","name":"partyName","type":"string"},{"indexed":false,"internalType":"string","name":"symbol","type":"string"}],"name":"CandidateRegistrationRequested","type":"event"},{"anonymous":false,"inputs":[{"indexed":true,"internalType":"uint256","name":"electionId","type":"uint256"},{"indexed":false,"internalType":"string","name":"title","type":"string"}],"name":"ElectionCreated","type":"event"},{"anonymous":false,"inputs":[{"indexed":true,"internalType":"uint256","name":"electionId","type":"uint256"},{"indexed":false,"internalType":"uint256","name":"votingStartDate","type":"uint256"},{"indexed":false,"internalType":"uint256","name":"votingEndDate","type":"uint256"},{"indexed":false,"internalType":"uint256","name":"resultAnnounceDate","type":"uint256"}],"name":"ElectionDatesUpdated","type":"event"},{"anonymous":false,"inputs":[{"indexed":true,"internalType":"uint256","name":"electionId","type":"uint256"}],"name":"ElectionEnded","type":"event"},{"anonymous":false,"inputs":[{"indexed":true,"internalType":"uint256","name":"electionId","type":"uint256"},{"indexed":false,"internalType":"bool","name":"paused","type":"bool"}],"name":"ElectionPaused","type":"event"},{"anonymous":false,"inputs":[{"indexed":true,"internalType":"uint256","name":"electionId","type":"uint256"}],"name":"ElectionStarted","type":"event"},{"anonymous":false,"inputs":[{"indexed":true,"internalType":"address","name":"previousOwner","type":"address"},{"indexed":true,"internalType":"address","name":"newOwner","type":"address"}],"name":"OwnershipTransferred","type":"event"},{"anonymous":false,"inputs":[{"indexed":false,"internalType":"address","name":"account","type":"address"}],"name":"Paused","type":"event"},{"anonymous":false,"inputs":[{"indexed":false,"internalType":"address","name":"account","type":"address"}],"name":"Unpaused","type":"event"},{"anonymous":false,"inputs":[{"indexed":true,"internalType":"address","name":"userAddress","type":"address"}],"name":"UserApproved","type":"event"},{"anonymous":false,"inputs":[{"indexed":true,"internalType":"address","name":"userAddress","type":"address"},{"indexed":false,"internalType":"string","name":"name","type":"string"}],"name":"UserRegistrationRequested","type":"event"},{"anonymous":false,"inputs":[{"indexed":true,"internalType":"uint256","name":"electionId","type":"uint256"},{"indexed":true,"internalType":"uint256","name":"candidateId","type":"uint256"},{"indexed":true,"internalType":"address","name":"voter","type":"address"}],"name":"VoteCast","type":"event"},{"anonymous":false,"inputs":[{"indexed":true,"internalType":"uint256","name":"electionId","type":"uint256"},{"indexed":true,"internalType":"address","name":"voter","type":"address"}],"name":"VoterEnrolled","type":"event"},{"inputs":[{"internalType":"uint256","name":"_electionId","type":"uint256"},{"internalType":"uint256","name":"_candidateId","type":"uint256"}],"name":"addCandidateToElection","outputs":[],"stateMutability":"nonpayable","type":"function"},{"inputs":[{"internalType":"uint256","name":"","type":"uint256"}],"name":"allCandidateIds","outputs":[{"internalType":"uint256","name":"","type":"uint256"}],"stateMutability":"view","type":"function"},{"inputs":[{"internalType":"uint256","name":"","type":"uint256"}],"name":"allElectionIds","outputs":[{"internalType":"uint256","name":"","type":"uint256"}],"stateMutability":"view","type":"function"},{"inputs":[{"internalType":"uint256","name":"","type":"uint256"}],"name":"allUserAddresses","outputs":[{"internalType":"address","name":"","type":"address"}],"stateMutability":"view","type":"function"},{"inputs":[{"internalType":"uint256","name":"_candidateId","type":"uint256"}],"name":"approveCandidate","outputs":[],"stateMutability":"nonpayable","type":"function"},{"inputs":[{"internalType":"address","name":"_userAddress","type":"address"}],"name":"approveUser","outputs":[],"stateMutability":"nonpayable","type":"function"},{"inputs":[{"internalType":"uint256","name":"","type":"uint256"}],"name":"candidates","outputs":[{"internalType":"uint256","name":"candidateId","type":"uint256"},{"internalType":"address","name":"userAddress","type":"address"},{"internalType":"string","name":"partyName","type":"string"},{"internalType":"string","name":"symbol","type":"string"},{"internalType":"uint256","name":"voteCount","type":"uint256"},{"internalType":"uint256","name":"electionId","type":"uint256"},{"internalType":"bool","name":"approved","type":"bool"},{"internalType":"bool","name":"exists","type":"bool"}],"stateMutability":"view","type":"function"},{"inputs":[{"internalType":"string","name":"_title","type":"string"},{"internalType":"string","name":"_description","type":"string"},{"internalType":"uint256","name":"_votingStartDate","type":"uint256"},{"internalType":"uint256","name":"_votingEndDate","type":"uint256"},{"internalType":"uint256","name":"_resultAnnounceDate","type":"uint256"}],"name":"createElection","outputs":[{"internalType":"uint256","name":"","type":"uint256"}],"stateMutability":"nonpayable","type":"function"},{"inputs":[{"internalType":"uint256","name":"","type":"uint256"}],"name":"elections","outputs":[{"internalType":"uint256","name":"electionId","type":"uint256"},{"internalType":"string","name":"title","type":"string"},{"internalType":"string","name":"description","type":"string"},{"internalType":"bool","name":"isActive","type":"bool"},{"internalType":"bool","name":"isEnded","type":"bool"},{"internalType":"uint256","name":"startTime","type":"uint256"},{"internalType":"uint256","name":"endTime","type":"uint256"},{"internalType":"uint256","name":"votingStartDate","type":"uint256"},{"internalType":"uint256","name":"votingEndDate","type":"uint256"},{"internalType":"uint256","name":"resultAnnounceDate","type":"uint256"},{"internalType":"bool","name":"resultAnnounced","type":"bool"},{"internalType":"bool","name":"paused","type":"bool"},{"internalType":"uint256","name":"totalVotes","type":"uint256"},{"internalType":"bool","name":"exists","type":"bool"}],"stateMutability":"view","type":"function"},{"inputs":[{"internalType":"uint256","name":"_electionId","type":"uint256"}],"name":"endElection","outputs":[],"stateMutability":"nonpayable","type":"function"},{"inputs":[{"internalType":"uint256","name":"_electionId","type":"uint256"}],"name":"enrollToVote","outputs":[],"stateMutability":"nonpayable","type":"function"},{"inputs":[],"name":"getAllCandidates","outputs":[{"internalType":"uint256[]","name":"","type":"uint256[]"}],"stateMutability":"view","type":"function"},{"inputs":[],"name":"getAllElections","outputs":[{"internalType":"uint256[]","name":"","type":"uint256[]"}],"stateMutability":"view","type":"function"},{"inputs":[],"name":"getAllUsers","outputs":[{"internalType":"address[]","name":"","type":"address[]"}],"stateMutability":"view","type":"function"},{"inputs":[{"internalType":"uint256","name":"_candidateId","type":"uint256"}],"name":"getCandidate","outputs":[{"internalType":"uint256","name":"candidateId","type":"uint256"},{"internalType":"address","name":"userAddress","type":"address"},{"internalType":"string","name":"partyName","type":"string"},{"internalType":"string","name":"symbol","type":"string"},{"internalType":"uint256","name":"voteCount","type":"uint256"},{"internalType":"uint256","name":"electionId","type":"uint256"},{"internalType":"bool","name":"approved","type":"bool"}],"stateMutability":"view","type":"function"},{"inputs":[{"internalType":"uint256","name":"_electionId","type":"uint256"}],"name":"getElection","outputs":[{"internalType":"uint256","name":"electionId","type":"uint256"},{"internalType":"string","name":"title","type":"string"},{"internalType":"string","name":"description","type":"string"},{"internalType":"bool","name":"isActive","type":"bool"},{"internalType":"bool","name":"isEnded","type":"bool"},{"internalType":"uint256[]","name":"candidateIds","type":"uint256[]"},{"internalType":"uint256","name":"startTime","type":"uint256"},{"internalType":"uint256","name":"endTime","type":"uint256"},{"internalType":"uint256","name":"votingStartDate","type":"uint256"},{"internalType":"uint256","name":"votingEndDate","type":"uint256"},{"internalType":"uint256","name":"resultAnnounceDate","type":"uint256"},{"internalType":"bool","name":"resultAnnounced","type":"bool"},{"internalType":"bool","name":"paused","type":"bool"},{"internalType":"uint256","name":"totalVotes","type":"uint256"}],"stateMutability":"view","type":"function"},{"inputs":[{"internalType":"uint256","name":"_electionId","type":"uint256"}],"name":"getElectionResults","outputs":[{"internalType":"uint256[]","name":"candidateIds","type":"uint256[]"},{"internalType":"uint256[]","name":"voteCounts","type":"uint256[]"}],"stateMutability":"view","type":"function"},{"inputs":[],"name":"getPendingCandidates","outputs":[{"internalType":"uint256[]","name":"","type":"uint256[]"}],"stateMutability":"view","type":"function"},{"inputs":[],"name":"getPendingUsers","outputs":[{"internalType":"address[]","name":"","type":"address[]"}],"stateMutability":"view","type":"function"},{"inputs":[{"internalType":"address","name":"_userAddress","type":"address"}],"name":"getUser","outputs":[{"internalType":"string","name":"name","type":"string"},{"internalType":"bool","name":"isRegistered","type":"bool"},{"internalType":"bool","name":"isCandidate","type":"bool"},{"internalType":"bool","name":"approved","type":"bool"},{"internalType":"uint256[]","name":"registeredElectionIds","type":"uint256[]"}],"stateMutability":"view","type":"function"},{"inputs":[{"internalType":"uint256","name":"_electionId","type":"uint256"},{"internalType":"address","name":"_voter","type":"address"}],"name":"hasUserVoted","outputs":[{"internalType":"bool","name":"","type":"bool"}],"stateMutability":"view","type":"function"},{"inputs":[{"internalType":"uint256","name":"_electionId","type":"uint256"},{"internalType":"address","name":"_voter","type":"address"}],"name":"isUserEnrolled","outputs":[{"internalType":"bool","name":"","type":"bool"}],"stateMutability":"view","type":"function"},{"inputs":[],"name":"owner","outputs":[{"internalType":"address","name":"","type":"address"}],"stateMutability":"view","type":"function"},{"inputs":[],"name":"pause","outputs":[],"stateMutability":"nonpayable","type":"function"},{"inputs":[{"internalType":"uint256","name":"_electionId","type":"uint256"}],"name":"pauseElection","outputs":[],"stateMutability":"nonpayable","type":"function"},{"inputs":[],"name":"paused","outputs":[{"internalType":"bool","name":"","type":"bool"}],"stateMutability":"view","type":"function"},{"inputs":[{"internalType":"uint256","name":"","type":"uint256"}],"name":"pendingCandidateApprovals","outputs":[{"internalType":"uint256","name":"","type":"uint256"}],"stateMutability":"view","type":"function"},{"inputs":[{"internalType":"uint256","name":"","type":"uint256"}],"name":"pendingUserApprovals","outputs":[{"internalType":"address","name":"","type":"address"}],"stateMutability":"view","type":"function"},{"inputs":[],"name":"renounceOwnership","outputs":[],"stateMutability":"nonpayable","type":"function"},{"inputs":[{"internalType":"string","name":"_partyName","type":"string"},{"internalType":"string","name":"_symbol","type":"string"}],"name":"requestCandidateRegistration","outputs":[],"stateMutability":"nonpayable","type":"function"},{"inputs":[{"internalType":"string","name":"_name","type":"string"}],"name":"requestUserRegistration","outputs":[],"stateMutability":"nonpayable","type":"function"},{"inputs":[{"internalType":"uint256","name":"_electionId","type":"uint256"}],"name":"startElection","outputs":[],"stateMutability":"nonpayable","type":"function"},{"inputs":[{"internalType":"address","name":"newOwner","type":"address"}],"name":"transferOwnership","outputs":[],"stateMutability":"nonpayable","type":"function"},{"inputs":[],"name":"unpause","outputs":[],"stateMutability":"nonpayable","type":"function"},{"inputs":[{"internalType":"uint256","name":"_electionId","type":"uint256"},{"internalType":"uint256","name":"_votingStartDate","type":"uint256"},{"internalType":"uint256","name":"_votingEndDate","type":"uint256"},{"internalType":"uint256","name":"_resultAnnounceDate","type":"uint256"}],"name":"updateElectionDates","outputs":[],"stateMutability":"nonpayable","type":"function"},{"inputs":[{"internalType":"uint256","name":"_electionId","type":"uint256"}],"name":"updateElectionState","outputs":[],"stateMutability":"nonpayable","type":"function"},{"inputs":[{"internalType":"address","name":"","type":"address"}],"name":"users","outputs":[{"internalType":"string","name":"name","type":"string"},{"internalType":"bool","name":"isRegistered","type":"bool"},{"internalType":"bool","name":"isCandidate","type":"bool"},{"internalType":"bool","name":"approved","type":"bool"},{"internalType":"bool","name":"exists","type":"bool"}],"stateMutability":"view","type":"function"},{"inputs":[{"internalType":"uint256","name":"_electionId","type":"uint256"},{"internalType":"uint256","name":"_candidateId","type":"uint256"}],"name":"vote","outputs":[],"stateMutability":"nonpayable","type":"function"}],"evm":{"bytecode":{"linkReferences":{},"object":"608080604052346100735760008054336001600160a01b0319821681178355916001600160a01b03909116907f8be0079c531659141344cd1fd0a4f28419497f9722a3daafe3b4186f6b6457e09080a36001805560ff19600254166002556001600b556001600c55612f9790816100798239f35b600080fdfe6080604052600436101561001257600080fd5b60e0600035811c908163064956d7146129a75781630a1741d3146129105781630a17942e146128bf57816312f8a6ab1461286457816314ddd980146124825781632c6d9c85146123215781632e4ecae1146122465781632e6997fe146121ce5781633477ee2e1461211b57816335b8e820146120095781633f4ba83a14611f755781635c975abb14611f525781635e6fef0114611e4f5781636995604614611cd05781636d32dc4b14611bf15781636f77926b14611b13578163715018a614611aba57816376ff090814611a69578163778c6439146119035781637fd5f2681461188b5781638456cb59146117f857816389f98557146117b65781638da5cb5b1461178d5781639a70b327146117015781639c98bcbb1461165f5781639d7107771461152f578163a87430ba146114a2578163b384abef14611250578163d624fdb61461104b578163dc296ae114610fdd578163e2842d7914610f59578163e8ededa614610e23578163eb4129f714610ce8578163ee2128f21461079157508063f2fde38b146106cd578063f436297014610696578063fe09b5ec146106025763ff50e12f146101c157600080fd5b346105fd5760a03660031901126105fd576001600160401b036004358181116105fd576101f2903690600401612b22565b60249081358381116105fd5761020c903690600401612b22565b92610215612d26565b8151156105c15783511561057d57600c549261023084612dac565b600c5583600052602094600586526040600020908582556001938483018651908282116104c9576102618154612bac565b91601f928b84821161054e575b5050808b8482116001146104e9576000916104de575b50600019600383901b1c191690881b1790555b600284019280519283116104c9576102af8454612bac565b8a838211610490575b50508991831160011461042857600e949392916000918361041d575b5050600019600383901b1c191690861b1790555b6003810161ffff19908582825416179055600060405161030781612ae6565b526004820180546000825580610402575b50506044356009830155606435600a830155608435600b830155600c82019081541690556000600d820155018260ff19825416179055600a5491600160401b8310156103ed57820180600a558210156103d957506103ce8392837f52be7c4e77b4de76b7607d621492061fe13b58597e72dfb5e51ab8f6187ed14193600a6000527fc65a7bb8d6351c1cf70c95a316cc6a92839c986682d98bc35f958f4883f9d2a8015560405191829187835287830190612c8c565b0390a2604051908152f35b634e487b7160e01b60009081526032600452fd5b50634e487b7160e01b60009081526041600452fd5b610416916000528960002090810190612d95565b3880610318565b0151905038806102d4565b9392918691601f19821690846000528b6000209160005b8d82821061047a5750509683600e9810610461575b505050811b0190556102e8565b015160001960f88460031b161c19169055388080610454565b838a015185558b9690940193928301920161043f565b6104b9918660005284826000209181880160051c83019388106104c0575b0160051c0190612d95565b388a6102b8565b925081926104ae565b85634e487b7160e01b60005260416004526000fd5b905089015138610284565b60008481528d81208b94509190601f198416908f8e5b83831061053557505050831161051c575b5050811b019055610297565b8b015160001960f88460031b161c191690553880610510565b84015185558d969094019392830192908101908e6104ff565b610576918460005285826000209181860160051c83019386106104c0570160051c0190612d95565b388b61026e565b60405162461bcd60e51b815260206004820152601b818501527f4465736372697074696f6e2063616e6e6f7420626520656d70747900000000006044820152606490fd5b60405162461bcd60e51b815260206004820152601581850152745469746c652063616e6e6f7420626520656d70747960581b6044820152606490fd5b600080fd5b346105fd5760003660031901126105fd57604051806006549182815260208091019260066000527ff652222313e28459528d920b65115c16c04f3efc82aaedc97be59f3f377c0d3f916000905b828210610676576106728561066681890382612b01565b60405191829182612ce2565b0390f35b83546001600160a01b03168652948501946001938401939091019061064f565b346105fd5760203660031901126105fd576004356007548110156105fd576106bf602091612a41565b90546040519160031b1c8152f35b346105fd5760203660031901126105fd576106e6612a2b565b6106ee612d26565b6001600160a01b0390811690811561073d57600054826001600160601b0360a01b821617600055167f8be0079c531659141344cd1fd0a4f28419497f9722a3daafe3b4186f6b6457e0600080a3005b60405162461bcd60e51b815260206004820152602660248201527f4f776e61626c653a206e6577206f776e657220697320746865207a65726f206160448201526564647265737360d01b6064820152608490fd5b346105fd5760403660031901126105fd576004356001600160401b0381116105fd576107c1903690600401612b22565b906024356001600160401b0381116105fd576107e1903690600401612b22565b9133600052600360205260ff6003604060002001541615610cad57805115610c6857825115610c2a57600b549161081783612dac565b600b556040519061082782612aca565b83825233602083015282604083015284606083015260006080830152600060a0830152600060c08301526001818301528360005260046020526040600020825181556001810160018060a01b036020850151166001600160601b0360a01b82541617905560408301518051906001600160401b038211610a9f5781906108b06002850154612bac565b601f8111610bf5575b50602090601f8311600114610b8357600092610b78575b50508160011b916000199060031b1c19161760028201555b60608301518051906001600160401b038211610a9f5761090b6003840154612bac565b601f8111610b38575b50602090601f8311600114610ac057918061099996959492600694600092610ab5575b50508160011b916000199060031b1c19161760038201555b6080840151600482015560a08401516005820155019161098160c08201511515849060ff801983541691151516179055565b0151815461ff00191690151560081b61ff0016179055565b336000526003602052600160406000200161010061ff0019825416179055600754600160401b9081811015610a9f57836109dc8260016109f59401600755612a41565b90919082549060031b91821b91600019901b1916179055565b60095490811015610a9f576001810180600955811015610a89577f8ee8ba30b5c49eea6c2fdcd6424eb5fbe1d9ce7fbf823596ae760ec67778e8429183610a759260096000527f6e1540171b6c0c960b71a7020d9f60077f6af931a8bbf590da0223dacf75c7af0155610a84604051928392604084526040840190612c8c565b82810360208401523396612c8c565b0390a3005b634e487b7160e01b600052603260045260246000fd5b634e487b7160e01b600052604160045260246000fd5b015190508a80610937565b906003840160005260206000209160005b601f1985168110610b205750926109999695949260019260069583601f19811610610b07575b505050811b01600382015561094f565b015160001960f88460031b161c191690558a8080610af7565b91926020600181928685015181550194019201610ad1565b610b6890600385016000526020600020601f850160051c81019160208610610b6e575b601f0160051c0190612d95565b88610914565b9091508190610b5b565b0151905088806108d0565b9250600284016000526020600020906000935b601f1984168510610bda576001945083601f19811610610bc1575b505050811b0160028201556108e8565b015160001960f88460031b161c19169055888080610bb1565b81810151835560209485019460019093019290910190610b96565b610c2490600286016000526020600020601f850160051c81019160208610610b6e57601f0160051c0190612d95565b896108b9565b60405162461bcd60e51b815260206004820152601660248201527553796d626f6c2063616e6e6f7420626520656d70747960501b6044820152606490fd5b60405162461bcd60e51b815260206004820152601a60248201527f5061727479206e616d652063616e6e6f7420626520656d7074790000000000006044820152606490fd5b60405162461bcd60e51b8152602060048201526013602482015272155cd95c881b9bdd081c9959da5cdd195c9959606a1b6044820152606490fd5b346105fd5760203660031901126105fd5760043580600052600560205260ff610d1a81600e6040600020015416612e30565b8160005260056020526040600020600c810192835490838260081c161580610e12575b610d4357005b82600385940192835485811615610dcf575b50508254848116610d90575b5050505460081c169081610d84575b50610d7757005b805460ff19166001179055005b90508154161582610d70565b6101009061ffff19161783556008429101557f562cd572b2ba3b666cd989fc4ca98419ec81e75f04528df9d9d76fdb7807ee71600080a2848080610d61565b60ff1916600117845561ff0019168655426007820155817f159eee87222a0489c529f2153c26ad65d718f2cc33ebaa8d399d1dd5b39facaa600080a28680610d55565b5083600384015460081c1615610d3d565b346105fd576020806003193601126105fd576004358060005260058252610e5460ff600e6040600020015416612e30565b806000526005825260ff60036040600020015460081c1615610f1f5760005260058152610e876004604060002001612efe565b8051610e9281612d7e565b90610ea06040519283612b01565b808252610eaf601f1991612d7e565b01368483013760005b8251811015610ef55780610ecf610ef09285612f4d565b5160005260048552600460406000200154610eea8285612f4d565b52612dac565b610eb8565b50610f129261067291604051948594604086526040860190612b78565b9184830390850152612b78565b60405162461bcd60e51b8152600481018390526012602482015271115b1958dd1a5bdb881b9bdd08195b99195960721b6044820152606490fd5b346105fd5760003660031901126105fd57604051806008549182815260208091019260086000527ff3f7a9fe364faab93b216da50a3214154f22a0a2b415b23a84c8169e8b636ee3916000905b828210610fbd576106728561066681890382612b01565b83546001600160a01b031686529485019460019384019390910190610fa6565b346105fd5760403660031901126105fd57600435610ff9612a15565b9080600052600560205261101760ff600e6040600020015416612e30565b600052600560205260066040600020019060018060a01b0316600052602052602060ff604060002054166040519015158152f35b346105fd576020806003193601126105fd57611065612a2b565b9061106e612d26565b60018060a01b03809216918260005260039081835260ff82604060002001541615611215578360005281835260019260ff846040600020015460101c166111d957600085815290839052604081208401805462ff00ff191662010001179055835b6110fc575b847ffbb0a472171a6eb950c8a87421215268a1b2df816da0a48e920e72ade27cfcf7600080a2005b60068054808310156111d257868461111385612a78565b905490881b1c161461113057505061112a90612dac565b836110cf565b93945092600019918282019182116111bc5761115f8461115261117e94612a78565b905490891b1c1691612a78565b90919082549060031b9160018060a01b03809116831b921b1916179055565b825480156111a657019261119184612a78565b81939154921b1b1916905555818080806110d4565b634e487b7160e01b600052603160045260246000fd5b634e487b7160e01b600052601160045260246000fd5b50506110d4565b6064906040519062461bcd60e51b825260048201526015602482015274155cd95c88185b1c9958591e48185c1c1c9bdd9959605a1b6044820152fd5b60405162461bcd60e51b8152600481018490526013602482015272155cd95c88191bd95cc81b9bdd08195e1a5cdd606a1b6044820152606490fd5b346105fd5761125e36612ccc565b90336000526020916003835260019261128360ff856040600020015460101c16612ebe565b826000526005908181526112a160ff600e6040600020015416612e30565b82600052600481526112c060ff60066040600020015460081c16612de4565b600285541461145e5760028555836000528181528160406000200133600052815260ff60406000205416156114235783600052818152600660406000200133600052815260ff604060002054166113ef578260005260048152838260406000200154036113ab5783600052818152600660406000200133600052815260406000208560ff19825416179055826000526004815260046040600020016113658154612dac565b90558360005252600d60406000200161137e8154612dac565b905533917f7fe1d4e6b34e228b5dc059fcdc037c71b216fb2417f47c171e505144a5e4f5fc600080a48055005b6064906040519062461bcd60e51b82526004820152601e60248201527f43616e646964617465206e6f7420696e207468697320656c656374696f6e00006044820152fd5b6064906040519062461bcd60e51b82526004820152600d60248201526c105b1c9958591e481d9bdd1959609a1b6044820152fd5b6064906040519062461bcd60e51b8252600482015260146024820152734e6f7420656e726f6c6c656420746f20766f746560601b6044820152fd5b6064906040519062461bcd60e51b82526004820152601f60248201527f5265656e7472616e637947756172643a207265656e7472616e742063616c6c006044820152fd5b346105fd5760203660031901126105fd576001600160a01b036114c3612a2b565b16600052600360205261150160406000206114dd81612be6565b9060ff600360018301549201541660ff60405194859460a0865260a0860190612c8c565b9281811615156020860152818160081c161515604086015260101c1615156060840152151560808301520390f35b346105fd5760203660031901126105fd576004358060005260056020526040600020600e015460ff1661156190612e30565b600052600560205260406000209081549060038301549260078101549160088201546009830154600a84015490600b85015492600c86015494600d87015496600181016115ad90612be6565b9a6115ba60028301612be6565b916004016115c790612efe565b916040519c8d9c8d528c6101c06020819201528d016115e591612c8c565b8c810360408e01526115f691612c8c565b9060ff8116151560608d015260081c60ff16151560808c01528a810360a08c015261162091612b78565b9760c08a015288015261010087015261012086015261014085015260ff8116151561016085015260081c60ff1615156101808401526101a08301520390f35b346105fd5760203660031901126105fd5760043561167b612d26565b80600052600560205261169860ff600e6040600020015416612e30565b8060005260056020526116b560ff60036040600020015416612e7c565b80600052600560205260406000206003810161010061ffff198254161790556008429101557f562cd572b2ba3b666cd989fc4ca98419ec81e75f04528df9d9d76fdb7807ee71600080a2005b346105fd5760003660031901126105fd576040518060075480825282602080930160076000527fa66cc928b5edb82af9bd49922954155ab7b0942694bea4ce44661d9a8736c6889260005b858282106117775750505061176392500383612b01565b610672604051928284938452830190612b78565b855484526001958601958895509301920161174c565b346105fd5760003660031901126105fd576000546040516001600160a01b039091168152602090f35b346105fd5760203660031901126105fd576004356006548110156105fd576117df602091612a78565b905460405160039290921b1c6001600160a01b03168152f35b346105fd5760003660031901126105fd57611811612d26565b60025460ff81166118535760019060ff1916176002557f62e78cea01bee320cd4e420270b5ea74000d11b0c9f74754ebdbfc544b05a2586020604051338152a1005b60405162461bcd60e51b815260206004820152601060248201526f14185d5cd8589b194e881c185d5cd95960821b6044820152606490fd5b346105fd5760003660031901126105fd5760405180600a54808252826020809301600a6000527fc65a7bb8d6351c1cf70c95a316cc6a92839c986682d98bc35f958f4883f9d2a89260005b858282106118ed5750505061176392500383612b01565b85548452600195860195889550930192016118d6565b346105fd5761191136612ccc565b9061191a612d26565b8060005260206005815261193860ff600e6040600020015416612e30565b826000526004815261195760ff60066040600020015460081c16612de4565b826000526004815260ff6006604060002001541615611a2c5782600052600481526005604060002001546119d65760049082600052600581526119a08483604060002001612dbb565b8360005252806005604060002001557fa4e69db433ebec4ded108fd5357e7b35d8671bc745d7f88a516b6c92f86a046e600080a3005b6084906040519062461bcd60e51b82526004820152602960248201527f43616e64696461746520616c72656164792061737369676e656420746f20616e6044820152681032b632b1ba34b7b760b91b6064820152fd5b6064906040519062461bcd60e51b82526004820152601660248201527510d85b991a59185d19481b9bdd08185c1c1c9bdd995960521b6044820152fd5b346105fd5760203660031901126105fd57600435600a548110156105fd57602090600a6000527fc65a7bb8d6351c1cf70c95a316cc6a92839c986682d98bc35f958f4883f9d2a80154604051908152f35b346105fd5760003660031901126105fd57611ad3612d26565b600080546001600160a01b0319811682556001600160a01b03167f8be0079c531659141344cd1fd0a4f28419497f9722a3daafe3b4186f6b6457e08280a3005b346105fd5760203660031901126105fd576001600160a01b03611b34612a2b565b166000526003602052611bd46040600020610672604051611b5481612aaf565b611b5d83612be6565b8152600183015492602082019360ff811615158552604083019260ff8260081c161515845260ff606082019260101c161515825260ff6003611ba160028601612efe565b94856080850152015416151560a0820152519451151592511515905115159060405196879660a0885260a0880190612c8c565b936020870152604086015260608501528382036080850152612b78565b346105fd5760203660031901126105fd57600435611c0d612d26565b806000526005602052611c2a60ff600e6040600020015416612e30565b80600052600560205260046040600020015415611c8b57806000526005602052604060002060038101600160ff198254161790556007429101557f159eee87222a0489c529f2153c26ad65d718f2cc33ebaa8d399d1dd5b39facaa600080a2005b60405162461bcd60e51b815260206004820152601960248201527f4e6f2063616e6469646174657320696e20656c656374696f6e000000000000006044820152606490fd5b346105fd5760203660031901126105fd57600435611cec612d26565b806000526004602052611d0c60ff60066040600020015460081c16612de4565b80600052600460205260ff60066040600020015416611e0a578060005260046020528060066040600020016001908160ff19825416179055806000905b611d76575b827f24776d729722c25af4030aba0aa454b1bf0ce96bfdb29e2998c1a0bc3ded47d5600080a2005b6007805480831015611e0357611d8b83612a41565b959054600396871b1c14611daf575050611da6919250612dac565b90829181611d49565b909250600019918282019182116111bc576109dc611dcf611ddb93612a41565b905490871b1c91612a41565b815480156111a657810192611def84612a41565b81939154921b1b1916905555808280611d4e565b5050611d4e565b60405162461bcd60e51b815260206004820152601a60248201527f43616e64696461746520616c726561647920617070726f7665640000000000006044820152606490fd5b346105fd5760203660031901126105fd57600435600052600560205260406000209081549060018301611e8190612be6565b92611e8e60028201612be6565b906003810154926007820154906008830154906009840154600a85015491600b86015493600c87015495600d88015497600e015460ff16986040519c8d9c8d528c6101c06020819201528d01611ee391612c8c565b8c810360408e0152611ef491612c8c565b9960ff8116151560608d015260081c60ff16151560808c015260a08b015260c08a015288015261010087015261012086015260ff8116151561014086015260081c60ff16151561016085015261018084015215156101a08301520390f35b346105fd5760003660031901126105fd57602060ff600254166040519015158152f35b346105fd5760003660031901126105fd57611f8e612d26565b60025460ff811615611fcd5760ff19166002557f5db9ee0a495bf2e6ff9c91a7834c1ba4fdd244a5e8aa4e537bd38aeae4b073aa6020604051338152a1005b60405162461bcd60e51b815260206004820152601460248201527314185d5cd8589b194e881b9bdd081c185d5cd95960621b6044820152606490fd5b346105fd5760203660031901126105fd5760043580600052600460205261203d60ff60066040600020015460081c16612de4565b6000526004602052604060002060405161205681612aca565b8154815260018201546001600160a01b03908116602083019081529290919061210761208460028301612be6565b95604084019687526120f961209b60038501612be6565b9182606087015260048501549687608088015260066005870154968760a08a015201549660ff8089161515988960c084015260081c1615158382015251985116985190604051998a998a5260208a01528060408a0152880190612c8c565b908682036060880152612c8c565b92608085015260a084015260c08301520390f35b346105fd5760203660031901126105fd576004356000526004602052604060002080549060018060a01b036001820154169260ff61215b60028401612be6565b61216760038501612be6565b936121ab60048201549561219d60066005850154940154946040519a8b9a8b5260208b01526101008060408c01528a0190612c8c565b9088820360608a0152612c8c565b94608087015260a0860152818116151560c086015260081c161515908301520390f35b346105fd5760003660031901126105fd576040518060095480825282602080930160096000527f6e1540171b6c0c960b71a7020d9f60077f6af931a8bbf590da0223dacf75c7af9260005b858282106122305750505061176392500383612b01565b8554845260019586019588955093019201612219565b346105fd5760203660031901126105fd57600435612262612d26565b80600052600560205261227f60ff600e6040600020015416612e30565b80600052600560205261229c60ff60036040600020015416612e7c565b8060005260056020527fe9b0dfc8f12abac9dcf7ca6c9d3a8a0f8adef5c9a7f8bf9bd660cbe4f696daf0602060ff60406000206123116003600c8301926122fd85855460081c1615859061ff00825491151560081b169061ff001916179055565b01805460ff1981169085161560ff16179055565b5460081c166040519015158152a2005b346105fd576020806003193601126105fd5760043590336000526003815261235660ff60016040600020015460101c16612ebe565b81600052600580825261237360ff600e6040600020015416612e30565b8260005280825260ff60036040600020015460081c1661244857826000528082528060406000200133600052825260ff604060002054166124105790600391836000528082526040600020013360005281526040600020600160ff19825416179055526123e7816002604060002001612dbb565b33907f38dcbd2eb182b340b867c36ed9ed4dd8f7d99da76fcfb282c4bf5ca7f5c75b1d600080a3005b60405162461bcd60e51b815260048101839052601060248201526f105b1c9958591e48195b9c9bdb1b195960821b6044820152606490fd5b60405162461bcd60e51b8152600481018390526012602482015271115b1958dd1a5bdb881a185cc8195b99195960721b6044820152606490fd5b346105fd5760203660031901126105fd576004356001600160401b0381116105fd576124b2903690600401612b22565b33600052600360205260ff6003604060002001541661281f578051156127e3576040516124de81612ae6565b60008152604051906124ef82612aaf565b82825260208201600081526040830191600083526060840190600082526080850152600160a085015233600052600360205260406000209284518051906001600160401b038211610a9f576125448654612bac565b601f81116127b1575b50602090601f8311600114612743576125b493929160009183612738575b50508160011b916000199060031b1c19161785555b61259d6001860194511515859060ff801983541691151516179055565b51835461ff00191690151560081b61ff0016178355565b51815462ff0000191690151560101b62ff00001617905560808201518051909290600283016001600160401b038211610a9f57600160401b94858311610a9f57602090825484845580851061271b575b500190600052602060002060005b83811061270757878761263b88600360a08a0151151591019060ff801983541691151516179055565b60065481811015610a9f576126598160016126779301600655612a78565b81546001600160a01b0360039290921b91821b19163390911b179055565b60085490811015610a9f576001810180600855811015610a895760086000527ff3f7a9fe364faab93b216da50a3214154f22a0a2b415b23a84c8169e8b636ee301336001600160601b0360a01b8254161790557fe4e252ab55ecd86d160954e9237b0d7bf0efd0068b29c423b595c5177d0a5dc4604051602081528061270233946020830190612c8c565b0390a2005b600190602084519401938184015501612612565b612732908460005285846000209182019101612d95565b88612604565b01519050898061256b565b908660005260206000209160005b601f198516811061279957509183916001936125b49695601f19811610612780575b505050811b018555612580565b015160001960f88460031b161c19169055898080612773565b91926020600181928685015181550194019201612751565b6127dd90876000526020600020601f850160051c81019160208610610b6e57601f0160051c0190612d95565b8861254d565b60405162461bcd60e51b81526020600482015260146024820152734e616d652063616e6e6f7420626520656d70747960601b6044820152606490fd5b60405162461bcd60e51b815260206004820152601760248201527f5573657220616c726561647920726567697374657265640000000000000000006044820152606490fd5b346105fd5760203660031901126105fd576004356008548110156105fd5760086000527ff3f7a9fe364faab93b216da50a3214154f22a0a2b415b23a84c8169e8b636ee301546040516001600160a01b039091168152602090f35b346105fd5760203660031901126105fd576004356009548110156105fd5760209060096000527f6e1540171b6c0c960b71a7020d9f60077f6af931a8bbf590da0223dacf75c7af0154604051908152f35b346105fd5760803660031901126105fd576004357f739ebd6b0791f74b4760666c62eba700312c8bc1d9aa1ac74caf71c1eebae0766060602435606435604435612958612d26565b85600052600560205261297560ff600e6040600020015416612e30565b85600052600560205281600b604060002085600982015583600a820155015560405192835260208301526040820152a2005b346105fd5760403660031901126105fd576004356129c3612a15565b908060005260056020526129e160ff600e6040600020015416612e30565b600052600560205260056040600020019060018060a01b0316600052602052602060ff604060002054166040519015158152f35b602435906001600160a01b03821682036105fd57565b600435906001600160a01b03821682036105fd57565b600754811015610a895760076000527fa66cc928b5edb82af9bd49922954155ab7b0942694bea4ce44661d9a8736c6880190600090565b600654811015610a895760066000527ff652222313e28459528d920b65115c16c04f3efc82aaedc97be59f3f377c0d3f0190600090565b60c081019081106001600160401b03821117610a9f57604052565b61010081019081106001600160401b03821117610a9f57604052565b602081019081106001600160401b03821117610a9f57604052565b90601f801991011681019081106001600160401b03821117610a9f57604052565b81601f820112156105fd578035906001600160401b038211610a9f5760405192612b56601f8401601f191660200185612b01565b828452602083830101116105fd57816000926020809301838601378301015290565b90815180825260208080930193019160005b828110612b98575050505090565b835185529381019392810192600101612b8a565b90600182811c92168015612bdc575b6020831014612bc657565b634e487b7160e01b600052602260045260246000fd5b91607f1691612bbb565b9060405191826000825492612bfa84612bac565b908184526001948581169081600014612c695750600114612c26575b5050612c2492500383612b01565b565b9093915060005260209081600020936000915b818310612c51575050612c2493508201013880612c16565b85548884018501529485019487945091830191612c39565b915050612c2494506020925060ff191682840152151560051b8201013880612c16565b919082519283825260005b848110612cb8575050826000602080949584010152601f8019910116010190565b602081830181015184830182015201612c97565b60409060031901126105fd576004359060243590565b6020908160408183019282815285518094520193019160005b828110612d09575050505090565b83516001600160a01b031685529381019392810192600101612cfb565b6000546001600160a01b03163303612d3a57565b606460405162461bcd60e51b815260206004820152602060248201527f4f776e61626c653a2063616c6c6572206973206e6f7420746865206f776e65726044820152fd5b6001600160401b038111610a9f5760051b60200190565b818110612da0575050565b60008155600101612d95565b60001981146111bc5760010190565b805490600160401b821015610a9f5760018201808255821015610a895760005260206000200155565b15612deb57565b60405162461bcd60e51b815260206004820152601860248201527f43616e64696461746520646f6573206e6f7420657869737400000000000000006044820152606490fd5b15612e3757565b60405162461bcd60e51b815260206004820152601760248201527f456c656374696f6e20646f6573206e6f742065786973740000000000000000006044820152606490fd5b15612e8357565b60405162461bcd60e51b8152602060048201526013602482015272456c656374696f6e206e6f742061637469766560681b6044820152606490fd5b15612ec557565b60405162461bcd60e51b8152602060048201526011602482015270155cd95c881b9bdd08185c1c1c9bdd9959607a1b6044820152606490fd5b9060405191828154918282526020928383019160005283600020936000905b828210612f3357505050612c2492500383612b01565b855484526001958601958895509381019390910190612f1d565b8051821015610a895760209160051b01019056fea2646970667358221220f1899e1938fb4a2e8152c5fd756e3ba261699e222fb0eebf110dad02383ec89564736f6c63430008130033","opcodes":"PUSH1 0x80 DUP1 PUSH1 0x40 MSTORE CALLVALUE PUSH2 0x73 JUMPI PUSH1 0x0 DUP1 SLOAD CALLER PUSH1 0x1 PUSH1 0x1 PUSH1 0xA0 SHL SUB NOT DUP3 AND DUP2 OR DUP4 SSTORE SWAP2 PUSH1 0x1 PUSH1 0x1 PUSH1 0xA0 SHL SUB SWAP1 SWAP2 AND SWAP1 PUSH32 0x8BE0079C531659141344CD1FD0A4F28419497F9722A3DAAFE3B4186F6B6457E0 SWAP1 DUP1 LOG3 PUSH1 0x1 DUP1 SSTORE PUSH1 0xFF NOT PUSH1 0x2 SLOAD AND PUSH1 0x2 SSTORE PUSH1 0x1 PUSH1 0xB SSTORE PUSH1 0x1 PUSH1 0xC SSTORE PUSH2 0x2F97 SWAP1 DUP2 PUSH2 0x79 DUP3 CODECOPY RETURN JUMPDEST PUSH1 0x0 DUP1 REVERT INVALID PUSH1 0x80 PUSH1 0x40 MSTORE PUSH1 0x4 CALLDATASIZE LT ISZERO PUSH2 0x12 JUMPI PUSH1 0x0 DUP1 REVERT JUMPDEST PUSH1 0xE0 PUSH1 0x0 CALLDATALOAD DUP2 SHR SWAP1 DUP2 PUSH4 0x64956D7 EQ PUSH2 0x29A7 JUMPI DUP2 PUSH4 0xA1741D3 EQ PUSH2 0x2910 JUMPI DUP2 PUSH4 0xA17942E EQ PUSH2 0x28BF JUMPI DUP2 PUSH4 0x12F8A6AB EQ PUSH2 0x2864 JUMPI DUP2 PUSH4 0x14DDD980 EQ PUSH2 0x2482 JUMPI DUP2 PUSH4 0x2C6D9C85 EQ PUSH2 0x2321 JUMPI DUP2 PUSH4 0x2E4ECAE1 EQ PUSH2 0x2246 JUMPI DUP2 PUSH4 0x2E6997FE EQ PUSH2 0x21CE JUMPI DUP2 PUSH4 0x3477EE2E EQ PUSH2 0x211B JUMPI DUP2 PUSH4 0x35B8E820 EQ PUSH2 0x2009 JUMPI DUP2 PUSH4 0x3F4BA83A EQ PUSH2 0x1F75 JUMPI DUP2 PUSH4 0x5C975ABB EQ PUSH2 0x1F52 JUMPI DUP2 PUSH4 0x5E6FEF01 EQ PUSH2 0x1E4F JUMPI DUP2 PUSH4 0x69956046 EQ PUSH2 0x1CD0 JUMPI DUP2 PUSH4 0x6D32DC4B EQ PUSH2 0x1BF1 JUMPI DUP2 PUSH4 0x6F77926B EQ PUSH2 0x1B13 JUMPI DUP2 PUSH4 0x715018A6 EQ PUSH2 0x1ABA JUMPI DUP2 PUSH4 0x76FF0908 EQ PUSH2 0x1A69 JUMPI DUP2 PUSH4 0x778C6439 EQ PUSH2 0x1903 JUMPI DUP2 PUSH4 0x7FD5F268 EQ PUSH2 0x188B JUMPI DUP2 PUSH4 0x8456CB59 EQ PUSH2 0x17F8 JUMPI DUP2 PUSH4 0x89F98557 EQ PUSH2 0x17B6 JUMPI DUP2 PUSH4 0x8DA5CB5B EQ PUSH2 0x178D JUMPI DUP2 PUSH4 0x9A70B327 EQ PUSH2 0x1701 JUMPI DUP2 PUSH4 0x9C98BCBB EQ PUSH2 0x165F JUMPI DUP2 PUSH4 0x9D710777 EQ PUSH2 0x152F JUMPI DUP2 PUSH4 0xA87430BA EQ PUSH2 0x14A2 JUMPI DUP2 PUSH4 0xB384ABEF EQ PUSH2 0x1250 JUMPI DUP2 PUSH4 0xD624FDB6 EQ PUSH2 0x104B JUMPI DUP2 PUSH4 0xDC296AE1 EQ PUSH2 0xFDD JUMPI DUP2 PUSH4 0xE2842D79 EQ PUSH2 0xF59 JUMPI DUP2 PUSH4 0xE8EDEDA6 EQ PUSH2 0xE23 JUMPI DUP2 PUSH4 0xEB4129F7 EQ PUSH2 0xCE8 JUMPI DUP2 PUSH4 0xEE2128F2 EQ PUSH2 0x791 JUMPI POP DUP1 PUSH4 0xF2FDE38B EQ PUSH2 0x6CD JUMPI DUP1 PUSH4 0xF4362970 EQ PUSH2 0x696 JUMPI DUP1 PUSH4 0xFE09B5EC EQ PUSH2 0x602 JUMPI PUSH4 0xFF50E12F EQ PUSH2 0x1C1 JUMPI PUSH1 0x0 DUP1 REVERT JUMPDEST CALLVALUE PUSH2 0x5FD JUMPI PUSH1 0xA0 CALLDATASIZE PUSH1 0x3 NOT ADD SLT PUSH2 0x5FD JUMPI PUSH1 0x1 PUSH1 0x1 PUSH1 0x40 SHL SUB PUSH1 0x4 CALLDATALOAD DUP2 DUP2 GT PUSH2 0x5FD JUMPI PUSH2 0x1F2 SWAP1 CALLDATASIZE SWAP1 PUSH1 0x4 ADD PUSH2 0x2B22 JUMP JUMPDEST PUSH1 0x24 SWAP1 DUP2 CALLDATALOAD DUP4 DUP2 GT PUSH2 0x5FD JUMPI PUSH2 0x20C SWAP1 CALLDATASIZE SWAP1 PUSH1 0x4 ADD PUSH2 0x2B22 JUMP JUMPDEST SWAP3 PUSH2 0x215 PUSH2 0x2D26 JUMP JUMPDEST DUP2 MLOAD ISZERO PUSH2 0x5C1 JUMPI DUP4 MLOAD ISZERO PUSH2 0x57D JUMPI PUSH1 0xC SLOAD SWAP3 PUSH2 0x230 DUP5 PUSH2 0x2DAC JUMP JUMPDEST PUSH1 0xC SSTORE DUP4 PUSH1 0x0 MSTORE PUSH1 0x20 SWAP5 PUSH1 0x5 DUP7 MSTORE PUSH1 0x40 PUSH1 0x0 KECCAK256 SWAP1 DUP6 DUP3 SSTORE PUSH1 0x1 SWAP4 DUP5 DUP4 ADD DUP7 MLOAD SWAP1 DUP3 DUP3 GT PUSH2 0x4C9 JUMPI PUSH2 0x261 DUP2 SLOAD PUSH2 0x2BAC JUMP JUMPDEST SWAP2 PUSH1 0x1F SWAP3 DUP12 DUP5 DUP3 GT PUSH2 0x54E JUMPI JUMPDEST POP POP DUP1 DUP12 DUP5 DUP3 GT PUSH1 0x1 EQ PUSH2 0x4E9 JUMPI PUSH1 0x0 SWAP2 PUSH2 0x4DE JUMPI JUMPDEST POP PUSH1 0x0 NOT PUSH1 0x3 DUP4 SWAP1 SHL SHR NOT AND SWAP1 DUP9 SHL OR SWAP1 SSTORE JUMPDEST PUSH1 0x2 DUP5 ADD SWAP3 DUP1 MLOAD SWAP3 DUP4 GT PUSH2 0x4C9 JUMPI PUSH2 0x2AF DUP5 SLOAD PUSH2 0x2BAC JUMP JUMPDEST DUP11 DUP4 DUP3 GT PUSH2 0x490 JUMPI JUMPDEST POP POP DUP10 SWAP2 DUP4 GT PUSH1 0x1 EQ PUSH2 0x428 JUMPI PUSH1 0xE SWAP5 SWAP4 SWAP3 SWAP2 PUSH1 0x0 SWAP2 DUP4 PUSH2 0x41D JUMPI JUMPDEST POP POP PUSH1 0x0 NOT PUSH1 0x3 DUP4 SWAP1 SHL SHR NOT AND SWAP1 DUP7 SHL OR SWAP1 SSTORE JUMPDEST PUSH1 0x3 DUP2 ADD PUSH2 0xFFFF NOT SWAP1 DUP6 DUP3 DUP3 SLOAD AND OR SWAP1 SSTORE PUSH1 0x0 PUSH1 0x40 MLOAD PUSH2 0x307 DUP2 PUSH2 0x2AE6 JUMP JUMPDEST MSTORE PUSH1 0x4 DUP3 ADD DUP1 SLOAD PUSH1 0x0 DUP3 SSTORE DUP1 PUSH2 0x402 JUMPI JUMPDEST POP POP PUSH1 0x44 CALLDATALOAD PUSH1 0x9 DUP4 ADD SSTORE PUSH1 0x64 CALLDATALOAD PUSH1 0xA DUP4 ADD SSTORE PUSH1 0x84 CALLDATALOAD PUSH1 0xB DUP4 ADD SSTORE PUSH1 0xC DUP3 ADD SWAP1 DUP2 SLOAD AND SWAP1 SSTORE PUSH1 0x0 PUSH1 0xD DUP3 ADD SSTORE ADD DUP3 PUSH1 0xFF NOT DUP3 SLOAD AND OR SWAP1 SSTORE PUSH1 0xA SLOAD SWAP2 PUSH1 0x1 PUSH1 0x40 SHL DUP4 LT ISZERO PUSH2 0x3ED JUMPI DUP3 ADD DUP1 PUSH1 0xA SSTORE DUP3 LT ISZERO PUSH2 0x3D9 JUMPI POP PUSH2 0x3CE DUP4 SWAP3 DUP4 PUSH32 0x52BE7C4E77B4DE76B7607D621492061FE13B58597E72DFB5E51AB8F6187ED141 SWAP4 PUSH1 0xA PUSH1 0x0 MSTORE PUSH32 0xC65A7BB8D6351C1CF70C95A316CC6A92839C986682D98BC35F958F4883F9D2A8 ADD SSTORE PUSH1 0x40 MLOAD SWAP2 DUP3 SWAP2 DUP8 DUP4 MSTORE DUP8 DUP4 ADD SWAP1 PUSH2 0x2C8C JUMP JUMPDEST SUB SWAP1 LOG2 PUSH1 0x40 MLOAD SWAP1 DUP2 MSTORE RETURN JUMPDEST PUSH4 0x4E487B71 PUSH1 0xE0 SHL PUSH1 0x0 SWAP1 DUP2 MSTORE PUSH1 0x32 PUSH1 0x4 MSTORE REVERT JUMPDEST POP PUSH4 0x4E487B71 PUSH1 0xE0 SHL PUSH1 0x0 SWAP1 DUP2 MSTORE PUSH1 0x41 PUSH1 0x4 MSTORE REVERT JUMPDEST PUSH2 0x416 SWAP2 PUSH1 0x0 MSTORE DUP10 PUSH1 0x0 KECCAK256 SWAP1 DUP2 ADD SWAP1 PUSH2 0x2D95 JUMP JUMPDEST CODESIZE DUP1 PUSH2 0x318 JUMP JUMPDEST ADD MLOAD SWAP1 POP CODESIZE DUP1 PUSH2 0x2D4 JUMP JUMPDEST SWAP4 SWAP3 SWAP2 DUP7 SWAP2 PUSH1 0x1F NOT DUP3 AND SWAP1 DUP5 PUSH1 0x0 MSTORE DUP12 PUSH1 0x0 KECCAK256 SWAP2 PUSH1 0x0 JUMPDEST DUP14 DUP3 DUP3 LT PUSH2 0x47A JUMPI POP POP SWAP7 DUP4 PUSH1 0xE SWAP9 LT PUSH2 0x461 JUMPI JUMPDEST POP POP POP DUP2 SHL ADD SWAP1 SSTORE PUSH2 0x2E8 JUMP JUMPDEST ADD MLOAD PUSH1 0x0 NOT PUSH1 0xF8 DUP5 PUSH1 0x3 SHL AND SHR NOT AND SWAP1 SSTORE CODESIZE DUP1 DUP1 PUSH2 0x454 JUMP JUMPDEST DUP4 DUP11 ADD MLOAD DUP6 SSTORE DUP12 SWAP7 SWAP1 SWAP5 ADD SWAP4 SWAP3 DUP4 ADD SWAP3 ADD PUSH2 0x43F JUMP JUMPDEST PUSH2 0x4B9 SWAP2 DUP7 PUSH1 0x0 MSTORE DUP5 DUP3 PUSH1 0x0 KECCAK256 SWAP2 DUP2 DUP9 ADD PUSH1 0x5 SHR DUP4 ADD SWAP4 DUP9 LT PUSH2 0x4C0 JUMPI JUMPDEST ADD PUSH1 0x5 SHR ADD SWAP1 PUSH2 0x2D95 JUMP JUMPDEST CODESIZE DUP11 PUSH2 0x2B8 JUMP JUMPDEST SWAP3 POP DUP2 SWAP3 PUSH2 0x4AE JUMP JUMPDEST DUP6 PUSH4 0x4E487B71 PUSH1 0xE0 SHL PUSH1 0x0 MSTORE PUSH1 0x41 PUSH1 0x4 MSTORE PUSH1 0x0 REVERT JUMPDEST SWAP1 POP DUP10 ADD MLOAD CODESIZE PUSH2 0x284 JUMP JUMPDEST PUSH1 0x0 DUP5 DUP2 MSTORE DUP14 DUP2 KECCAK256 DUP12 SWAP5 POP SWAP2 SWAP1 PUSH1 0x1F NOT DUP5 AND SWAP1 DUP16 DUP15 JUMPDEST DUP4 DUP4 LT PUSH2 0x535 JUMPI POP POP POP DUP4 GT PUSH2 0x51C JUMPI JUMPDEST POP POP DUP2 SHL ADD SWAP1 SSTORE PUSH2 0x297 JUMP JUMPDEST DUP12 ADD MLOAD PUSH1 0x0 NOT PUSH1 0xF8 DUP5 PUSH1 0x3 SHL AND SHR NOT AND SWAP1 SSTORE CODESIZE DUP1 PUSH2 0x510 JUMP JUMPDEST DUP5 ADD MLOAD DUP6 SSTORE DUP14 SWAP7 SWAP1 SWAP5 ADD SWAP4 SWAP3 DUP4 ADD SWAP3 SWAP1 DUP2 ADD SWAP1 DUP15 PUSH2 0x4FF JUMP JUMPDEST PUSH2 0x576 SWAP2 DUP5 PUSH1 0x0 MSTORE DUP6 DUP3 PUSH1 0x0 KECCAK256 SWAP2 DUP2 DUP7 ADD PUSH1 0x5 SHR DUP4 ADD SWAP4 DUP7 LT PUSH2 0x4C0 JUMPI ADD PUSH1 0x5 SHR ADD SWAP1 PUSH2 0x2D95 JUMP JUMPDEST CODESIZE DUP12 PUSH2 0x26E JUMP JUMPDEST PUSH1 0x40 MLOAD PUSH3 0x461BCD PUSH1 0xE5 SHL DUP2 MSTORE PUSH1 0x20 PUSH1 0x4 DUP3 ADD MSTORE PUSH1 0x1B DUP2 DUP6 ADD MSTORE PUSH32 0x4465736372697074696F6E2063616E6E6F7420626520656D7074790000000000 PUSH1 0x44 DUP3 ADD MSTORE PUSH1 0x64 SWAP1 REVERT JUMPDEST PUSH1 0x40 MLOAD PUSH3 0x461BCD PUSH1 0xE5 SHL DUP2 MSTORE PUSH1 0x20 PUSH1 0x4 DUP3 ADD MSTORE PUSH1 0x15 DUP2 DUP6 ADD MSTORE PUSH21 0x5469746C652063616E6E6F7420626520656D707479 PUSH1 0x58 SHL PUSH1 0x44 DUP3 ADD MSTORE PUSH1 0x64 SWAP1 REVERT JUMPDEST PUSH1 0x0 DUP1 REVERT JUMPDEST CALLVALUE PUSH2 0x5FD JUMPI PUSH1 0x0 CALLDATASIZE PUSH1 0x3 NOT ADD SLT PUSH2 0x5FD JUMPI PUSH1 0x40 MLOAD DUP1 PUSH1 0x6 SLOAD SWAP2 DUP3 DUP2 MSTORE PUSH1 0x20 DUP1 SWAP2 ADD SWAP3 PUSH1 0x6 PUSH1 0x0 MSTORE PUSH32 0xF652222313E28459528D920B65115C16C04F3EFC82AAEDC97BE59F3F377C0D3F SWAP2 PUSH1 0x0 SWAP1 JUMPDEST DUP3 DUP3 LT PUSH2 0x676 JUMPI PUSH2 0x672 DUP6 PUSH2 0x666 DUP2 DUP10 SUB DUP3 PUSH2 0x2B01 JUMP JUMPDEST PUSH1 0x40 MLOAD SWAP2 DUP3 SWAP2 DUP3 PUSH2 0x2CE2 JUMP JUMPDEST SUB SWAP1 RETURN JUMPDEST DUP4 SLOAD PUSH1 0x1 PUSH1 0x1 PUSH1 0xA0 SHL SUB AND DUP7 MSTORE SWAP5 DUP6 ADD SWAP5 PUSH1 0x1 SWAP4 DUP5 ADD SWAP4 SWAP1 SWAP2 ADD SWAP1 PUSH2 0x64F JUMP JUMPDEST CALLVALUE PUSH2 0x5FD JUMPI PUSH1 0x20 CALLDATASIZE PUSH1 0x3 NOT ADD SLT PUSH2 0x5FD JUMPI PUSH1 0x4 CALLDATALOAD PUSH1 0x7 SLOAD DUP2 LT ISZERO PUSH2 0x5FD JUMPI PUSH2 0x6BF PUSH1 0x20 SWAP2 PUSH2 0x2A41 JUMP JUMPDEST SWAP1 SLOAD PUSH1 0x40 MLOAD SWAP2 PUSH1 0x3 SHL SHR DUP2 MSTORE RETURN JUMPDEST CALLVALUE PUSH2 0x5FD JUMPI PUSH1 0x20 CALLDATASIZE PUSH1 0x3 NOT ADD SLT PUSH2 0x5FD JUMPI PUSH2 0x6E6 PUSH2 0x2A2B JUMP JUMPDEST PUSH2 0x6EE PUSH2 0x2D26 JUMP JUMPDEST PUSH1 0x1 PUSH1 0x1 PUSH1 0xA0 SHL SUB SWAP1 DUP2 AND SWAP1 DUP2 ISZERO PUSH2 0x73D JUMPI PUSH1 0x0 SLOAD DUP3 PUSH1 0x1 PUSH1 0x1 PUSH1 0x60 SHL SUB PUSH1 0xA0 SHL DUP3 AND OR PUSH1 0x0 SSTORE AND PUSH32 0x8BE0079C531659141344CD1FD0A4F28419497F9722A3DAAFE3B4186F6B6457E0 PUSH1 0x0 DUP1 LOG3 STOP JUMPDEST PUSH1 0x40 MLOAD PUSH3 0x461BCD PUSH1 0xE5 SHL DUP2 MSTORE PUSH1 0x20 PUSH1 0x4 DUP3 ADD MSTORE PUSH1 0x26 PUSH1 0x24 DUP3 ADD MSTORE PUSH32 0x4F776E61626C653A206E6577206F776E657220697320746865207A65726F2061 PUSH1 0x44 DUP3 ADD MSTORE PUSH6 0x646472657373 PUSH1 0xD0 SHL PUSH1 0x64 DUP3 ADD MSTORE PUSH1 0x84 SWAP1 REVERT JUMPDEST CALLVALUE PUSH2 0x5FD JUMPI PUSH1 0x40 CALLDATASIZE PUSH1 0x3 NOT ADD SLT PUSH2 0x5FD JUMPI PUSH1 0x4 CALLDATALOAD PUSH1 0x1 PUSH1 0x1 PUSH1 0x40 SHL SUB DUP2 GT PUSH2 0x5FD JUMPI PUSH2 0x7C1 SWAP1 CALLDATASIZE SWAP1 PUSH1 0x4 ADD PUSH2 0x2B22 JUMP JUMPDEST SWAP1 PUSH1 0x24 CALLDATALOAD PUSH1 0x1 PUSH1 0x1 PUSH1 0x40 SHL SUB DUP2 GT PUSH2 0x5FD JUMPI PUSH2 0x7E1 SWAP1 CALLDATASIZE SWAP1 PUSH1 0x4 ADD PUSH2 0x2B22 JUMP JUMPDEST SWAP2 CALLER PUSH1 0x0 MSTORE PUSH1 0x3 PUSH1 0x20 MSTORE PUSH1 0xFF PUSH1 0x3 PUSH1 0x40 PUSH1 0x0 KECCAK256 ADD SLOAD AND ISZERO PUSH2 0xCAD JUMPI DUP1 MLOAD ISZERO PUSH2 0xC68 JUMPI DUP3 MLOAD ISZERO PUSH2 0xC2A JUMPI PUSH1 0xB SLOAD SWAP2 PUSH2 0x817 DUP4 PUSH2 0x2DAC JUMP JUMPDEST PUSH1 0xB SSTORE PUSH1 0x40 MLOAD SWAP1 PUSH2 0x827 DUP3 PUSH2 0x2ACA JUMP JUMPDEST DUP4 DUP3 MSTORE CALLER PUSH1 0x20 DUP4 ADD MSTORE DUP3 PUSH1 0x40 DUP4 ADD MSTORE DUP5 PUSH1 0x60 DUP4 ADD MSTORE PUSH1 0x0 PUSH1 0x80 DUP4 ADD MSTORE PUSH1 0x0 PUSH1 0xA0 DUP4 ADD MSTORE PUSH1 0x0 PUSH1 0xC0 DUP4 ADD MSTORE PUSH1 0x1 DUP2 DUP4 ADD MSTORE DUP4 PUSH1 0x0 MSTORE PUSH1 0x4 PUSH1 0x20 MSTORE PUSH1 0x40 PUSH1 0x0 KECCAK256 DUP3 MLOAD DUP2 SSTORE PUSH1 0x1 DUP2 ADD PUSH1 0x1 DUP1 PUSH1 0xA0 SHL SUB PUSH1 0x20 DUP6 ADD MLOAD AND PUSH1 0x1 PUSH1 0x1 PUSH1 0x60 SHL SUB PUSH1 0xA0 SHL DUP3 SLOAD AND OR SWAP1 SSTORE PUSH1 0x40 DUP4 ADD MLOAD DUP1 MLOAD SWAP1 PUSH1 0x1 PUSH1 0x1 PUSH1 0x40 SHL SUB DUP3 GT PUSH2 0xA9F JUMPI DUP2 SWAP1 PUSH2 0x8B0 PUSH1 0x2 DUP6 ADD SLOAD PUSH2 0x2BAC JUMP JUMPDEST PUSH1 0x1F DUP2 GT PUSH2 0xBF5 JUMPI JUMPDEST POP PUSH1 0x20 SWAP1 PUSH1 0x1F DUP4 GT PUSH1 0x1 EQ PUSH2 0xB83 JUMPI PUSH1 0x0 SWAP3 PUSH2 0xB78 JUMPI JUMPDEST POP POP DUP2 PUSH1 0x1 SHL SWAP2 PUSH1 0x0 NOT SWAP1 PUSH1 0x3 SHL SHR NOT AND OR PUSH1 0x2 DUP3 ADD SSTORE JUMPDEST PUSH1 0x60 DUP4 ADD MLOAD DUP1 MLOAD SWAP1 PUSH1 0x1 PUSH1 0x1 PUSH1 0x40 SHL SUB DUP3 GT PUSH2 0xA9F JUMPI PUSH2 0x90B PUSH1 0x3 DUP5 ADD SLOAD PUSH2 0x2BAC JUMP JUMPDEST PUSH1 0x1F DUP2 GT PUSH2 0xB38 JUMPI JUMPDEST POP PUSH1 0x20 SWAP1 PUSH1 0x1F DUP4 GT PUSH1 0x1 EQ PUSH2 0xAC0 JUMPI SWAP2 DUP1 PUSH2 0x999 SWAP7 SWAP6 SWAP5 SWAP3 PUSH1 0x6 SWAP5 PUSH1 0x0 SWAP3 PUSH2 0xAB5 JUMPI JUMPDEST POP POP DUP2 PUSH1 0x1 SHL SWAP2 PUSH1 0x0 NOT SWAP1 PUSH1 0x3 SHL SHR NOT AND OR PUSH1 0x3 DUP3 ADD SSTORE JUMPDEST PUSH1 0x80 DUP5 ADD MLOAD PUSH1 0x4 DUP3 ADD SSTORE PUSH1 0xA0 DUP5 ADD MLOAD PUSH1 0x5 DUP3 ADD SSTORE ADD SWAP2 PUSH2 0x981 PUSH1 0xC0 DUP3 ADD MLOAD ISZERO ISZERO DUP5 SWAP1 PUSH1 0xFF DUP1 NOT DUP4 SLOAD AND SWAP2 ISZERO ISZERO AND OR SWAP1 SSTORE JUMP JUMPDEST ADD MLOAD DUP2 SLOAD PUSH2 0xFF00 NOT AND SWAP1 ISZERO ISZERO PUSH1 0x8 SHL PUSH2 0xFF00 AND OR SWAP1 SSTORE JUMP JUMPDEST CALLER PUSH1 0x0 MSTORE PUSH1 0x3 PUSH1 0x20 MSTORE PUSH1 0x1 PUSH1 0x40 PUSH1 0x0 KECCAK256 ADD PUSH2 0x100 PUSH2 0xFF00 NOT DUP3 SLOAD AND OR SWAP1 SSTORE PUSH1 0x7 SLOAD PUSH1 0x1 PUSH1 0x40 SHL SWAP1 DUP2 DUP2 LT ISZERO PUSH2 0xA9F JUMPI DUP4 PUSH2 0x9DC DUP3 PUSH1 0x1 PUSH2 0x9F5 SWAP5 ADD PUSH1 0x7 SSTORE PUSH2 0x2A41 JUMP JUMPDEST SWAP1 SWAP2 SWAP1 DUP3 SLOAD SWAP1 PUSH1 0x3 SHL SWAP2 DUP3 SHL SWAP2 PUSH1 0x0 NOT SWAP1 SHL NOT AND OR SWAP1 SSTORE JUMP JUMPDEST PUSH1 0x9 SLOAD SWAP1 DUP2 LT ISZERO PUSH2 0xA9F JUMPI PUSH1 0x1 DUP2 ADD DUP1 PUSH1 0x9 SSTORE DUP2 LT ISZERO PUSH2 0xA89 JUMPI PUSH32 0x8EE8BA30B5C49EEA6C2FDCD6424EB5FBE1D9CE7FBF823596AE760EC67778E842 SWAP2 DUP4 PUSH2 0xA75 SWAP3 PUSH1 0x9 PUSH1 0x0 MSTORE PUSH32 0x6E1540171B6C0C960B71A7020D9F60077F6AF931A8BBF590DA0223DACF75C7AF ADD SSTORE PUSH2 0xA84 PUSH1 0x40 MLOAD SWAP3 DUP4 SWAP3 PUSH1 0x40 DUP5 MSTORE PUSH1 0x40 DUP5 ADD SWAP1 PUSH2 0x2C8C JUMP JUMPDEST DUP3 DUP2 SUB PUSH1 0x20 DUP5 ADD MSTORE CALLER SWAP7 PUSH2 0x2C8C JUMP JUMPDEST SUB SWAP1 LOG3 STOP JUMPDEST PUSH4 0x4E487B71 PUSH1 0xE0 SHL PUSH1 0x0 MSTORE PUSH1 0x32 PUSH1 0x4 MSTORE PUSH1 0x24 PUSH1 0x0 REVERT JUMPDEST PUSH4 0x4E487B71 PUSH1 0xE0 SHL PUSH1 0x0 MSTORE PUSH1 0x41 PUSH1 0x4 MSTORE PUSH1 0x24 PUSH1 0x0 REVERT JUMPDEST ADD MLOAD SWAP1 POP DUP11 DUP1 PUSH2 0x937 JUMP JUMPDEST SWAP1 PUSH1 0x3 DUP5 ADD PUSH1 0x0 MSTORE PUSH1 0x20 PUSH1 0x0 KECCAK256 SWAP2 PUSH1 0x0 JUMPDEST PUSH1 0x1F NOT DUP6 AND DUP2 LT PUSH2 0xB20 JUMPI POP SWAP3 PUSH2 0x999 SWAP7 SWAP6 SWAP5 SWAP3 PUSH1 0x1 SWAP3 PUSH1 0x6 SWAP6 DUP4 PUSH1 0x1F NOT DUP2 AND LT PUSH2 0xB07 JUMPI JUMPDEST POP POP POP DUP2 SHL ADD PUSH1 0x3 DUP3 ADD SSTORE PUSH2 0x94F JUMP JUMPDEST ADD MLOAD PUSH1 0x0 NOT PUSH1 0xF8 DUP5 PUSH1 0x3 SHL AND SHR NOT AND SWAP1 SSTORE DUP11 DUP1 DUP1 PUSH2 0xAF7 JUMP JUMPDEST SWAP2 SWAP3 PUSH1 0x20 PUSH1 0x1 DUP2 SWAP3 DUP7 DUP6 ADD MLOAD DUP2 SSTORE ADD SWAP5 ADD SWAP3 ADD PUSH2 0xAD1 JUMP JUMPDEST PUSH2 0xB68 SWAP1 PUSH1 0x3 DUP6 ADD PUSH1 0x0 MSTORE PUSH1 0x20 PUSH1 0x0 KECCAK256 PUSH1 0x1F DUP6 ADD PUSH1 0x5 SHR DUP2 ADD SWAP2 PUSH1 0x20 DUP7 LT PUSH2 0xB6E JUMPI JUMPDEST PUSH1 0x1F ADD PUSH1 0x5 SHR ADD SWAP1 PUSH2 0x2D95 JUMP JUMPDEST DUP9 PUSH2 0x914 JUMP JUMPDEST SWAP1 SWAP2 POP DUP2 SWAP1 PUSH2 0xB5B JUMP JUMPDEST ADD MLOAD SWAP1 POP DUP9 DUP1 PUSH2 0x8D0 JUMP JUMPDEST SWAP3 POP PUSH1 0x2 DUP5 ADD PUSH1 0x0 MSTORE PUSH1 0x20 PUSH1 0x0 KECCAK256 SWAP1 PUSH1 0x0 SWAP4 JUMPDEST PUSH1 0x1F NOT DUP5 AND DUP6 LT PUSH2 0xBDA JUMPI PUSH1 0x1 SWAP5 POP DUP4 PUSH1 0x1F NOT DUP2 AND LT PUSH2 0xBC1 JUMPI JUMPDEST POP POP POP DUP2 SHL ADD PUSH1 0x2 DUP3 ADD SSTORE PUSH2 0x8E8 JUMP JUMPDEST ADD MLOAD PUSH1 0x0 NOT PUSH1 0xF8 DUP5 PUSH1 0x3 SHL AND SHR NOT AND SWAP1 SSTORE DUP9 DUP1 DUP1 PUSH2 0xBB1 JUMP JUMPDEST DUP2 DUP2 ADD MLOAD DUP4 SSTORE PUSH1 0x20 SWAP5 DUP6 ADD SWAP5 PUSH1 0x1 SWAP1 SWAP4 ADD SWAP3 SWAP1 SWAP2 ADD SWAP1 PUSH2 0xB96 JUMP JUMPDEST PUSH2 0xC24 SWAP1 PUSH1 0x2 DUP7 ADD PUSH1 0x0 MSTORE PUSH1 0x20 PUSH1 0x0 KECCAK256 PUSH1 0x1F DUP6 ADD PUSH1 0x5 SHR DUP2 ADD SWAP2 PUSH1 0x20 DUP7 LT PUSH2 0xB6E JUMPI PUSH1 0x1F ADD PUSH1 0x5 SHR ADD SWAP1 PUSH2 0x2D95 JUMP JUMPDEST DUP10 PUSH2 0x8B9 JUMP JUMPDEST PUSH1 0x40 MLOAD PUSH3 0x461BCD PUSH1 0xE5 SHL DUP2 MSTORE PUSH1 0x20 PUSH1 0x4 DUP3 ADD MSTORE PUSH1 0x16 PUSH1 0x24 DUP3 ADD MSTORE PUSH22 0x53796D626F6C2063616E6E6F7420626520656D707479 PUSH1 0x50 SHL PUSH1 0x44 DUP3 ADD MSTORE PUSH1 0x64 SWAP1 REVERT JUMPDEST PUSH1 0x40 MLOAD PUSH3 0x461BCD PUSH1 0xE5 SHL DUP2 MSTORE PUSH1 0x20 PUSH1 0x4 DUP3 ADD MSTORE PUSH1 0x1A PUSH1 0x24 DUP3 ADD MSTORE PUSH32 0x5061727479206E616D652063616E6E6F7420626520656D707479000000000000 PUSH1 0x44 DUP3 ADD MSTORE PUSH1 0x64 SWAP1 REVERT JUMPDEST PUSH1 0x40 MLOAD PUSH3 0x461BCD PUSH1 0xE5 SHL DUP2 MSTORE PUSH1 0x20 PUSH1 0x4 DUP3 ADD MSTORE PUSH1 0x13 PUSH1 0x24 DUP3 ADD MSTORE PUSH19 0x155CD95C881B9BDD081C9959DA5CDD195C9959 PUSH1 0x6A SHL PUSH1 0x44 DUP3 ADD MSTORE PUSH1 0x64 SWAP1 REVERT JUMPDEST CALLVALUE PUSH2 0x5FD JUMPI PUSH1 0x20 CALLDATASIZE PUSH1 0x3 NOT ADD SLT PUSH2 0x5FD JUMPI PUSH1 0x4 CALLDATALOAD DUP1 PUSH1 0x0 MSTORE PUSH1 0x5 PUSH1 0x20 MSTORE PUSH1 0xFF PUSH2 0xD1A DUP2 PUSH1 0xE PUSH1 0x40 PUSH1 0x0 KECCAK256 ADD SLOAD AND PUSH2 0x2E30 JUMP JUMPDEST DUP2 PUSH1 0x0 MSTORE PUSH1 0x5 PUSH1 0x20 MSTORE PUSH1 0x40 PUSH1 0x0 KECCAK256 PUSH1 0xC DUP2 ADD SWAP3 DUP4 SLOAD SWAP1 DUP4 DUP3 PUSH1 0x8 SHR AND ISZERO DUP1 PUSH2 0xE12 JUMPI JUMPDEST PUSH2 0xD43 JUMPI STOP JUMPDEST DUP3 PUSH1 0x3 DUP6 SWAP5 ADD SWAP3 DUP4 SLOAD DUP6 DUP2 AND ISZERO PUSH2 0xDCF JUMPI JUMPDEST POP POP DUP3 SLOAD DUP5 DUP2 AND PUSH2 0xD90 JUMPI JUMPDEST POP POP POP SLOAD PUSH1 0x8 SHR AND SWAP1 DUP2 PUSH2 0xD84 JUMPI JUMPDEST POP PUSH2 0xD77 JUMPI STOP JUMPDEST DUP1 SLOAD PUSH1 0xFF NOT AND PUSH1 0x1 OR SWAP1 SSTORE STOP JUMPDEST SWAP1 POP DUP2 SLOAD AND ISZERO DUP3 PUSH2 0xD70 JUMP JUMPDEST PUSH2 0x100 SWAP1 PUSH2 0xFFFF NOT AND OR DUP4 SSTORE PUSH1 0x8 TIMESTAMP SWAP2 ADD SSTORE PUSH32 0x562CD572B2BA3B666CD989FC4CA98419EC81E75F04528DF9D9D76FDB7807EE71 PUSH1 0x0 DUP1 LOG2 DUP5 DUP1 DUP1 PUSH2 0xD61 JUMP JUMPDEST PUSH1 0xFF NOT AND PUSH1 0x1 OR DUP5 SSTORE PUSH2 0xFF00 NOT AND DUP7 SSTORE TIMESTAMP PUSH1 0x7 DUP3 ADD SSTORE DUP2 PUSH32 0x159EEE87222A0489C529F2153C26AD65D718F2CC33EBAA8D399D1DD5B39FACAA PUSH1 0x0 DUP1 LOG2 DUP7 DUP1 PUSH2 0xD55 JUMP JUMPDEST POP DUP4 PUSH1 0x3 DUP5 ADD SLOAD PUSH1 0x8 SHR AND ISZERO PUSH2 0xD3D JUMP JUMPDEST CALLVALUE PUSH2 0x5FD JUMPI PUSH1 0x20 DUP1 PUSH1 0x3 NOT CALLDATASIZE ADD SLT PUSH2 0x5FD JUMPI PUSH1 0x4 CALLDATALOAD DUP1 PUSH1 0x0 MSTORE PUSH1 0x5 DUP3 MSTORE PUSH2 0xE54 PUSH1 0xFF PUSH1 0xE PUSH1 0x40 PUSH1 0x0 KECCAK256 ADD SLOAD AND PUSH2 0x2E30 JUMP JUMPDEST DUP1 PUSH1 0x0 MSTORE PUSH1 0x5 DUP3 MSTORE PUSH1 0xFF PUSH1 0x3 PUSH1 0x40 PUSH1 0x0 KECCAK256 ADD SLOAD PUSH1 0x8 SHR AND ISZERO PUSH2 0xF1F JUMPI PUSH1 0x0 MSTORE PUSH1 0x5 DUP2 MSTORE PUSH2 0xE87 PUSH1 0x4 PUSH1 0x40 PUSH1 0x0 KECCAK256 ADD PUSH2 0x2EFE JUMP JUMPDEST DUP1 MLOAD PUSH2 0xE92 DUP2 PUSH2 0x2D7E JUMP JUMPDEST SWAP1 PUSH2 0xEA0 PUSH1 0x40 MLOAD SWAP3 DUP4 PUSH2 0x2B01 JUMP JUMPDEST DUP1 DUP3 MSTORE PUSH2 0xEAF PUSH1 0x1F NOT SWAP2 PUSH2 0x2D7E JUMP JUMPDEST ADD CALLDATASIZE DUP5 DUP4 ADD CALLDATACOPY PUSH1 0x0 JUMPDEST DUP3 MLOAD DUP2 LT ISZERO PUSH2 0xEF5 JUMPI DUP1 PUSH2 0xECF PUSH2 0xEF0 SWAP3 DUP6 PUSH2 0x2F4D JUMP JUMPDEST MLOAD PUSH1 0x0 MSTORE PUSH1 0x4 DUP6 MSTORE PUSH1 0x4 PUSH1 0x40 PUSH1 0x0 KECCAK256 ADD SLOAD PUSH2 0xEEA DUP3 DUP6 PUSH2 0x2F4D JUMP JUMPDEST MSTORE PUSH2 0x2DAC JUMP JUMPDEST PUSH2 0xEB8 JUMP JUMPDEST POP PUSH2 0xF12 SWAP3 PUSH2 0x672 SWAP2 PUSH1 0x40 MLOAD SWAP5 DUP6 SWAP5 PUSH1 0x40 DUP7 MSTORE PUSH1 0x40 DUP7 ADD SWAP1 PUSH2 0x2B78 JUMP JUMPDEST SWAP2 DUP5 DUP4 SUB SWAP1 DUP6 ADD MSTORE PUSH2 0x2B78 JUMP JUMPDEST PUSH1 0x40 MLOAD PUSH3 0x461BCD PUSH1 0xE5 SHL DUP2 MSTORE PUSH1 0x4 DUP2 ADD DUP4 SWAP1 MSTORE PUSH1 0x12 PUSH1 0x24 DUP3 ADD MSTORE PUSH18 0x115B1958DD1A5BDB881B9BDD08195B991959 PUSH1 0x72 SHL PUSH1 0x44 DUP3 ADD MSTORE PUSH1 0x64 SWAP1 REVERT JUMPDEST CALLVALUE PUSH2 0x5FD JUMPI PUSH1 0x0 CALLDATASIZE PUSH1 0x3 NOT ADD SLT PUSH2 0x5FD JUMPI PUSH1 0x40 MLOAD DUP1 PUSH1 0x8 SLOAD SWAP2 DUP3 DUP2 MSTORE PUSH1 0x20 DUP1 SWAP2 ADD SWAP3 PUSH1 0x8 PUSH1 0x0 MSTORE PUSH32 0xF3F7A9FE364FAAB93B216DA50A3214154F22A0A2B415B23A84C8169E8B636EE3 SWAP2 PUSH1 0x0 SWAP1 JUMPDEST DUP3 DUP3 LT PUSH2 0xFBD JUMPI PUSH2 0x672 DUP6 PUSH2 0x666 DUP2 DUP10 SUB DUP3 PUSH2 0x2B01 JUMP JUMPDEST DUP4 SLOAD PUSH1 0x1 PUSH1 0x1 PUSH1 0xA0 SHL SUB AND DUP7 MSTORE SWAP5 DUP6 ADD SWAP5 PUSH1 0x1 SWAP4 DUP5 ADD SWAP4 SWAP1 SWAP2 ADD SWAP1 PUSH2 0xFA6 JUMP JUMPDEST CALLVALUE PUSH2 0x5FD JUMPI PUSH1 0x40 CALLDATASIZE PUSH1 0x3 NOT ADD SLT PUSH2 0x5FD JUMPI PUSH1 0x4 CALLDATALOAD PUSH2 0xFF9 PUSH2 0x2A15 JUMP JUMPDEST SWAP1 DUP1 PUSH1 0x0 MSTORE PUSH1 0x5 PUSH1 0x20 MSTORE PUSH2 0x1017 PUSH1 0xFF PUSH1 0xE PUSH1 0x40 PUSH1 0x0 KECCAK256 ADD SLOAD AND PUSH2 0x2E30 JUMP JUMPDEST PUSH1 0x0 MSTORE PUSH1 0x5 PUSH1 0x20 MSTORE PUSH1 0x6 PUSH1 0x40 PUSH1 0x0 KECCAK256 ADD SWAP1 PUSH1 0x1 DUP1 PUSH1 0xA0 SHL SUB AND PUSH1 0x0 MSTORE PUSH1 0x20 MSTORE PUSH1 0x20 PUSH1 0xFF PUSH1 0x40 PUSH1 0x0 KECCAK256 SLOAD AND PUSH1 0x40 MLOAD SWAP1 ISZERO ISZERO DUP2 MSTORE RETURN JUMPDEST CALLVALUE PUSH2 0x5FD JUMPI PUSH1 0x20 DUP1 PUSH1 0x3 NOT CALLDATASIZE ADD SLT PUSH2 0x5FD JUMPI PUSH2 0x1065 PUSH2 0x2A2B JUMP JUMPDEST SWAP1 PUSH2 0x106E PUSH2 0x2D26 JUMP JUMPDEST PUSH1 0x1 DUP1 PUSH1 0xA0 SHL SUB DUP1 SWAP3 AND SWAP2 DUP3 PUSH1 0x0 MSTORE PUSH1 0x3 SWAP1 DUP2 DUP4 MSTORE PUSH1 0xFF DUP3 PUSH1 0x40 PUSH1 0x0 KECCAK256 ADD SLOAD AND ISZERO PUSH2 0x1215 JUMPI DUP4 PUSH1 0x0 MSTORE DUP2 DUP4 MSTORE PUSH1 0x1 SWAP3 PUSH1 0xFF DUP5 PUSH1 0x40 PUSH1 0x0 KECCAK256 ADD SLOAD PUSH1 0x10 SHR AND PUSH2 0x11D9 JUMPI PUSH1 0x0 DUP6 DUP2 MSTORE SWAP1 DUP4 SWAP1 MSTORE PUSH1 0x40 DUP2 KECCAK256 DUP5 ADD DUP1 SLOAD PUSH3 0xFF00FF NOT AND PUSH3 0x10001 OR SWAP1 SSTORE DUP4 JUMPDEST PUSH2 0x10FC JUMPI JUMPDEST DUP5 PUSH32 0xFBB0A472171A6EB950C8A87421215268A1B2DF816DA0A48E920E72ADE27CFCF7 PUSH1 0x0 DUP1 LOG2 STOP JUMPDEST PUSH1 0x6 DUP1 SLOAD DUP1 DUP4 LT ISZERO PUSH2 0x11D2 JUMPI DUP7 DUP5 PUSH2 0x1113 DUP6 PUSH2 0x2A78 JUMP JUMPDEST SWAP1 SLOAD SWAP1 DUP9 SHL SHR AND EQ PUSH2 0x1130 JUMPI POP POP PUSH2 0x112A SWAP1 PUSH2 0x2DAC JUMP JUMPDEST DUP4 PUSH2 0x10CF JUMP JUMPDEST SWAP4 SWAP5 POP SWAP3 PUSH1 0x0 NOT SWAP2 DUP3 DUP3 ADD SWAP2 DUP3 GT PUSH2 0x11BC JUMPI PUSH2 0x115F DUP5 PUSH2 0x1152 PUSH2 0x117E SWAP5 PUSH2 0x2A78 JUMP JUMPDEST SWAP1 SLOAD SWAP1 DUP10 SHL SHR AND SWAP2 PUSH2 0x2A78 JUMP JUMPDEST SWAP1 SWAP2 SWAP1 DUP3 SLOAD SWAP1 PUSH1 0x3 SHL SWAP2 PUSH1 0x1 DUP1 PUSH1 0xA0 SHL SUB DUP1 SWAP2 AND DUP4 SHL SWAP3 SHL NOT AND OR SWAP1 SSTORE JUMP JUMPDEST DUP3 SLOAD DUP1 ISZERO PUSH2 0x11A6 JUMPI ADD SWAP3 PUSH2 0x1191 DUP5 PUSH2 0x2A78 JUMP JUMPDEST DUP2 SWAP4 SWAP2 SLOAD SWAP3 SHL SHL NOT AND SWAP1 SSTORE SSTORE DUP2 DUP1 DUP1 DUP1 PUSH2 0x10D4 JUMP JUMPDEST PUSH4 0x4E487B71 PUSH1 0xE0 SHL PUSH1 0x0 MSTORE PUSH1 0x31 PUSH1 0x4 MSTORE PUSH1 0x24 PUSH1 0x0 REVERT JUMPDEST PUSH4 0x4E487B71 PUSH1 0xE0 SHL PUSH1 0x0 MSTORE PUSH1 0x11 PUSH1 0x4 MSTORE PUSH1 0x24 PUSH1 0x0 REVERT JUMPDEST POP POP PUSH2 0x10D4 JUMP JUMPDEST PUSH1 0x64 SWAP1 PUSH1 0x40 MLOAD SWAP1 PUSH3 0x461BCD PUSH1 0xE5 SHL DUP3 MSTORE PUSH1 0x4 DUP3 ADD MSTORE PUSH1 0x15 PUSH1 0x24 DUP3 ADD MSTORE PUSH21 0x155CD95C88185B1C9958591E48185C1C1C9BDD9959 PUSH1 0x5A SHL PUSH1 0x44 DUP3 ADD MSTORE REVERT JUMPDEST PUSH1 0x40 MLOAD PUSH3 0x461BCD PUSH1 0xE5 SHL DUP2 MSTORE PUSH1 0x4 DUP2 ADD DUP5 SWAP1 MSTORE PUSH1 0x13 PUSH1 0x24 DUP3 ADD MSTORE PUSH19 0x155CD95C88191BD95CC81B9BDD08195E1A5CDD PUSH1 0x6A SHL PUSH1 0x44 DUP3 ADD MSTORE PUSH1 0x64 SWAP1 REVERT JUMPDEST CALLVALUE PUSH2 0x5FD JUMPI PUSH2 0x125E CALLDATASIZE PUSH2 0x2CCC JUMP JUMPDEST SWAP1 CALLER PUSH1 0x0 MSTORE PUSH1 0x20 SWAP2 PUSH1 0x3 DUP4 MSTORE PUSH1 0x1 SWAP3 PUSH2 0x1283 PUSH1 0xFF DUP6 PUSH1 0x40 PUSH1 0x0 KECCAK256 ADD SLOAD PUSH1 0x10 SHR AND PUSH2 0x2EBE JUMP JUMPDEST DUP3 PUSH1 0x0 MSTORE PUSH1 0x5 SWAP1 DUP2 DUP2 MSTORE PUSH2 0x12A1 PUSH1 0xFF PUSH1 0xE PUSH1 0x40 PUSH1 0x0 KECCAK256 ADD SLOAD AND PUSH2 0x2E30 JUMP JUMPDEST DUP3 PUSH1 0x0 MSTORE PUSH1 0x4 DUP2 MSTORE PUSH2 0x12C0 PUSH1 0xFF PUSH1 0x6 PUSH1 0x40 PUSH1 0x0 KECCAK256 ADD SLOAD PUSH1 0x8 SHR AND PUSH2 0x2DE4 JUMP JUMPDEST PUSH1 0x2 DUP6 SLOAD EQ PUSH2 0x145E JUMPI PUSH1 0x2 DUP6 SSTORE DUP4 PUSH1 0x0 MSTORE DUP2 DUP2 MSTORE DUP2 PUSH1 0x40 PUSH1 0x0 KECCAK256 ADD CALLER PUSH1 0x0 MSTORE DUP2 MSTORE PUSH1 0xFF PUSH1 0x40 PUSH1 0x0 KECCAK256 SLOAD AND ISZERO PUSH2 0x1423 JUMPI DUP4 PUSH1 0x0 MSTORE DUP2 DUP2 MSTORE PUSH1 0x6 PUSH1 0x40 PUSH1 0x0 KECCAK256 ADD CALLER PUSH1 0x0 MSTORE DUP2 MSTORE PUSH1 0xFF PUSH1 0x40 PUSH1 0x0 KECCAK256 SLOAD AND PUSH2 0x13EF JUMPI DUP3 PUSH1 0x0 MSTORE PUSH1 0x4 DUP2 MSTORE DUP4 DUP3 PUSH1 0x40 PUSH1 0x0 KECCAK256 ADD SLOAD SUB PUSH2 0x13AB JUMPI DUP4 PUSH1 0x0 MSTORE DUP2 DUP2 MSTORE PUSH1 0x6 PUSH1 0x40 PUSH1 0x0 KECCAK256 ADD CALLER PUSH1 0x0 MSTORE DUP2 MSTORE PUSH1 0x40 PUSH1 0x0 KECCAK256 DUP6 PUSH1 0xFF NOT DUP3 SLOAD AND OR SWAP1 SSTORE DUP3 PUSH1 0x0 MSTORE PUSH1 0x4 DUP2 MSTORE PUSH1 0x4 PUSH1 0x40 PUSH1 0x0 KECCAK256 ADD PUSH2 0x1365 DUP2 SLOAD PUSH2 0x2DAC JUMP JUMPDEST SWAP1 SSTORE DUP4 PUSH1 0x0 MSTORE MSTORE PUSH1 0xD PUSH1 0x40 PUSH1 0x0 KECCAK256 ADD PUSH2 0x137E DUP2 SLOAD PUSH2 0x2DAC JUMP JUMPDEST SWAP1 SSTORE CALLER SWAP2 PUSH32 0x7FE1D4E6B34E228B5DC059FCDC037C71B216FB2417F47C171E505144A5E4F5FC PUSH1 0x0 DUP1 LOG4 DUP1 SSTORE STOP JUMPDEST PUSH1 0x64 SWAP1 PUSH1 0x40 MLOAD SWAP1 PUSH3 0x461BCD PUSH1 0xE5 SHL DUP3 MSTORE PUSH1 0x4 DUP3 ADD MSTORE PUSH1 0x1E PUSH1 0x24 DUP3 ADD MSTORE PUSH32 0x43616E646964617465206E6F7420696E207468697320656C656374696F6E0000 PUSH1 0x44 DUP3 ADD MSTORE REVERT JUMPDEST PUSH1 0x64 SWAP1 PUSH1 0x40 MLOAD SWAP1 PUSH3 0x461BCD PUSH1 0xE5 SHL DUP3 MSTORE PUSH1 0x4 DUP3 ADD MSTORE PUSH1 0xD PUSH1 0x24 DUP3 ADD MSTORE PUSH13 0x105B1C9958591E481D9BDD1959 PUSH1 0x9A SHL PUSH1 0x44 DUP3 ADD MSTORE REVERT JUMPDEST PUSH1 0x64 SWAP1 PUSH1 0x40 MLOAD SWAP1 PUSH3 0x461BCD PUSH1 0xE5 SHL DUP3 MSTORE PUSH1 0x4 DUP3 ADD MSTORE PUSH1 0x14 PUSH1 0x24 DUP3 ADD MSTORE PUSH20 0x4E6F7420656E726F6C6C656420746F20766F7465 PUSH1 0x60 SHL PUSH1 0x44 DUP3 ADD MSTORE REVERT JUMPDEST PUSH1 0x64 SWAP1 PUSH1 0x40 MLOAD SWAP1 PUSH3 0x461BCD PUSH1 0xE5 SHL DUP3 MSTORE PUSH1 0x4 DUP3 ADD MSTORE PUSH1 0x1F PUSH1 0x24 DUP3 ADD MSTORE PUSH32 0x5265656E7472616E637947756172643A207265656E7472616E742063616C6C00 PUSH1 0x44 DUP3 ADD MSTORE REVERT JUMPDEST CALLVALUE PUSH2 0x5FD JUMPI PUSH1 0x20 CALLDATASIZE PUSH1 0x3 NOT ADD SLT PUSH2 0x5FD JUMPI PUSH1 0x1 PUSH1 0x1 PUSH1 0xA0 SHL SUB PUSH2 0x14C3 PUSH2 0x2A2B JUMP JUMPDEST AND PUSH1 0x0 MSTORE PUSH1 0x3 PUSH1 0x20 MSTORE PUSH2 0x1501 PUSH1 0x40 PUSH1 0x0 KECCAK256 PUSH2 0x14DD DUP2 PUSH2 0x2BE6 JUMP JUMPDEST SWAP1 PUSH1 0xFF PUSH1 0x3 PUSH1 0x1 DUP4 ADD SLOAD SWAP3 ADD SLOAD AND PUSH1 0xFF PUSH1 0x40 MLOAD SWAP5 DUP6 SWAP5 PUSH1 0xA0 DUP7 MSTORE PUSH1 0xA0 DUP7 ADD SWAP1 PUSH2 0x2C8C JUMP JUMPDEST SWAP3 DUP2 DUP2 AND ISZERO ISZERO PUSH1 0x20 DUP7 ADD MSTORE DUP2 DUP2 PUSH1 0x8 SHR AND ISZERO ISZERO PUSH1 0x40 DUP7 ADD MSTORE PUSH1 0x10 SHR AND ISZERO ISZERO PUSH1 0x60 DUP5 ADD MSTORE ISZERO ISZERO PUSH1 0x80 DUP4 ADD MSTORE SUB SWAP1 RETURN JUMPDEST CALLVALUE PUSH2 0x5FD JUMPI PUSH1 0x20 CALLDATASIZE PUSH1 0x3 NOT ADD SLT PUSH2 0x5FD JUMPI PUSH1 0x4 CALLDATALOAD DUP1 PUSH1 0x0 MSTORE PUSH1 0x5 PUSH1 0x20 MSTORE PUSH1 0x40 PUSH1 0x0 KECCAK256 PUSH1 0xE ADD SLOAD PUSH1 0xFF AND PUSH2 0x1561 SWAP1 PUSH2 0x2E30 JUMP JUMPDEST PUSH1 0x0 MSTORE PUSH1 0x5 PUSH1 0x20 MSTORE PUSH1 0x40 PUSH1 0x0 KECCAK256 SWAP1 DUP2 SLOAD SWAP1 PUSH1 0x3 DUP4 ADD SLOAD SWAP3 PUSH1 0x7 DUP2 ADD SLOAD SWAP2 PUSH1 0x8 DUP3 ADD SLOAD PUSH1 0x9 DUP4 ADD SLOAD PUSH1 0xA DUP5 ADD SLOAD SWAP1 PUSH1 0xB DUP6 ADD SLOAD SWAP3 PUSH1 0xC DUP7 ADD SLOAD SWAP5 PUSH1 0xD DUP8 ADD SLOAD SWAP7 PUSH1 0x1 DUP2 ADD PUSH2 0x15AD SWAP1 PUSH2 0x2BE6 JUMP JUMPDEST SWAP11 PUSH2 0x15BA PUSH1 0x2 DUP4 ADD PUSH2 0x2BE6 JUMP JUMPDEST SWAP2 PUSH1 0x4 ADD PUSH2 0x15C7 SWAP1 PUSH2 0x2EFE JUMP JUMPDEST SWAP2 PUSH1 0x40 MLOAD SWAP13 DUP14 SWAP13 DUP14 MSTORE DUP13 PUSH2 0x1C0 PUSH1 0x20 DUP2 SWAP3 ADD MSTORE DUP14 ADD PUSH2 0x15E5 SWAP2 PUSH2 0x2C8C JUMP JUMPDEST DUP13 DUP2 SUB PUSH1 0x40 DUP15 ADD MSTORE PUSH2 0x15F6 SWAP2 PUSH2 0x2C8C JUMP JUMPDEST SWAP1 PUSH1 0xFF DUP2 AND ISZERO ISZERO PUSH1 0x60 DUP14 ADD MSTORE PUSH1 0x8 SHR PUSH1 0xFF AND ISZERO ISZERO PUSH1 0x80 DUP13 ADD MSTORE DUP11 DUP2 SUB PUSH1 0xA0 DUP13 ADD MSTORE PUSH2 0x1620 SWAP2 PUSH2 0x2B78 JUMP JUMPDEST SWAP8 PUSH1 0xC0 DUP11 ADD MSTORE DUP9 ADD MSTORE PUSH2 0x100 DUP8 ADD MSTORE PUSH2 0x120 DUP7 ADD MSTORE PUSH2 0x140 DUP6 ADD MSTORE PUSH1 0xFF DUP2 AND ISZERO ISZERO PUSH2 0x160 DUP6 ADD MSTORE PUSH1 0x8 SHR PUSH1 0xFF AND ISZERO ISZERO PUSH2 0x180 DUP5 ADD MSTORE PUSH2 0x1A0 DUP4 ADD MSTORE SUB SWAP1 RETURN JUMPDEST CALLVALUE PUSH2 0x5FD JUMPI PUSH1 0x20 CALLDATASIZE PUSH1 0x3 NOT ADD SLT PUSH2 0x5FD JUMPI PUSH1 0x4 CALLDATALOAD PUSH2 0x167B PUSH2 0x2D26 JUMP JUMPDEST DUP1 PUSH1 0x0 MSTORE PUSH1 0x5 PUSH1 0x20 MSTORE PUSH2 0x1698 PUSH1 0xFF PUSH1 0xE PUSH1 0x40 PUSH1 0x0 KECCAK256 ADD SLOAD AND PUSH2 0x2E30 JUMP JUMPDEST DUP1 PUSH1 0x0 MSTORE PUSH1 0x5 PUSH1 0x20 MSTORE PUSH2 0x16B5 PUSH1 0xFF PUSH1 0x3 PUSH1 0x40 PUSH1 0x0 KECCAK256 ADD SLOAD AND PUSH2 0x2E7C JUMP JUMPDEST DUP1 PUSH1 0x0 MSTORE PUSH1 0x5 PUSH1 0x20 MSTORE PUSH1 0x40 PUSH1 0x0 KECCAK256 PUSH1 0x3 DUP2 ADD PUSH2 0x100 PUSH2 0xFFFF NOT DUP3 SLOAD AND OR SWAP1 SSTORE PUSH1 0x8 TIMESTAMP SWAP2 ADD SSTORE PUSH32 0x562CD572B2BA3B666CD989FC4CA98419EC81E75F04528DF9D9D76FDB7807EE71 PUSH1 0x0 DUP1 LOG2 STOP JUMPDEST CALLVALUE PUSH2 0x5FD JUMPI PUSH1 0x0 CALLDATASIZE PUSH1 0x3 NOT ADD SLT PUSH2 0x5FD JUMPI PUSH1 0x40 MLOAD DUP1 PUSH1 0x7 SLOAD DUP1 DUP3 MSTORE DUP3 PUSH1 0x20 DUP1 SWAP4 ADD PUSH1 0x7 PUSH1 0x0 MSTORE PUSH32 0xA66CC928B5EDB82AF9BD49922954155AB7B0942694BEA4CE44661D9A8736C688 SWAP3 PUSH1 0x0 JUMPDEST DUP6 DUP3 DUP3 LT PUSH2 0x1777 JUMPI POP POP POP PUSH2 0x1763 SWAP3 POP SUB DUP4 PUSH2 0x2B01 JUMP JUMPDEST PUSH2 0x672 PUSH1 0x40 MLOAD SWAP3 DUP3 DUP5 SWAP4 DUP5 MSTORE DUP4 ADD SWAP1 PUSH2 0x2B78 JUMP JUMPDEST DUP6 SLOAD DUP5 MSTORE PUSH1 0x1 SWAP6 DUP7 ADD SWAP6 DUP9 SWAP6 POP SWAP4 ADD SWAP3 ADD PUSH2 0x174C JUMP JUMPDEST CALLVALUE PUSH2 0x5FD JUMPI PUSH1 0x0 CALLDATASIZE PUSH1 0x3 NOT ADD SLT PUSH2 0x5FD JUMPI PUSH1 0x0 SLOAD PUSH1 0x40 MLOAD PUSH1 0x1 PUSH1 0x1 PUSH1 0xA0 SHL SUB SWAP1 SWAP2 AND DUP2 MSTORE PUSH1 0x20 SWAP1 RETURN JUMPDEST CALLVALUE PUSH2 0x5FD JUMPI PUSH1 0x20 CALLDATASIZE PUSH1 0x3 NOT ADD SLT PUSH2 0x5FD JUMPI PUSH1 0x4 CALLDATALOAD PUSH1 0x6 SLOAD DUP2 LT ISZERO PUSH2 0x5FD JUMPI PUSH2 0x17DF PUSH1 0x20 SWAP2 PUSH2 0x2A78 JUMP JUMPDEST SWAP1 SLOAD PUSH1 0x40 MLOAD PUSH1 0x3 SWAP3 SWAP1 SWAP3 SHL SHR PUSH1 0x1 PUSH1 0x1 PUSH1 0xA0 SHL SUB AND DUP2 MSTORE RETURN JUMPDEST CALLVALUE PUSH2 0x5FD JUMPI PUSH1 0x0 CALLDATASIZE PUSH1 0x3 NOT ADD SLT PUSH2 0x5FD JUMPI PUSH2 0x1811 PUSH2 0x2D26 JUMP JUMPDEST PUSH1 0x2 SLOAD PUSH1 0xFF DUP2 AND PUSH2 0x1853 JUMPI PUSH1 0x1 SWAP1 PUSH1 0xFF NOT AND OR PUSH1 0x2 SSTORE PUSH32 0x62E78CEA01BEE320CD4E420270B5EA74000D11B0C9F74754EBDBFC544B05A258 PUSH1 0x20 PUSH1 0x40 MLOAD CALLER DUP2 MSTORE LOG1 STOP JUMPDEST PUSH1 0x40 MLOAD PUSH3 0x461BCD PUSH1 0xE5 SHL DUP2 MSTORE PUSH1 0x20 PUSH1 0x4 DUP3 ADD MSTORE PUSH1 0x10 PUSH1 0x24 DUP3 ADD MSTORE PUSH16 0x14185D5CD8589B194E881C185D5CD959 PUSH1 0x82 SHL PUSH1 0x44 DUP3 ADD MSTORE PUSH1 0x64 SWAP1 REVERT JUMPDEST CALLVALUE PUSH2 0x5FD JUMPI PUSH1 0x0 CALLDATASIZE PUSH1 0x3 NOT ADD SLT PUSH2 0x5FD JUMPI PUSH1 0x40 MLOAD DUP1 PUSH1 0xA SLOAD DUP1 DUP3 MSTORE DUP3 PUSH1 0x20 DUP1 SWAP4 ADD PUSH1 0xA PUSH1 0x0 MSTORE PUSH32 0xC65A7BB8D6351C1CF70C95A316CC6A92839C986682D98BC35F958F4883F9D2A8 SWAP3 PUSH1 0x0 JUMPDEST DUP6 DUP3 DUP3 LT PUSH2 0x18ED JUMPI POP POP POP PUSH2 0x1763 SWAP3 POP SUB DUP4 PUSH2 0x2B01 JUMP JUMPDEST DUP6 SLOAD DUP5 MSTORE PUSH1 0x1 SWAP6 DUP7 ADD SWAP6 DUP9 SWAP6 POP SWAP4 ADD SWAP3 ADD PUSH2 0x18D6 JUMP JUMPDEST CALLVALUE PUSH2 0x5FD JUMPI PUSH2 0x1911 CALLDATASIZE PUSH2 0x2CCC JUMP JUMPDEST SWAP1 PUSH2 0x191A PUSH2 0x2D26 JUMP JUMPDEST DUP1 PUSH1 0x0 MSTORE PUSH1 0x20 PUSH1 0x5 DUP2 MSTORE PUSH2 0x1938 PUSH1 0xFF PUSH1 0xE PUSH1 0x40 PUSH1 0x0 KECCAK256 ADD SLOAD AND PUSH2 0x2E30 JUMP JUMPDEST DUP3 PUSH1 0x0 MSTORE PUSH1 0x4 DUP2 MSTORE PUSH2 0x1957 PUSH1 0xFF PUSH1 0x6 PUSH1 0x40 PUSH1 0x0 KECCAK256 ADD SLOAD PUSH1 0x8 SHR AND PUSH2 0x2DE4 JUMP JUMPDEST DUP3 PUSH1 0x0 MSTORE PUSH1 0x4 DUP2 MSTORE PUSH1 0xFF PUSH1 0x6 PUSH1 0x40 PUSH1 0x0 KECCAK256 ADD SLOAD AND ISZERO PUSH2 0x1A2C JUMPI DUP3 PUSH1 0x0 MSTORE PUSH1 0x4 DUP2 MSTORE PUSH1 0x5 PUSH1 0x40 PUSH1 0x0 KECCAK256 ADD SLOAD PUSH2 0x19D6 JUMPI PUSH1 0x4 SWAP1 DUP3 PUSH1 0x0 MSTORE PUSH1 0x5 DUP2 MSTORE PUSH2 0x19A0 DUP5 DUP4 PUSH1 0x40 PUSH1 0x0 KECCAK256 ADD PUSH2 0x2DBB JUMP JUMPDEST DUP4 PUSH1 0x0 MSTORE MSTORE DUP1 PUSH1 0x5 PUSH1 0x40 PUSH1 0x0 KECCAK256 ADD SSTORE PUSH32 0xA4E69DB433EBEC4DED108FD5357E7B35D8671BC745D7F88A516B6C92F86A046E PUSH1 0x0 DUP1 LOG3 STOP JUMPDEST PUSH1 0x84 SWAP1 PUSH1 0x40 MLOAD SWAP1 PUSH3 0x461BCD PUSH1 0xE5 SHL DUP3 MSTORE PUSH1 0x4 DUP3 ADD MSTORE PUSH1 0x29 PUSH1 0x24 DUP3 ADD MSTORE PUSH32 0x43616E64696461746520616C72656164792061737369676E656420746F20616E PUSH1 0x44 DUP3 ADD MSTORE PUSH9 0x1032B632B1BA34B7B7 PUSH1 0xB9 SHL PUSH1 0x64 DUP3 ADD MSTORE REVERT JUMPDEST PUSH1 0x64 SWAP1 PUSH1 0x40 MLOAD SWAP1 PUSH3 0x461BCD PUSH1 0xE5 SHL DUP3 MSTORE PUSH1 0x4 DUP3 ADD MSTORE PUSH1 0x16 PUSH1 0x24 DUP3 ADD MSTORE PUSH22 0x10D85B991A59185D19481B9BDD08185C1C1C9BDD9959 PUSH1 0x52 SHL PUSH1 0x44 DUP3 ADD MSTORE REVERT JUMPDEST CALLVALUE PUSH2 0x5FD JUMPI PUSH1 0x20 CALLDATASIZE PUSH1 0x3 NOT ADD SLT PUSH2 0x5FD JUMPI PUSH1 0x4 CALLDATALOAD PUSH1 0xA SLOAD DUP2 LT ISZERO PUSH2 0x5FD JUMPI PUSH1 0x20 SWAP1 PUSH1 0xA PUSH1 0x0 MSTORE PUSH32 0xC65A7BB8D6351C1CF70C95A316CC6A92839C986682D98BC35F958F4883F9D2A8 ADD SLOAD PUSH1 0x40 MLOAD SWAP1 DUP2 MSTORE RETURN JUMPDEST CALLVALUE PUSH2 0x5FD JUMPI PUSH1 0x0 CALLDATASIZE PUSH1 0x3 NOT ADD SLT PUSH2 0x5FD JUMPI PUSH2 0x1AD3 PUSH2 0x2D26 JUMP JUMPDEST PUSH1 0x0 DUP1 SLOAD PUSH1 0x1 PUSH1 0x1 PUSH1 0xA0 SHL SUB NOT DUP2 AND DUP3 SSTORE PUSH1 0x1 PUSH1 0x1 PUSH1 0xA0 SHL SUB AND PUSH32 0x8BE0079C531659141344CD1FD0A4F28419497F9722A3DAAFE3B4186F6B6457E0 DUP3 DUP1 LOG3 STOP JUMPDEST CALLVALUE PUSH2 0x5FD JUMPI PUSH1 0x20 CALLDATASIZE PUSH1 0x3 NOT ADD SLT PUSH2 0x5FD JUMPI PUSH1 0x1 PUSH1 0x1 PUSH1 0xA0 SHL SUB PUSH2 0x1B34 PUSH2 0x2A2B JUMP JUMPDEST AND PUSH1 0x0 MSTORE PUSH1 0x3 PUSH1 0x20 MSTORE PUSH2 0x1BD4 PUSH1 0x40 PUSH1 0x0 KECCAK256 PUSH2 0x672 PUSH1 0x40 MLOAD PUSH2 0x1B54 DUP2 PUSH2 0x2AAF JUMP JUMPDEST PUSH2 0x1B5D DUP4 PUSH2 0x2BE6 JUMP JUMPDEST DUP2 MSTORE PUSH1 0x1 DUP4 ADD SLOAD SWAP3 PUSH1 0x20 DUP3 ADD SWAP4 PUSH1 0xFF DUP2 AND ISZERO ISZERO DUP6 MSTORE PUSH1 0x40 DUP4 ADD SWAP3 PUSH1 0xFF DUP3 PUSH1 0x8 SHR AND ISZERO ISZERO DUP5 MSTORE PUSH1 0xFF PUSH1 0x60 DUP3 ADD SWAP3 PUSH1 0x10 SHR AND ISZERO ISZERO DUP3 MSTORE PUSH1 0xFF PUSH1 0x3 PUSH2 0x1BA1 PUSH1 0x2 DUP7 ADD PUSH2 0x2EFE JUMP JUMPDEST SWAP5 DUP6 PUSH1 0x80 DUP6 ADD MSTORE ADD SLOAD AND ISZERO ISZERO PUSH1 0xA0 DUP3 ADD MSTORE MLOAD SWAP5 MLOAD ISZERO ISZERO SWAP3 MLOAD ISZERO ISZERO SWAP1 MLOAD ISZERO ISZERO SWAP1 PUSH1 0x40 MLOAD SWAP7 DUP8 SWAP7 PUSH1 0xA0 DUP9 MSTORE PUSH1 0xA0 DUP9 ADD SWAP1 PUSH2 0x2C8C JUMP JUMPDEST SWAP4 PUSH1 0x20 DUP8 ADD MSTORE PUSH1 0x40 DUP7 ADD MSTORE PUSH1 0x60 DUP6 ADD MSTORE DUP4 DUP3 SUB PUSH1 0x80 DUP6 ADD MSTORE PUSH2 0x2B78 JUMP JUMPDEST CALLVALUE PUSH2 0x5FD JUMPI PUSH1 0x20 CALLDATASIZE PUSH1 0x3 NOT ADD SLT PUSH2 0x5FD JUMPI PUSH1 0x4 CALLDATALOAD PUSH2 0x1C0D PUSH2 0x2D26 JUMP JUMPDEST DUP1 PUSH1 0x0 MSTORE PUSH1 0x5 PUSH1 0x20 MSTORE PUSH2 0x1C2A PUSH1 0xFF PUSH1 0xE PUSH1 0x40 PUSH1 0x0 KECCAK256 ADD SLOAD AND PUSH2 0x2E30 JUMP JUMPDEST DUP1 PUSH1 0x0 MSTORE PUSH1 0x5 PUSH1 0x20 MSTORE PUSH1 0x4 PUSH1 0x40 PUSH1 0x0 KECCAK256 ADD SLOAD ISZERO PUSH2 0x1C8B JUMPI DUP1 PUSH1 0x0 MSTORE PUSH1 0x5 PUSH1 0x20 MSTORE PUSH1 0x40 PUSH1 0x0 KECCAK256 PUSH1 0x3 DUP2 ADD PUSH1 0x1 PUSH1 0xFF NOT DUP3 SLOAD AND OR SWAP1 SSTORE PUSH1 0x7 TIMESTAMP SWAP2 ADD SSTORE PUSH32 0x159EEE87222A0489C529F2153C26AD65D718F2CC33EBAA8D399D1DD5B39FACAA PUSH1 0x0 DUP1 LOG2 STOP JUMPDEST PUSH1 0x40 MLOAD PUSH3 0x461BCD PUSH1 0xE5 SHL DUP2 MSTORE PUSH1 0x20 PUSH1 0x4 DUP3 ADD MSTORE PUSH1 0x19 PUSH1 0x24 DUP3 ADD MSTORE PUSH32 0x4E6F2063616E6469646174657320696E20656C656374696F6E00000000000000 PUSH1 0x44 DUP3 ADD MSTORE PUSH1 0x64 SWAP1 REVERT JUMPDEST CALLVALUE PUSH2 0x5FD JUMPI PUSH1 0x20 CALLDATASIZE PUSH1 0x3 NOT ADD SLT PUSH2 0x5FD JUMPI PUSH1 0x4 CALLDATALOAD PUSH2 0x1CEC PUSH2 0x2D26 JUMP JUMPDEST DUP1 PUSH1 0x0 MSTORE PUSH1 0x4 PUSH1 0x20 MSTORE PUSH2 0x1D0C PUSH1 0xFF PUSH1 0x6 PUSH1 0x40 PUSH1 0x0 KECCAK256 ADD SLOAD PUSH1 0x8 SHR AND PUSH2 0x2DE4 JUMP JUMPDEST DUP1 PUSH1 0x0 MSTORE PUSH1 0x4 PUSH1 0x20 MSTORE PUSH1 0xFF PUSH1 0x6 PUSH1 0x40 PUSH1 0x0 KECCAK256 ADD SLOAD AND PUSH2 0x1E0A JUMPI DUP1 PUSH1 0x0 MSTORE PUSH1 0x4 PUSH1 0x20 MSTORE DUP1 PUSH1 0x6 PUSH1 0x40 PUSH1 0x0 KECCAK256 ADD PUSH1 0x1 SWAP1 DUP2 PUSH1 0xFF NOT DUP3 SLOAD AND OR SWAP1 SSTORE DUP1 PUSH1 0x0 SWAP1 JUMPDEST PUSH2 0x1D76 JUMPI JUMPDEST DUP3 PUSH32 0x24776D729722C25AF4030ABA0AA454B1BF0CE96BFDB29E2998C1A0BC3DED47D5 PUSH1 0x0 DUP1 LOG2 STOP JUMPDEST PUSH1 0x7 DUP1 SLOAD DUP1 DUP4 LT ISZERO PUSH2 0x1E03 JUMPI PUSH2 0x1D8B DUP4 PUSH2 0x2A41 JUMP JUMPDEST SWAP6 SWAP1 SLOAD PUSH1 0x3 SWAP7 DUP8 SHL SHR EQ PUSH2 0x1DAF JUMPI POP POP PUSH2 0x1DA6 SWAP2 SWAP3 POP PUSH2 0x2DAC JUMP JUMPDEST SWAP1 DUP3 SWAP2 DUP2 PUSH2 0x1D49 JUMP JUMPDEST SWAP1 SWAP3 POP PUSH1 0x0 NOT SWAP2 DUP3 DUP3 ADD SWAP2 DUP3 GT PUSH2 0x11BC JUMPI PUSH2 0x9DC PUSH2 0x1DCF PUSH2 0x1DDB SWAP4 PUSH2 0x2A41 JUMP JUMPDEST SWAP1 SLOAD SWAP1 DUP8 SHL SHR SWAP2 PUSH2 0x2A41 JUMP JUMPDEST DUP2 SLOAD DUP1 ISZERO PUSH2 0x11A6 JUMPI DUP2 ADD SWAP3 PUSH2 0x1DEF DUP5 PUSH2 0x2A41 JUMP JUMPDEST DUP2 SWAP4 SWAP2 SLOAD SWAP3 SHL SHL NOT AND SWAP1 SSTORE SSTORE DUP1 DUP3 DUP1 PUSH2 0x1D4E JUMP JUMPDEST POP POP PUSH2 0x1D4E JUMP JUMPDEST PUSH1 0x40 MLOAD PUSH3 0x461BCD PUSH1 0xE5 SHL DUP2 MSTORE PUSH1 0x20 PUSH1 0x4 DUP3 ADD MSTORE PUSH1 0x1A PUSH1 0x24 DUP3 ADD MSTORE PUSH32 0x43616E64696461746520616C726561647920617070726F766564000000000000 PUSH1 0x44 DUP3 ADD MSTORE PUSH1 0x64 SWAP1 REVERT JUMPDEST CALLVALUE PUSH2 0x5FD JUMPI PUSH1 0x20 CALLDATASIZE PUSH1 0x3 NOT ADD SLT PUSH2 0x5FD JUMPI PUSH1 0x4 CALLDATALOAD PUSH1 0x0 MSTORE PUSH1 0x5 PUSH1 0x20 MSTORE PUSH1 0x40 PUSH1 0x0 KECCAK256 SWAP1 DUP2 SLOAD SWAP1 PUSH1 0x1 DUP4 ADD PUSH2 0x1E81 SWAP1 PUSH2 0x2BE6 JUMP JUMPDEST SWAP3 PUSH2 0x1E8E PUSH1 0x2 DUP3 ADD PUSH2 0x2BE6 JUMP JUMPDEST SWAP1 PUSH1 0x3 DUP2 ADD SLOAD SWAP3 PUSH1 0x7 DUP3 ADD SLOAD SWAP1 PUSH1 0x8 DUP4 ADD SLOAD SWAP1 PUSH1 0x9 DUP5 ADD SLOAD PUSH1 0xA DUP6 ADD SLOAD SWAP2 PUSH1 0xB DUP7 ADD SLOAD SWAP4 PUSH1 0xC DUP8 ADD SLOAD SWAP6 PUSH1 0xD DUP9 ADD SLOAD SWAP8 PUSH1 0xE ADD SLOAD PUSH1 0xFF AND SWAP9 PUSH1 0x40 MLOAD SWAP13 DUP14 SWAP13 DUP14 MSTORE DUP13 PUSH2 0x1C0 PUSH1 0x20 DUP2 SWAP3 ADD MSTORE DUP14 ADD PUSH2 0x1EE3 SWAP2 PUSH2 0x2C8C JUMP JUMPDEST DUP13 DUP2 SUB PUSH1 0x40 DUP15 ADD MSTORE PUSH2 0x1EF4 SWAP2 PUSH2 0x2C8C JUMP JUMPDEST SWAP10 PUSH1 0xFF DUP2 AND ISZERO ISZERO PUSH1 0x60 DUP14 ADD MSTORE PUSH1 0x8 SHR PUSH1 0xFF AND ISZERO ISZERO PUSH1 0x80 DUP13 ADD MSTORE PUSH1 0xA0 DUP12 ADD MSTORE PUSH1 0xC0 DUP11 ADD MSTORE DUP9 ADD MSTORE PUSH2 0x100 DUP8 ADD MSTORE PUSH2 0x120 DUP7 ADD MSTORE PUSH1 0xFF DUP2 AND ISZERO ISZERO PUSH2 0x140 DUP7 ADD MSTORE PUSH1 0x8 SHR PUSH1 0xFF AND ISZERO ISZERO PUSH2 0x160 DUP6 ADD MSTORE PUSH2 0x180 DUP5 ADD MSTORE ISZERO ISZERO PUSH2 0x1A0 DUP4 ADD MSTORE SUB SWAP1 RETURN JUMPDEST CALLVALUE PUSH2 0x5FD JUMPI PUSH1 0x0 CALLDATASIZE PUSH1 0x3 NOT ADD SLT PUSH2 0x5FD JUMPI PUSH1 0x20 PUSH1 0xFF PUSH1 0x2 SLOAD AND PUSH1 0x40 MLOAD SWAP1 ISZERO ISZERO DUP2 MSTORE RETURN JUMPDEST CALLVALUE PUSH2 0x5FD JUMPI PUSH1 0x0 CALLDATASIZE PUSH1 0x3 NOT ADD SLT PUSH2 0x5FD JUMPI PUSH2 0x1F8E PUSH2 0x2D26 JUMP JUMPDEST PUSH1 0x2 SLOAD PUSH1 0xFF DUP2 AND ISZERO PUSH2 0x1FCD JUMPI PUSH1 0xFF NOT AND PUSH1 0x2 SSTORE PUSH32 0x5DB9EE0A495BF2E6FF9C91A7834C1BA4FDD244A5E8AA4E537BD38AEAE4B073AA PUSH1 0x20 PUSH1 0x40 MLOAD CALLER DUP2 MSTORE LOG1 STOP JUMPDEST PUSH1 0x40 MLOAD PUSH3 0x461BCD PUSH1 0xE5 SHL DUP2 MSTORE PUSH1 0x20 PUSH1 0x4 DUP3 ADD MSTORE PUSH1 0x14 PUSH1 0x24 DUP3 ADD MSTORE PUSH20 0x14185D5CD8589B194E881B9BDD081C185D5CD959 PUSH1 0x62 SHL PUSH1 0x44 DUP3 ADD MSTORE PUSH1 0x64 SWAP1 REVERT JUMPDEST CALLVALUE PUSH2 0x5FD JUMPI PUSH1 0x20 CALLDATASIZE PUSH1 0x3 NOT ADD SLT PUSH2 0x5FD JUMPI PUSH1 0x4 CALLDATALOAD DUP1 PUSH1 0x0 MSTORE PUSH1 0x4 PUSH1 0x20 MSTORE PUSH2 0x203D PUSH1 0xFF PUSH1 0x6 PUSH1 0x40 PUSH1 0x0 KECCAK256 ADD SLOAD PUSH1 0x8 SHR AND PUSH2 0x2DE4 JUMP JUMPDEST PUSH1 0x0 MSTORE PUSH1 0x4 PUSH1 0x20 MSTORE PUSH1 0x40 PUSH1 0x0 KECCAK256 PUSH1 0x40 MLOAD PUSH2 0x2056 DUP2 PUSH2 0x2ACA JUMP JUMPDEST DUP2 SLOAD DUP2 MSTORE PUSH1 0x1 DUP3 ADD SLOAD PUSH1 0x1 PUSH1 0x1 PUSH1 0xA0 SHL SUB SWAP1 DUP2 AND PUSH1 0x20 DUP4 ADD SWAP1 DUP2 MSTORE SWAP3 SWAP1 SWAP2 SWAP1 PUSH2 0x2107 PUSH2 0x2084 PUSH1 0x2 DUP4 ADD PUSH2 0x2BE6 JUMP JUMPDEST SWAP6 PUSH1 0x40 DUP5 ADD SWAP7 DUP8 MSTORE PUSH2 0x20F9 PUSH2 0x209B PUSH1 0x3 DUP6 ADD PUSH2 0x2BE6 JUMP JUMPDEST SWAP2 DUP3 PUSH1 0x60 DUP8 ADD MSTORE PUSH1 0x4 DUP6 ADD SLOAD SWAP7 DUP8 PUSH1 0x80 DUP9 ADD MSTORE PUSH1 0x6 PUSH1 0x5 DUP8 ADD SLOAD SWAP7 DUP8 PUSH1 0xA0 DUP11 ADD MSTORE ADD SLOAD SWAP7 PUSH1 0xFF DUP1 DUP10 AND ISZERO ISZERO SWAP9 DUP10 PUSH1 0xC0 DUP5 ADD MSTORE PUSH1 0x8 SHR AND ISZERO ISZERO DUP4 DUP3 ADD MSTORE MLOAD SWAP9 MLOAD AND SWAP9 MLOAD SWAP1 PUSH1 0x40 MLOAD SWAP10 DUP11 SWAP10 DUP11 MSTORE PUSH1 0x20 DUP11 ADD MSTORE DUP1 PUSH1 0x40 DUP11 ADD MSTORE DUP9 ADD SWAP1 PUSH2 0x2C8C JUMP JUMPDEST SWAP1 DUP7 DUP3 SUB PUSH1 0x60 DUP9 ADD MSTORE PUSH2 0x2C8C JUMP JUMPDEST SWAP3 PUSH1 0x80 DUP6 ADD MSTORE PUSH1 0xA0 DUP5 ADD MSTORE PUSH1 0xC0 DUP4 ADD MSTORE SUB SWAP1 RETURN JUMPDEST CALLVALUE PUSH2 0x5FD JUMPI PUSH1 0x20 CALLDATASIZE PUSH1 0x3 NOT ADD SLT PUSH2 0x5FD JUMPI PUSH1 0x4 CALLDATALOAD PUSH1 0x0 MSTORE PUSH1 0x4 PUSH1 0x20 MSTORE PUSH1 0x40 PUSH1 0x0 KECCAK256 DUP1 SLOAD SWAP1 PUSH1 0x1 DUP1 PUSH1 0xA0 SHL SUB PUSH1 0x1 DUP3 ADD SLOAD AND SWAP3 PUSH1 0xFF PUSH2 0x215B PUSH1 0x2 DUP5 ADD PUSH2 0x2BE6 JUMP JUMPDEST PUSH2 0x2167 PUSH1 0x3 DUP6 ADD PUSH2 0x2BE6 JUMP JUMPDEST SWAP4 PUSH2 0x21AB PUSH1 0x4 DUP3 ADD SLOAD SWAP6 PUSH2 0x219D PUSH1 0x6 PUSH1 0x5 DUP6 ADD SLOAD SWAP5 ADD SLOAD SWAP5 PUSH1 0x40 MLOAD SWAP11 DUP12 SWAP11 DUP12 MSTORE PUSH1 0x20 DUP12 ADD MSTORE PUSH2 0x100 DUP1 PUSH1 0x40 DUP13 ADD MSTORE DUP11 ADD SWAP1 PUSH2 0x2C8C JUMP JUMPDEST SWAP1 DUP9 DUP3 SUB PUSH1 0x60 DUP11 ADD MSTORE PUSH2 0x2C8C JUMP JUMPDEST SWAP5 PUSH1 0x80 DUP8 ADD MSTORE PUSH1 0xA0 DUP7 ADD MSTORE DUP2 DUP2 AND ISZERO ISZERO PUSH1 0xC0 DUP7 ADD MSTORE PUSH1 0x8 SHR AND ISZERO ISZERO SWAP1 DUP4 ADD MSTORE SUB SWAP1 RETURN JUMPDEST CALLVALUE PUSH2 0x5FD JUMPI PUSH1 0x0 CALLDATASIZE PUSH1 0x3 NOT ADD SLT PUSH2 0x5FD JUMPI PUSH1 0x40 MLOAD DUP1 PUSH1 0x9 SLOAD DUP1 DUP3 MSTORE DUP3 PUSH1 0x20 DUP1 SWAP4 ADD PUSH1 0x9 PUSH1 0x0 MSTORE PUSH32 0x6E1540171B6C0C960B71A7020D9F60077F6AF931A8BBF590DA0223DACF75C7AF SWAP3 PUSH1 0x0 JUMPDEST DUP6 DUP3 DUP3 LT PUSH2 0x2230 JUMPI POP POP POP PUSH2 0x1763 SWAP3 POP SUB DUP4 PUSH2 0x2B01 JUMP JUMPDEST DUP6 SLOAD DUP5 MSTORE PUSH1 0x1 SWAP6 DUP7 ADD SWAP6 DUP9 SWAP6 POP SWAP4 ADD SWAP3 ADD PUSH2 0x2219 JUMP JUMPDEST CALLVALUE PUSH2 0x5FD JUMPI PUSH1 0x20 CALLDATASIZE PUSH1 0x3 NOT ADD SLT PUSH2 0x5FD JUMPI PUSH1 0x4 CALLDATALOAD PUSH2 0x2262 PUSH2 0x2D26 JUMP JUMPDEST DUP1 PUSH1 0x0 MSTORE PUSH1 0x5 PUSH1 0x20 MSTORE PUSH2 0x227F PUSH1 0xFF PUSH1 0xE PUSH1 0x40 PUSH1 0x0 KECCAK256 ADD SLOAD AND PUSH2 0x2E30 JUMP JUMPDEST DUP1 PUSH1 0x0 MSTORE PUSH1 0x5 PUSH1 0x20 MSTORE PUSH2 0x229C PUSH1 0xFF PUSH1 0x3 PUSH1 0x40 PUSH1 0x0 KECCAK256 ADD SLOAD AND PUSH2 0x2E7C JUMP JUMPDEST DUP1 PUSH1 0x0 MSTORE PUSH1 0x5 PUSH1 0x20 MSTORE PUSH32 0xE9B0DFC8F12ABAC9DCF7CA6C9D3A8A0F8ADEF5C9A7F8BF9BD660CBE4F696DAF0 PUSH1 0x20 PUSH1 0xFF PUSH1 0x40 PUSH1 0x0 KECCAK256 PUSH2 0x2311 PUSH1 0x3 PUSH1 0xC DUP4 ADD SWAP3 PUSH2 0x22FD DUP6 DUP6 SLOAD PUSH1 0x8 SHR AND ISZERO DUP6 SWAP1 PUSH2 0xFF00 DUP3 SLOAD SWAP2 ISZERO ISZERO PUSH1 0x8 SHL AND SWAP1 PUSH2 0xFF00 NOT AND OR SWAP1 SSTORE JUMP JUMPDEST ADD DUP1 SLOAD PUSH1 0xFF NOT DUP2 AND SWAP1 DUP6 AND ISZERO PUSH1 0xFF AND OR SWAP1 SSTORE JUMP JUMPDEST SLOAD PUSH1 0x8 SHR AND PUSH1 0x40 MLOAD SWAP1 ISZERO ISZERO DUP2 MSTORE LOG2 STOP JUMPDEST CALLVALUE PUSH2 0x5FD JUMPI PUSH1 0x20 DUP1 PUSH1 0x3 NOT CALLDATASIZE ADD SLT PUSH2 0x5FD JUMPI PUSH1 0x4 CALLDATALOAD SWAP1 CALLER PUSH1 0x0 MSTORE PUSH1 0x3 DUP2 MSTORE PUSH2 0x2356 PUSH1 0xFF PUSH1 0x1 PUSH1 0x40 PUSH1 0x0 KECCAK256 ADD SLOAD PUSH1 0x10 SHR AND PUSH2 0x2EBE JUMP JUMPDEST DUP2 PUSH1 0x0 MSTORE PUSH1 0x5 DUP1 DUP3 MSTORE PUSH2 0x2373 PUSH1 0xFF PUSH1 0xE PUSH1 0x40 PUSH1 0x0 KECCAK256 ADD SLOAD AND PUSH2 0x2E30 JUMP JUMPDEST DUP3 PUSH1 0x0 MSTORE DUP1 DUP3 MSTORE PUSH1 0xFF PUSH1 0x3 PUSH1 0x40 PUSH1 0x0 KECCAK256 ADD SLOAD PUSH1 0x8 SHR AND PUSH2 0x2448 JUMPI DUP3 PUSH1 0x0 MSTORE DUP1 DUP3 MSTORE DUP1 PUSH1 0x40 PUSH1 0x0 KECCAK256 ADD CALLER PUSH1 0x0 MSTORE DUP3 MSTORE PUSH1 0xFF PUSH1 0x40 PUSH1 0x0 KECCAK256 SLOAD AND PUSH2 0x2410 JUMPI SWAP1 PUSH1 0x3 SWAP2 DUP4 PUSH1 0x0 MSTORE DUP1 DUP3 MSTORE PUSH1 0x40 PUSH1 0x0 KECCAK256 ADD CALLER PUSH1 0x0 MSTORE DUP2 MSTORE PUSH1 0x40 PUSH1 0x0 KECCAK256 PUSH1 0x1 PUSH1 0xFF NOT DUP3 SLOAD AND OR SWAP1 SSTORE MSTORE PUSH2 0x23E7 DUP2 PUSH1 0x2 PUSH1 0x40 PUSH1 0x0 KECCAK256 ADD PUSH2 0x2DBB JUMP JUMPDEST CALLER SWAP1 PUSH32 0x38DCBD2EB182B340B867C36ED9ED4DD8F7D99DA76FCFB282C4BF5CA7F5C75B1D PUSH1 0x0 DUP1 LOG3 STOP JUMPDEST PUSH1 0x40 MLOAD PUSH3 0x461BCD PUSH1 0xE5 SHL DUP2 MSTORE PUSH1 0x4 DUP2 ADD DUP4 SWAP1 MSTORE PUSH1 0x10 PUSH1 0x24 DUP3 ADD MSTORE PUSH16 0x105B1C9958591E48195B9C9BDB1B1959 PUSH1 0x82 SHL PUSH1 0x44 DUP3 ADD MSTORE PUSH1 0x64 SWAP1 REVERT JUMPDEST PUSH1 0x40 MLOAD PUSH3 0x461BCD PUSH1 0xE5 SHL DUP2 MSTORE PUSH1 0x4 DUP2 ADD DUP4 SWAP1 MSTORE PUSH1 0x12 PUSH1 0x24 DUP3 ADD MSTORE PUSH18 0x115B1958DD1A5BDB881A185CC8195B991959 PUSH1 0x72 SHL PUSH1 0x44 DUP3 ADD MSTORE PUSH1 0x64 SWAP1 REVERT JUMPDEST CALLVALUE PUSH2 0x5FD JUMPI PUSH1 0x20 CALLDATASIZE PUSH1 0x3 NOT ADD SLT PUSH2 0x5FD JUMPI PUSH1 0x4 CALLDATALOAD PUSH1 0x1 PUSH1 0x1 PUSH1 0x40 SHL SUB DUP2 GT PUSH2 0x5FD JUMPI PUSH2 0x24B2 SWAP1 CALLDATASIZE SWAP1 PUSH1 0x4 ADD PUSH2 0x2B22 JUMP JUMPDEST CALLER PUSH1 0x0 MSTORE PUSH1 0x3 PUSH1 0x20 MSTORE PUSH1 0xFF PUSH1 0x3 PUSH1 0x40 PUSH1 0x0 KECCAK256 ADD SLOAD AND PUSH2 0x281F JUMPI DUP1 MLOAD ISZERO PUSH2 0x27E3 JUMPI PUSH1 0x40 MLOAD PUSH2 0x24DE DUP2 PUSH2 0x2AE6 JUMP JUMPDEST PUSH1 0x0 DUP2 MSTORE PUSH1 0x40 MLOAD SWAP1 PUSH2 0x24EF DUP3 PUSH2 0x2AAF JUMP JUMPDEST DUP3 DUP3 MSTORE PUSH1 0x20 DUP3 ADD PUSH1 0x0 DUP2 MSTORE PUSH1 0x40 DUP4 ADD SWAP2 PUSH1 0x0 DUP4 MSTORE PUSH1 0x60 DUP5 ADD SWAP1 PUSH1 0x0 DUP3 MSTORE PUSH1 0x80 DUP6 ADD MSTORE PUSH1 0x1 PUSH1 0xA0 DUP6 ADD MSTORE CALLER PUSH1 0x0 MSTORE PUSH1 0x3 PUSH1 0x20 MSTORE PUSH1 0x40 PUSH1 0x0 KECCAK256 SWAP3 DUP5 MLOAD DUP1 MLOAD SWAP1 PUSH1 0x1 PUSH1 0x1 PUSH1 0x40 SHL SUB DUP3 GT PUSH2 0xA9F JUMPI PUSH2 0x2544 DUP7 SLOAD PUSH2 0x2BAC JUMP JUMPDEST PUSH1 0x1F DUP2 GT PUSH2 0x27B1 JUMPI JUMPDEST POP PUSH1 0x20 SWAP1 PUSH1 0x1F DUP4 GT PUSH1 0x1 EQ PUSH2 0x2743 JUMPI PUSH2 0x25B4 SWAP4 SWAP3 SWAP2 PUSH1 0x0 SWAP2 DUP4 PUSH2 0x2738 JUMPI JUMPDEST POP POP DUP2 PUSH1 0x1 SHL SWAP2 PUSH1 0x0 NOT SWAP1 PUSH1 0x3 SHL SHR NOT AND OR DUP6 SSTORE JUMPDEST PUSH2 0x259D PUSH1 0x1 DUP7 ADD SWAP5 MLOAD ISZERO ISZERO DUP6 SWAP1 PUSH1 0xFF DUP1 NOT DUP4 SLOAD AND SWAP2 ISZERO ISZERO AND OR SWAP1 SSTORE JUMP JUMPDEST MLOAD DUP4 SLOAD PUSH2 0xFF00 NOT AND SWAP1 ISZERO ISZERO PUSH1 0x8 SHL PUSH2 0xFF00 AND OR DUP4 SSTORE JUMP JUMPDEST MLOAD DUP2 SLOAD PUSH3 0xFF0000 NOT AND SWAP1 ISZERO ISZERO PUSH1 0x10 SHL PUSH3 0xFF0000 AND OR SWAP1 SSTORE PUSH1 0x80 DUP3 ADD MLOAD DUP1 MLOAD SWAP1 SWAP3 SWAP1 PUSH1 0x2 DUP4 ADD PUSH1 0x1 PUSH1 0x1 PUSH1 0x40 SHL SUB DUP3 GT PUSH2 0xA9F JUMPI PUSH1 0x1 PUSH1 0x40 SHL SWAP5 DUP6 DUP4 GT PUSH2 0xA9F JUMPI PUSH1 0x20 SWAP1 DUP3 SLOAD DUP5 DUP5 SSTORE DUP1 DUP6 LT PUSH2 0x271B JUMPI JUMPDEST POP ADD SWAP1 PUSH1 0x0 MSTORE PUSH1 0x20 PUSH1 0x0 KECCAK256 PUSH1 0x0 JUMPDEST DUP4 DUP2 LT PUSH2 0x2707 JUMPI DUP8 DUP8 PUSH2 0x263B DUP9 PUSH1 0x3 PUSH1 0xA0 DUP11 ADD MLOAD ISZERO ISZERO SWAP2 ADD SWAP1 PUSH1 0xFF DUP1 NOT DUP4 SLOAD AND SWAP2 ISZERO ISZERO AND OR SWAP1 SSTORE JUMP JUMPDEST PUSH1 0x6 SLOAD DUP2 DUP2 LT ISZERO PUSH2 0xA9F JUMPI PUSH2 0x2659 DUP2 PUSH1 0x1 PUSH2 0x2677 SWAP4 ADD PUSH1 0x6 SSTORE PUSH2 0x2A78 JUMP JUMPDEST DUP2 SLOAD PUSH1 0x1 PUSH1 0x1 PUSH1 0xA0 SHL SUB PUSH1 0x3 SWAP3 SWAP1 SWAP3 SHL SWAP2 DUP3 SHL NOT AND CALLER SWAP1 SWAP2 SHL OR SWAP1 SSTORE JUMP JUMPDEST PUSH1 0x8 SLOAD SWAP1 DUP2 LT ISZERO PUSH2 0xA9F JUMPI PUSH1 0x1 DUP2 ADD DUP1 PUSH1 0x8 SSTORE DUP2 LT ISZERO PUSH2 0xA89 JUMPI PUSH1 0x8 PUSH1 0x0 MSTORE PUSH32 0xF3F7A9FE364FAAB93B216DA50A3214154F22A0A2B415B23A84C8169E8B636EE3 ADD CALLER PUSH1 0x1 PUSH1 0x1 PUSH1 0x60 SHL SUB PUSH1 0xA0 SHL DUP3 SLOAD AND OR SWAP1 SSTORE PUSH32 0xE4E252AB55ECD86D160954E9237B0D7BF0EFD0068B29C423B595C5177D0A5DC4 PUSH1 0x40 MLOAD PUSH1 0x20 DUP2 MSTORE DUP1 PUSH2 0x2702 CALLER SWAP5 PUSH1 0x20 DUP4 ADD SWAP1 PUSH2 0x2C8C JUMP JUMPDEST SUB SWAP1 LOG2 STOP JUMPDEST PUSH1 0x1 SWAP1 PUSH1 0x20 DUP5 MLOAD SWAP5 ADD SWAP4 DUP2 DUP5 ADD SSTORE ADD PUSH2 0x2612 JUMP JUMPDEST PUSH2 0x2732 SWAP1 DUP5 PUSH1 0x0 MSTORE DUP6 DUP5 PUSH1 0x0 KECCAK256 SWAP2 DUP3 ADD SWAP2 ADD PUSH2 0x2D95 JUMP JUMPDEST DUP9 PUSH2 0x2604 JUMP JUMPDEST ADD MLOAD SWAP1 POP DUP10 DUP1 PUSH2 0x256B JUMP JUMPDEST SWAP1 DUP7 PUSH1 0x0 MSTORE PUSH1 0x20 PUSH1 0x0 KECCAK256 SWAP2 PUSH1 0x0 JUMPDEST PUSH1 0x1F NOT DUP6 AND DUP2 LT PUSH2 0x2799 JUMPI POP SWAP2 DUP4 SWAP2 PUSH1 0x1 SWAP4 PUSH2 0x25B4 SWAP7 SWAP6 PUSH1 0x1F NOT DUP2 AND LT PUSH2 0x2780 JUMPI JUMPDEST POP POP POP DUP2 SHL ADD DUP6 SSTORE PUSH2 0x2580 JUMP JUMPDEST ADD MLOAD PUSH1 0x0 NOT PUSH1 0xF8 DUP5 PUSH1 0x3 SHL AND SHR NOT AND SWAP1 SSTORE DUP10 DUP1 DUP1 PUSH2 0x2773 JUMP JUMPDEST SWAP2 SWAP3 PUSH1 0x20 PUSH1 0x1 DUP2 SWAP3 DUP7 DUP6 ADD MLOAD DUP2 SSTORE ADD SWAP5 ADD SWAP3 ADD PUSH2 0x2751 JUMP JUMPDEST PUSH2 0x27DD SWAP1 DUP8 PUSH1 0x0 MSTORE PUSH1 0x20 PUSH1 0x0 KECCAK256 PUSH1 0x1F DUP6 ADD PUSH1 0x5 SHR DUP2 ADD SWAP2 PUSH1 0x20 DUP7 LT PUSH2 0xB6E JUMPI PUSH1 0x1F ADD PUSH1 0x5 SHR ADD SWAP1 PUSH2 0x2D95 JUMP JUMPDEST DUP9 PUSH2 0x254D JUMP JUMPDEST PUSH1 0x40 MLOAD PUSH3 0x461BCD PUSH1 0xE5 SHL DUP2 MSTORE PUSH1 0x20 PUSH1 0x4 DUP3 ADD MSTORE PUSH1 0x14 PUSH1 0x24 DUP3 ADD MSTORE PUSH20 0x4E616D652063616E6E6F7420626520656D707479 PUSH1 0x60 SHL PUSH1 0x44 DUP3 ADD MSTORE PUSH1 0x64 SWAP1 REVERT JUMPDEST PUSH1 0x40 MLOAD PUSH3 0x461BCD PUSH1 0xE5 SHL DUP2 MSTORE PUSH1 0x20 PUSH1 0x4 DUP3 ADD MSTORE PUSH1 0x17 PUSH1 0x24 DUP3 ADD MSTORE PUSH32 0x5573657220616C72656164792072656769737465726564000000000000000000 PUSH1 0x44 DUP3 ADD MSTORE PUSH1 0x64 SWAP1 REVERT JUMPDEST CALLVALUE PUSH2 0x5FD JUMPI PUSH1 0x20 CALLDATASIZE PUSH1 0x3 NOT ADD SLT PUSH2 0x5FD JUMPI PUSH1 0x4 CALLDATALOAD PUSH1 0x8 SLOAD DUP2 LT ISZERO PUSH2 0x5FD JUMPI PUSH1 0x8 PUSH1 0x0 MSTORE PUSH32 0xF3F7A9FE364FAAB93B216DA50A3214154F22A0A2B415B23A84C8169E8B636EE3 ADD SLOAD PUSH1 0x40 MLOAD PUSH1 0x1 PUSH1 0x1 PUSH1 0xA0 SHL SUB SWAP1 SWAP2 AND DUP2 MSTORE PUSH1 0x20 SWAP1 RETURN JUMPDEST CALLVALUE PUSH2 0x5FD JUMPI PUSH1 0x20 CALLDATASIZE PUSH1 0x3 NOT ADD SLT PUSH2 0x5FD JUMPI PUSH1 0x4 CALLDATALOAD PUSH1 0x9 SLOAD DUP2 LT ISZERO PUSH2 0x5FD JUMPI PUSH1 0x20 SWAP1 PUSH1 0x9 PUSH1 0x0 MSTORE PUSH32 0x6E1540171B6C0C960B71A7020D9F60077F6AF931A8BBF590DA0223DACF75C7AF ADD SLOAD PUSH1 0x40 MLOAD SWAP1 DUP2 MSTORE RETURN JUMPDEST CALLVALUE PUSH2 0x5FD JUMPI PUSH1 0x80 CALLDATASIZE PUSH1 0x3 NOT ADD SLT PUSH2 0x5FD JUMPI PUSH1 0x4 CALLDATALOAD PUSH32 0x739EBD6B0791F74B4760666C62EBA700312C8BC1D9AA1AC74CAF71C1EEBAE076 PUSH1 0x60 PUSH1 0x24 CALLDATALOAD PUSH1 0x64 CALLDATALOAD PUSH1 0x44 CALLDATALOAD PUSH2 0x2958 PUSH2 0x2D26 JUMP JUMPDEST DUP6 PUSH1 0x0 MSTORE PUSH1 0x5 PUSH1 0x20 MSTORE PUSH2 0x2975 PUSH1 0xFF PUSH1 0xE PUSH1 0x40 PUSH1 0x0 KECCAK256 ADD SLOAD AND PUSH2 0x2E30 JUMP JUMPDEST DUP6 PUSH1 0x0 MSTORE PUSH1 0x5 PUSH1 0x20 MSTORE DUP2 PUSH1 0xB PUSH1 0x40 PUSH1 0x0 KECCAK256 DUP6 PUSH1 0x9 DUP3 ADD SSTORE DUP4 PUSH1 0xA DUP3 ADD SSTORE ADD SSTORE PUSH1 0x40 MLOAD SWAP3 DUP4 MSTORE PUSH1 0x20 DUP4 ADD MSTORE PUSH1 0x40 DUP3 ADD MSTORE LOG2 STOP JUMPDEST CALLVALUE PUSH2 0x5FD JUMPI PUSH1 0x40 CALLDATASIZE PUSH1 0x3 NOT ADD SLT PUSH2 0x5FD JUMPI PUSH1 0x4 CALLDATALOAD PUSH2 0x29C3 PUSH2 0x2A15 JUMP JUMPDEST SWAP1 DUP1 PUSH1 0x0 MSTORE PUSH1 0x5 PUSH1 0x20 MSTORE PUSH2 0x29E1 PUSH1 0xFF PUSH1 0xE PUSH1 0x40 PUSH1 0x0 KECCAK256 ADD SLOAD AND PUSH2 0x2E30 JUMP JUMPDEST PUSH1 0x0 MSTORE PUSH1 0x5 PUSH1 0x20 MSTORE PUSH1 0x5 PUSH1 0x40 PUSH1 0x0 KECCAK256 ADD SWAP1 PUSH1 0x1 DUP1 PUSH1 0xA0 SHL SUB AND PUSH1 0x0 MSTORE PUSH1 0x20 MSTORE PUSH1 0x20 PUSH1 0xFF PUSH1 0x40 PUSH1 0x0 KECCAK256 SLOAD AND PUSH1 0x40 MLOAD SWAP1 ISZERO ISZERO DUP2 MSTORE RETURN JUMPDEST PUSH1 0x24 CALLDATALOAD SWAP1 PUSH1 0x1 PUSH1 0x1 PUSH1 0xA0 SHL SUB DUP3 AND DUP3 SUB PUSH2 0x5FD JUMPI JUMP JUMPDEST PUSH1 0x4 CALLDATALOAD SWAP1 PUSH1 0x1 PUSH1 0x1 PUSH1 0xA0 SHL SUB DUP3 AND DUP3 SUB PUSH2 0x5FD JUMPI JUMP JUMPDEST PUSH1 0x7 SLOAD DUP2 LT ISZERO PUSH2 0xA89 JUMPI PUSH1 0x7 PUSH1 0x0 MSTORE PUSH32 0xA66CC928B5EDB82AF9BD49922954155AB7B0942694BEA4CE44661D9A8736C688 ADD SWAP1 PUSH1 0x0 SWAP1 JUMP JUMPDEST PUSH1 0x6 SLOAD DUP2 LT ISZERO PUSH2 0xA89 JUMPI PUSH1 0x6 PUSH1 0x0 MSTORE PUSH32 0xF652222313E28459528D920B65115C16C04F3EFC82AAEDC97BE59F3F377C0D3F ADD SWAP1 PUSH1 0x0 SWAP1 JUMP JUMPDEST PUSH1 0xC0 DUP2 ADD SWAP1 DUP2 LT PUSH1 0x1 PUSH1 0x1 PUSH1 0x40 SHL SUB DUP3 GT OR PUSH2 0xA9F JUMPI PUSH1 0x40 MSTORE JUMP JUMPDEST PUSH2 0x100 DUP2 ADD SWAP1 DUP2 LT PUSH1 0x1 PUSH1 0x1 PUSH1 0x40 SHL SUB DUP3 GT OR PUSH2 0xA9F JUMPI PUSH1 0x40 MSTORE JUMP JUMPDEST PUSH1 0x20 DUP2 ADD SWAP1 DUP2 LT PUSH1 0x1 PUSH1 0x1 PUSH1 0x40 SHL SUB DUP3 GT OR PUSH2 0xA9F JUMPI PUSH1 0x40 MSTORE JUMP JUMPDEST SWAP1 PUSH1 0x1F DUP1 NOT SWAP2 ADD AND DUP2 ADD SWAP1 DUP2 LT PUSH1 0x1 PUSH1 0x1 PUSH1 0x40 SHL SUB DUP3 GT OR PUSH2 0xA9F JUMPI PUSH1 0x40 MSTORE JUMP JUMPDEST DUP2 PUSH1 0x1F DUP3 ADD SLT ISZERO PUSH2 0x5FD JUMPI DUP1 CALLDATALOAD SWAP1 PUSH1 0x1 PUSH1 0x1 PUSH1 0x40 SHL SUB DUP3 GT PUSH2 0xA9F JUMPI PUSH1 0x40 MLOAD SWAP3 PUSH2 0x2B56 PUSH1 0x1F DUP5 ADD PUSH1 0x1F NOT AND PUSH1 0x20 ADD DUP6 PUSH2 0x2B01 JUMP JUMPDEST DUP3 DUP5 MSTORE PUSH1 0x20 DUP4 DUP4 ADD ADD GT PUSH2 0x5FD JUMPI DUP2 PUSH1 0x0 SWAP3 PUSH1 0x20 DUP1 SWAP4 ADD DUP4 DUP7 ADD CALLDATACOPY DUP4 ADD ADD MSTORE SWAP1 JUMP JUMPDEST SWAP1 DUP2 MLOAD DUP1 DUP3 MSTORE PUSH1 0x20 DUP1 DUP1 SWAP4 ADD SWAP4 ADD SWAP2 PUSH1 0x0 JUMPDEST DUP3 DUP2 LT PUSH2 0x2B98 JUMPI POP POP POP POP SWAP1 JUMP JUMPDEST DUP4 MLOAD DUP6 MSTORE SWAP4 DUP2 ADD SWAP4 SWAP3 DUP2 ADD SWAP3 PUSH1 0x1 ADD PUSH2 0x2B8A JUMP JUMPDEST SWAP1 PUSH1 0x1 DUP3 DUP2 SHR SWAP3 AND DUP1 ISZERO PUSH2 0x2BDC JUMPI JUMPDEST PUSH1 0x20 DUP4 LT EQ PUSH2 0x2BC6 JUMPI JUMP JUMPDEST PUSH4 0x4E487B71 PUSH1 0xE0 SHL PUSH1 0x0 MSTORE PUSH1 0x22 PUSH1 0x4 MSTORE PUSH1 0x24 PUSH1 0x0 REVERT JUMPDEST SWAP2 PUSH1 0x7F AND SWAP2 PUSH2 0x2BBB JUMP JUMPDEST SWAP1 PUSH1 0x40 MLOAD SWAP2 DUP3 PUSH1 0x0 DUP3 SLOAD SWAP3 PUSH2 0x2BFA DUP5 PUSH2 0x2BAC JUMP JUMPDEST SWAP1 DUP2 DUP5 MSTORE PUSH1 0x1 SWAP5 DUP6 DUP2 AND SWAP1 DUP2 PUSH1 0x0 EQ PUSH2 0x2C69 JUMPI POP PUSH1 0x1 EQ PUSH2 0x2C26 JUMPI JUMPDEST POP POP PUSH2 0x2C24 SWAP3 POP SUB DUP4 PUSH2 0x2B01 JUMP JUMPDEST JUMP JUMPDEST SWAP1 SWAP4 SWAP2 POP PUSH1 0x0 MSTORE PUSH1 0x20 SWAP1 DUP2 PUSH1 0x0 KECCAK256 SWAP4 PUSH1 0x0 SWAP2 JUMPDEST DUP2 DUP4 LT PUSH2 0x2C51 JUMPI POP POP PUSH2 0x2C24 SWAP4 POP DUP3 ADD ADD CODESIZE DUP1 PUSH2 0x2C16 JUMP JUMPDEST DUP6 SLOAD DUP9 DUP5 ADD DUP6 ADD MSTORE SWAP5 DUP6 ADD SWAP5 DUP8 SWAP5 POP SWAP2 DUP4 ADD SWAP2 PUSH2 0x2C39 JUMP JUMPDEST SWAP2 POP POP PUSH2 0x2C24 SWAP5 POP PUSH1 0x20 SWAP3 POP PUSH1 0xFF NOT AND DUP3 DUP5 ADD MSTORE ISZERO ISZERO PUSH1 0x5 SHL DUP3 ADD ADD CODESIZE DUP1 PUSH2 0x2C16 JUMP JUMPDEST SWAP2 SWAP1 DUP3 MLOAD SWAP3 DUP4 DUP3 MSTORE PUSH1 0x0 JUMPDEST DUP5 DUP2 LT PUSH2 0x2CB8 JUMPI POP POP DUP3 PUSH1 0x0 PUSH1 0x20 DUP1 SWAP5 SWAP6 DUP5 ADD ADD MSTORE PUSH1 0x1F DUP1 NOT SWAP2 ADD AND ADD ADD SWAP1 JUMP JUMPDEST PUSH1 0x20 DUP2 DUP4 ADD DUP2 ADD MLOAD DUP5 DUP4 ADD DUP3 ADD MSTORE ADD PUSH2 0x2C97 JUMP JUMPDEST PUSH1 0x40 SWAP1 PUSH1 0x3 NOT ADD SLT PUSH2 0x5FD JUMPI PUSH1 0x4 CALLDATALOAD SWAP1 PUSH1 0x24 CALLDATALOAD SWAP1 JUMP JUMPDEST PUSH1 0x20 SWAP1 DUP2 PUSH1 0x40 DUP2 DUP4 ADD SWAP3 DUP3 DUP2 MSTORE DUP6 MLOAD DUP1 SWAP5 MSTORE ADD SWAP4 ADD SWAP2 PUSH1 0x0 JUMPDEST DUP3 DUP2 LT PUSH2 0x2D09 JUMPI POP POP POP POP SWAP1 JUMP JUMPDEST DUP4 MLOAD PUSH1 0x1 PUSH1 0x1 PUSH1 0xA0 SHL SUB AND DUP6 MSTORE SWAP4 DUP2 ADD SWAP4 SWAP3 DUP2 ADD SWAP3 PUSH1 0x1 ADD PUSH2 0x2CFB JUMP JUMPDEST PUSH1 0x0 SLOAD PUSH1 0x1 PUSH1 0x1 PUSH1 0xA0 SHL SUB AND CALLER SUB PUSH2 0x2D3A JUMPI JUMP JUMPDEST PUSH1 0x64 PUSH1 0x40 MLOAD PUSH3 0x461BCD PUSH1 0xE5 SHL DUP2 MSTORE PUSH1 0x20 PUSH1 0x4 DUP3 ADD MSTORE PUSH1 0x20 PUSH1 0x24 DUP3 ADD MSTORE PUSH32 0x4F776E61626C653A2063616C6C6572206973206E6F7420746865206F776E6572 PUSH1 0x44 DUP3 ADD MSTORE REVERT JUMPDEST PUSH1 0x1 PUSH1 0x1 PUSH1 0x40 SHL SUB DUP2 GT PUSH2 0xA9F JUMPI PUSH1 0x5 SHL PUSH1 0x20 ADD SWAP1 JUMP JUMPDEST DUP2 DUP2 LT PUSH2 0x2DA0 JUMPI POP POP JUMP JUMPDEST PUSH1 0x0 DUP2 SSTORE PUSH1 0x1 ADD PUSH2 0x2D95 JUMP JUMPDEST PUSH1 0x0 NOT DUP2 EQ PUSH2 0x11BC JUMPI PUSH1 0x1 ADD SWAP1 JUMP JUMPDEST DUP1 SLOAD SWAP1 PUSH1 0x1 PUSH1 0x40 SHL DUP3 LT ISZERO PUSH2 0xA9F JUMPI PUSH1 0x1 DUP3 ADD DUP1 DUP3 SSTORE DUP3 LT ISZERO PUSH2 0xA89 JUMPI PUSH1 0x0 MSTORE PUSH1 0x20 PUSH1 0x0 KECCAK256 ADD SSTORE JUMP JUMPDEST ISZERO PUSH2 0x2DEB JUMPI JUMP JUMPDEST PUSH1 0x40 MLOAD PUSH3 0x461BCD PUSH1 0xE5 SHL DUP2 MSTORE PUSH1 0x20 PUSH1 0x4 DUP3 ADD MSTORE PUSH1 0x18 PUSH1 0x24 DUP3 ADD MSTORE PUSH32 0x43616E64696461746520646F6573206E6F742065786973740000000000000000 PUSH1 0x44 DUP3 ADD MSTORE PUSH1 0x64 SWAP1 REVERT JUMPDEST ISZERO PUSH2 0x2E37 JUMPI JUMP JUMPDEST PUSH1 0x40 MLOAD PUSH3 0x461BCD PUSH1 0xE5 SHL DUP2 MSTORE PUSH1 0x20 PUSH1 0x4 DUP3 ADD MSTORE PUSH1 0x17 PUSH1 0x24 DUP3 ADD MSTORE PUSH32 0x456C656374696F6E20646F6573206E6F74206578697374000000000000000000 PUSH1 0x44 DUP3 ADD MSTORE PUSH1 0x64 SWAP1 REVERT JUMPDEST ISZERO PUSH2 0x2E83 JUMPI JUMP JUMPDEST PUSH1 0x40 MLOAD PUSH3 0x461BCD PUSH1 0xE5 SHL DUP2 MSTORE PUSH1 0x20 PUSH1 0x4 DUP3 ADD MSTORE PUSH1 0x13 PUSH1 0x24 DUP3 ADD MSTORE PUSH19 0x456C656374696F6E206E6F7420616374697665 PUSH1 0x68 SHL PUSH1 0x44 DUP3 ADD MSTORE PUSH1 0x64 SWAP1 REVERT JUMPDEST ISZERO PUSH2 0x2EC5 JUMPI JUMP JUMPDEST PUSH1 0x40 MLOAD PUSH3 0x461BCD PUSH1 0xE5 SHL DUP2 MSTORE PUSH1 0x20 PUSH1 0x4 DUP3 ADD MSTORE PUSH1 0x11 PUSH1 0x24 DUP3 ADD MSTORE PUSH17 0x155CD95C881B9BDD08185C1C1C9BDD9959 PUSH1 0x7A SHL PUSH1 0x44 DUP3 ADD MSTORE PUSH1 0x64 SWAP1 REVERT JUMPDEST SWAP1 PUSH1 0x40 MLOAD SWAP2 DUP3 DUP2 SLOAD SWAP2 DUP3 DUP3 MSTORE PUSH1 0x20 SWAP3 DUP4 DUP4 ADD SWAP2 PUSH1 0x0 MSTORE DUP4 PUSH1 0x0 KECCAK256 SWAP4 PUSH1 0x0 SWAP1 JUMPDEST DUP3 DUP3 LT PUSH2 0x2F33 JUMPI POP POP POP PUSH2 0x2C24 SWAP3 POP SUB DUP4 PUSH2 0x2B01 JUMP JUMPDEST DUP6 SLOAD DUP5 MSTORE PUSH1 0x1 SWAP6 DUP7 ADD SWAP6 DUP9 SWAP6 POP SWAP4 DUP2 ADD SWAP4 SWAP1 SWAP2 ADD SWAP1 PUSH2 0x2F1D JUMP JUMPDEST DUP1 MLOAD DUP3 LT ISZERO PUSH2 0xA89 JUMPI PUSH1 0x20 SWAP2 PUSH1 0x5 SHL ADD ADD SWAP1 JUMP INVALID LOG2 PUSH5 0x6970667358 0x22 SLT KECCAK256 CALL DUP10 SWAP15 NOT CODESIZE 0xFB 0x4A 0x2E DUP2 MSTORE 0xC5 REVERT PUSH22 0x6E3BA261699E222FB0EEBF110DAD02383EC89564736F PUSH13 0x63430008130033000000000000 "},"methodIdentifiers":{"addCandidateToElection(uint256,uint256)":"778c6439","allCandidateIds(uint256)":"0a17942e","allElectionIds(uint256)":"76ff0908","allUserAddresses(uint256)":"12f8a6ab","approveCandidate(uint256)":"69956046","approveUser(address)":"d624fdb6","candidates(uint256)":"3477ee2e","createElection(string,string,uint256,uint256,uint256)":"ff50e12f","elections(uint256)":"5e6fef01","endElection(uint256)":"9c98bcbb","enrollToVote(uint256)":"2c6d9c85","getAllCandidates()":"2e6997fe","getAllElections()":"7fd5f268","getAllUsers()":"e2842d79","getCandidate(uint256)":"35b8e820","getElection(uint256)":"9d710777","getElectionResults(uint256)":"e8ededa6","getPendingCandidates()":"9a70b327","getPendingUsers()":"fe09b5ec","getUser(address)":"6f77926b","hasUserVoted(uint256,address)":"dc296ae1","isUserEnrolled(uint256,address)":"064956d7","owner()":"8da5cb5b","pause()":"8456cb59","pauseElection(uint256)":"2e4ecae1","paused()":"5c975abb","pendingCandidateApprovals(uint256)":"f4362970","pendingUserApprovals(uint256)":"89f98557","renounceOwnership()":"715018a6","requestCandidateRegistration(string,string)":"ee2128f2","requestUserRegistration(string)":"14ddd980","startElection(uint256)":"6d32dc4b","transferOwnership(address)":"f2fde38b","unpause()":"3f4ba83a","updateElectionDates(uint256,uint256,uint256,uint256)":"0a1741d3","updateElectionState(uint256)":"eb4129f7","users(address)":"a87430ba","vote(uint256,uint256)":"b384abef"}}}}}