{
  "_format": "hh-sol-artifact-1",
  "contractName": "VotingContract",
  "sourceName": "contracts/VotingContract.sol",
  "abi": [
    {
      "inputs": [],
      "stateMutability": "nonpayable",
      "type": "constructor"
    },
    {
      "anonymous": false,
      "inputs": [
        {
          "indexed": true,
          "internalType": "uint256",
          "name": "electionId",
          "type": "uint256"
        },
        {
          "indexed": true,
          "internalType": "uint256",
          "name": "candidateId",
          "type": "uint256"
        }
      ],
      "name": "CandidateAddedToElection",
      "type": "event"
    },
    {
      "anonymous": false,
      "inputs": [
        {
          "indexed": true,
          "internalType": "uint256",
          "name": "candidateId",
          "type": "uint256"
        }
      ],
      "name": "CandidateApproved",
      "type": "event"
    },
    {
      "anonymous": false,
      "inputs": [
        {
          "indexed": true,
          "internalType": "uint256",
          "name": "candidateId",
          "type": "uint256"
        },
        {
          "indexed": true,
          "internalType": "address",
          "name": "userAddress",
          "type": "address"
        },
        {
          "indexed": false,
          "internalType": "string",
          "name": "partyName",
          "type": "string"
        },
        {
          "indexed": false,
          "internalType": "string",
          "name": "symbol",
          "type": "string"
        }
      ],
      "name": "CandidateRegistrationRequested",
      "type": "event"
    },
    {
      "anonymous": false,
      "inputs": [
        {
          "indexed": true,
          "internalType": "uint256",
          "name": "electionId",
          "type": "uint256"
        },
        {
          "indexed": false,
          "internalType": "string",
          "name": "title",
          "type": "string"
        }
      ],
      "name": "ElectionCreated",
      "type": "event"
    },
    {
      "anonymous": false,
      "inputs": [
        {
          "indexed": true,
          "internalType": "uint256",
          "name": "electionId",
          "type": "uint256"
        },
        {
          "indexed": false,
          "internalType": "uint256",
          "name": "votingStartDate",
          "type": "uint256"
        },
        {
          "indexed": false,
          "internalType": "uint256",
          "name": "votingEndDate",
          "type": "uint256"
        },
        {
          "indexed": false,
          "internalType": "uint256",
          "name": "resultAnnounceDate",
          "type": "uint256"
        }
      ],
      "name": "ElectionDatesUpdated",
      "type": "event"
    },
    {
      "anonymous": false,
      "inputs": [
        {
          "indexed": true,
          "internalType": "uint256",
          "name": "electionId",
          "type": "uint256"
        }
      ],
      "name": "ElectionEnded",
      "type": "event"
    },
    {
      "anonymous": false,
      "inputs": [
        {
          "indexed": true,
          "internalType": "uint256",
          "name": "electionId",
          "type": "uint256"
        },
        {
          "indexed": false,
          "internalType": "bool",
          "name": "paused",
          "type": "bool"
        }
      ],
      "name": "ElectionPaused",
      "type": "event"
    },
    {
      "anonymous": false,
      "inputs": [
        {
          "indexed": true,
          "internalType": "uint256",
          "name": "electionId",
          "type": "uint256"
        }
      ],
      "name": "ElectionStarted",
      "type": "event"
    },
    {
      "anonymous": false,
      "inputs": [
        {
          "indexed": true,
          "internalType": "address",
          "name": "previousOwner",
          "type": "address"
        },
        {
          "indexed": true,
          "internalType": "address",
          "name": "newOwner",
          "type": "address"
        }
      ],
      "name": "OwnershipTransferred",
      "type": "event"
    },
    {
      "anonymous": false,
      "inputs": [
        {
          "indexed": false,
          "internalType": "address",
          "name": "account",
          "type": "address"
        }
      ],
      "name": "Paused",
      "type": "event"
    },
    {
      "anonymous": false,
      "inputs": [
        {
          "indexed": false,
          "internalType": "address",
          "name": "account",
          "type": "address"
        }
      ],
      "name": "Unpaused",
      "type": "event"
    },
    {
      "anonymous": false,
      "inputs": [
        {
          "indexed": true,
          "internalType": "address",
          "name": "userAddress",
          "type": "address"
        }
      ],
      "name": "UserApproved",
      "type": "event"
    },
    {
      "anonymous": false,
      "inputs": [
        {
          "indexed": true,
          "internalType": "address",
          "name": "userAddress",
          "type": "address"
        },
        {
          "indexed": false,
          "internalType": "string",
          "name": "name",
          "type": "string"
        }
      ],
      "name": "UserRegistrationRequested",
      "type": "event"
    },
    {
      "anonymous": false,
      "inputs": [
        {
          "indexed": true,
          "internalType": "uint256",
          "name": "electionId",
          "type": "uint256"
        },
        {
          "indexed": true,
          "internalType": "uint256",
          "name": "candidateId",
          "type": "uint256"
        },
        {
          "indexed": true,
          "internalType": "address",
          "name": "voter",
          "type": "address"
        }
      ],
      "name": "VoteCast",
      "type": "event"
    },
    {
      "anonymous": false,
      "inputs": [
        {
          "indexed": true,
          "internalType": "uint256",
          "name": "electionId",
          "type": "uint256"
        },
        {
          "indexed": true,
          "internalType": "address",
          "name": "voter",
          "type": "address"
        }
      ],
      "name": "VoterEnrolled",
      "type": "event"
    },
    {
      "inputs": [
        {
          "internalType": "uint256",
          "name": "_electionId",
          "type": "uint256"
        },
        {
          "internalType": "uint256",
          "name": "_candidateId",
          "type": "uint256"
        }
      ],
      "name": "addCandidateToElection",
      "outputs": [],
      "stateMutability": "nonpayable",
      "type": "function"
    },
    {
      "inputs": [
        {
          "internalType": "uint256",
          "name": "",
          "type": "uint256"
        }
      ],
      "name": "allCandidateIds",
      "outputs": [
        {
          "internalType": "uint256",
          "name": "",
          "type": "uint256"
        }
      ],
      "stateMutability": "view",
      "type": "function"
    },
    {
      "inputs": [
        {
          "internalType": "uint256",
          "name": "",
          "type": "uint256"
        }
      ],
      "name": "allElectionIds",
      "outputs": [
        {
          "internalType": "uint256",
          "name": "",
          "type": "uint256"
        }
      ],
      "stateMutability": "view",
      "type": "function"
    },
    {
      "inputs": [
        {
          "internalType": "uint256",
          "name": "",
          "type": "uint256"
        }
      ],
      "name": "allUserAddresses",
      "outputs": [
        {
          "internalType": "address",
          "name": "",
          "type": "address"
        }
      ],
      "stateMutability": "view",
      "type": "function"
    },
    {
      "inputs": [
        {
          "internalType": "uint256",
          "name": "_candidateId",
          "type": "uint256"
        }
      ],
      "name": "approveCandidate",
      "outputs": [],
      "stateMutability": "nonpayable",
      "type": "function"
    },
    {
      "inputs": [
        {
          "internalType": "address",
          "name": "_userAddress",
          "type": "address"
        }
      ],
      "name": "approveUser",
      "outputs": [],
      "stateMutability": "nonpayable",
      "type": "function"
    },
    {
      "inputs": [
        {
          "internalType": "uint256",
          "name": "",
          "type": "uint256"
        }
      ],
      "name": "candidates",
      "outputs": [
        {
          "internalType": "uint256",
          "name": "candidateId",
          "type": "uint256"
        },
        {
          "internalType": "address",
          "name": "userAddress",
          "type": "address"
        },
        {
          "internalType": "string",
          "name": "partyName",
          "type": "string"
        },
        {
          "internalType": "string",
          "name": "symbol",
          "type": "string"
        },
        {
          "internalType": "uint256",
          "name": "voteCount",
          "type": "uint256"
        },
        {
          "internalType": "uint256",
          "name": "electionId",
          "type": "uint256"
        },
        {
          "internalType": "bool",
          "name": "approved",
          "type": "bool"
        },
        {
          "internalType": "bool",
          "name": "exists",
          "type": "bool"
        }
      ],
      "stateMutability": "view",
      "type": "function"
    },
    {
      "inputs": [
        {
          "internalType": "string",
          "name": "_title",
          "type": "string"
        },
        {
          "internalType": "string",
          "name": "_description",
          "type": "string"
        },
        {
          "internalType": "uint256",
          "name": "_votingStartDate",
          "type": "uint256"
        },
        {
          "internalType": "uint256",
          "name": "_votingEndDate",
          "type": "uint256"
        },
        {
          "internalType": "uint256",
          "name": "_resultAnnounceDate",
          "type": "uint256"
        }
      ],
      "name": "createElection",
      "outputs": [
        {
          "internalType": "uint256",
          "name": "",
          "type": "uint256"
        }
      ],
      "stateMutability": "nonpayable",
      "type": "function"
    },
    {
      "inputs": [
        {
          "internalType": "uint256",
          "name": "",
          "type": "uint256"
        }
      ],
      "name": "elections",
      "outputs": [
        {
          "internalType": "uint256",
          "name": "electionId",
          "type": "uint256"
        },
        {
          "internalType": "string",
          "name": "title",
          "type": "string"
        },
        {
          "internalType": "string",
          "name": "description",
          "type": "string"
        },
        {
          "internalType": "bool",
          "name": "isActive",
          "type": "bool"
        },
        {
          "internalType": "bool",
          "name": "isEnded",
          "type": "bool"
        },
        {
          "internalType": "uint256",
          "name": "startTime",
          "type": "uint256"
        },
        {
          "internalType": "uint256",
          "name": "endTime",
          "type": "uint256"
        },
        {
          "internalType": "uint256",
          "name": "votingStartDate",
          "type": "uint256"
        },
        {
          "internalType": "uint256",
          "name": "votingEndDate",
          "type": "uint256"
        },
        {
          "internalType": "uint256",
          "name": "resultAnnounceDate",
          "type": "uint256"
        },
        {
          "internalType": "bool",
          "name": "resultAnnounced",
          "type": "bool"
        },
        {
          "internalType": "bool",
          "name": "paused",
          "type": "bool"
        },
        {
          "internalType": "uint256",
          "name": "totalVotes",
          "type": "uint256"
        },
        {
          "internalType": "bool",
          "name": "exists",
          "type": "bool"
        }
      ],
      "stateMutability": "view",
      "type": "function"
    },
    {
      "inputs": [
        {
          "internalType": "uint256",
          "name": "_electionId",
          "type": "uint256"
        }
      ],
      "name": "endElection",
      "outputs": [],
      "stateMutability": "nonpayable",
      "type": "function"
    },
    {
      "inputs": [
        {
          "internalType": "uint256",
          "name": "_electionId",
          "type": "uint256"
        }
      ],
      "name": "enrollToVote",
      "outputs": [],
      "stateMutability": "nonpayable",
      "type": "function"
    },
    {
      "inputs": [],
      "name": "getAllCandidates",
      "outputs": [
        {
          "internalType": "uint256[]",
          "name": "",
          "type": "uint256[]"
        }
      ],
      "stateMutability": "view",
      "type": "function"
    },
    {
      "inputs": [],
      "name": "getAllElections",
      "outputs": [
        {
          "internalType": "uint256[]",
          "name": "",
          "type": "uint256[]"
        }
      ],
      "stateMutability": "view",
      "type": "function"
    },
    {
      "inputs": [],
      "name": "getAllUsers",
      "outputs": [
        {
          "internalType": "address[]",
          "name": "",
          "type": "address[]"
        }
      ],
      "stateMutability": "view",
      "type": "function"
    },
    {
      "inputs": [
        {
          "internalType": "uint256",
          "name": "_candidateId",
          "type": "uint256"
        }
      ],
      "name": "getCandidate",
      "outputs": [
        {
          "internalType": "uint256",
          "name": "candidateId",
          "type": "uint256"
        },
        {
          "internalType": "address",
          "name": "userAddress",
          "type": "address"
        },
        {
          "internalType": "string",
          "name": "partyName",
          "type": "string"
        },
        {
          "internalType": "string",
          "name": "symbol",
          "type": "string"
        },
        {
          "internalType": "uint256",
          "name": "voteCount",
          "type": "uint256"
        },
        {
          "internalType": "uint256",
          "name": "electionId",
          "type": "uint256"
        },
        {
          "internalType": "bool",
          "name": "approved",
          "type": "bool"
        }
      ],
      "stateMutability": "view",
      "type": "function"
    },
    {
      "inputs": [
        {
          "internalType": "uint256",
          "name": "_electionId",
          "type": "uint256"
        }
      ],
      "name": "getElection",
      "outputs": [
        {
          "internalType": "uint256",
          "name": "electionId",
          "type": "uint256"
        },
        {
          "internalType": "string",
          "name": "title",
          "type": "string"
        },
        {
          "internalType": "string",
          "name": "description",
          "type": "string"
        },
        {
          "internalType": "bool",
          "name": "isActive",
          "type": "bool"
        },
        {
          "internalType": "bool",
          "name": "isEnded",
          "type": "bool"
        },
        {
          "internalType": "uint256[]",
          "name": "candidateIds",
          "type": "uint256[]"
        },
        {
          "internalType": "uint256",
          "name": "startTime",
          "type": "uint256"
        },
        {
          "internalType": "uint256",
          "name": "endTime",
          "type": "uint256"
        },
        {
          "internalType": "uint256",
          "name": "votingStartDate",
          "type": "uint256"
        },
        {
          "internalType": "uint256",
          "name": "votingEndDate",
          "type": "uint256"
        },
        {
          "internalType": "uint256",
          "name": "resultAnnounceDate",
          "type": "uint256"
        },
        {
          "internalType": "bool",
          "name": "resultAnnounced",
          "type": "bool"
        },
        {
          "internalType": "bool",
          "name": "paused",
          "type": "bool"
        },
        {
          "internalType": "uint256",
          "name": "totalVotes",
          "type": "uint256"
        }
      ],
      "stateMutability": "view",
      "type": "function"
    },
    {
      "inputs": [
        {
          "internalType": "uint256",
          "name": "_electionId",
          "type": "uint256"
        }
      ],
      "name": "getElectionResults",
      "outputs": [
        {
          "internalType": "uint256[]",
          "name": "candidateIds",
          "type": "uint256[]"
        },
        {
          "internalType": "uint256[]",
          "name": "voteCounts",
          "type": "uint256[]"
        }
      ],
      "stateMutability": "view",
      "type": "function"
    },
    {
      "inputs": [],
      "name": "getPendingCandidates",
      "outputs": [
        {
          "internalType": "uint256[]",
          "name": "",
          "type": "uint256[]"
        }
      ],
      "stateMutability": "view",
      "type": "function"
    },
    {
      "inputs": [],
      "name": "getPendingUsers",
      "outputs": [
        {
          "internalType": "address[]",
          "name": "",
          "type": "address[]"
        }
      ],
      "stateMutability": "view",
      "type": "function"
    },
    {
      "inputs": [
        {
          "internalType": "address",
          "name": "_userAddress",
          "type": "address"
        }
      ],
      "name": "getUser",
      "outputs": [
        {
          "internalType": "string",
          "name": "name",
          "type": "string"
        },
        {
          "internalType": "bool",
          "name": "isRegistered",
          "type": "bool"
        },
        {
          "internalType": "bool",
          "name": "isCandidate",
          "type": "bool"
        },
        {
          "internalType": "bool",
          "name": "approved",
          "type": "bool"
        },
        {
          "internalType": "uint256[]",
          "name": "registeredElectionIds",
          "type": "uint256[]"
        }
      ],
      "stateMutability": "view",
      "type": "function"
    },
    {
      "inputs": [
        {
          "internalType": "uint256",
          "name": "_electionId",
          "type": "uint256"
        },
        {
          "internalType": "address",
          "name": "_voter",
          "type": "address"
        }
      ],
      "name": "hasUserVoted",
      "outputs": [
        {
          "internalType": "bool",
          "name": "",
          "type": "bool"
        }
      ],
      "stateMutability": "view",
      "type": "function"
    },
    {
      "inputs": [
        {
          "internalType": "uint256",
          "name": "_electionId",
          "type": "uint256"
        },
        {
          "internalType": "address",
          "name": "_voter",
          "type": "address"
        }
      ],
      "name": "isUserEnrolled",
      "outputs": [
        {
          "internalType": "bool",
          "name": "",
          "type": "bool"
        }
      ],
      "stateMutability": "view",
      "type": "function"
    },
    {
      "inputs": [],
      "name": "owner",
      "outputs": [
        {
          "internalType": "address",
          "name": "",
          "type": "address"
        }
      ],
      "stateMutability": "view",
      "type": "function"
    },
    {
      "inputs": [],
      "name": "pause",
      "outputs": [],
      "stateMutability": "nonpayable",
      "type": "function"
    },
    {
      "inputs": [
        {
          "internalType": "uint256",
          "name": "_electionId",
          "type": "uint256"
        }
      ],
      "name": "pauseElection",
      "outputs": [],
      "stateMutability": "nonpayable",
      "type": "function"
    },
    {
      "inputs": [],
      "name": "paused",
      "outputs": [
        {
          "internalType": "bool",
          "name": "",
          "type": "bool"
        }
      ],
      "stateMutability": "view",
      "type": "function"
    },
    {
      "inputs": [
        {
          "internalType": "uint256",
          "name": "",
          "type": "uint256"
        }
      ],
      "name": "pendingCandidateApprovals",
      "outputs": [
        {
          "internalType": "uint256",
          "name": "",
          "type": "uint256"
        }
      ],
      "stateMutability": "view",
      "type": "function"
    },
    {
      "inputs": [
        {
          "internalType": "uint256",
          "name": "",
          "type": "uint256"
        }
      ],
      "name": "pendingUserApprovals",
      "outputs": [
        {
          "internalType": "address",
          "name": "",
          "type": "address"
        }
      ],
      "stateMutability": "view",
      "type": "function"
    },
    {
      "inputs": [],
      "name": "renounceOwnership",
      "outputs": [],
      "stateMutability": "nonpayable",
      "type": "function"
    },
    {
      "inputs": [
        {
          "internalType": "string",
          "name": "_partyName",
          "type": "string"
        },
        {
          "internalType": "string",
          "name": "_symbol",
          "type": "string"
        }
      ],
      "name": "requestCandidateRegistration",
      "outputs": [],
      "stateMutability": "nonpayable",
      "type": "function"
    },
    {
      "inputs": [
        {
          "internalType": "string",
          "name": "_name",
          "type": "string"
        }
      ],
      "name": "requestUserRegistration",
      "outputs": [],
      "stateMutability": "nonpayable",
      "type": "function"
    },
    {
      "inputs": [
        {
          "internalType": "uint256",
          "name": "_electionId",
          "type": "uint256"
        }
      ],
      "name": "startElection",
      "outputs": [],
      "stateMutability": "nonpayable",
      "type": "function"
    },
    {
      "inputs": [
        {
          "internalType": "address",
          "name": "newOwner",
          "type": "address"
        }
      ],
      "name": "transferOwnership",
      "outputs": [],
      "stateMutability": "nonpayable",
      "type": "function"
    },
    {
      "inputs": [],
      "name": "unpause",
      "outputs": [],
      "stateMutability": "nonpayable",
      "type": "function"
    },
    {
      "inputs": [
        {
          "internalType": "uint256",
          "name": "_electionId",
          "type": "uint256"
        },
        {
          "internalType": "uint256",
          "name": "_votingStartDate",
          "type": "uint256"
        },
        {
          "internalType": "uint256",
          "name": "_votingEndDate",
          "type": "uint256"
        },
        {
          "internalType": "uint256",
          "name": "_resultAnnounceDate",
          "type": "uint256"
        }
      ],
      "name": "updateElectionDates",
      "outputs": [],
      "stateMutability": "nonpayable",
      "type": "function"
    },
    {
      "inputs": [
        {
          "internalType": "uint256",
          "name": "_electionId",
          "type": "uint256"
        }
      ],
      "name": "updateElectionState",
      "outputs": [],
      "stateMutability": "nonpayable",
      "type": "function"
    },
    {
      "inputs": [
        {
          "internalType": "address",
          "name": "",
          "type": "address"
        }
      ],
      "name": "users",
      "outputs": [
        {
          "internalType": "string",
          "name": "name",
          "type": "string"
        },
        {
          "internalType": "bool",
          "name": "isRegistered",
          "type": "bool"
        },
        {
          "internalType": "bool",
          "name": "isCandidate",
          "type": "bool"
        },
        {
          "internalType": "bool",
          "name": "approved",
          "type": "bool"
        },
        {
          "internalType": "bool",
          "name": "exists",
          "type": "bool"
        }
      ],
      "stateMutability": "view",
      "type": "function"
    },
    {
      "inputs": [
        {
          "internalType": "uint256",
          "name": "_electionId",
          "type": "uint256"
        },
        {
          "internalType": "uint256",
          "name": "_candidateId",
          "type": "uint256"
        }
      ],
      "name": "vote",
      "outputs": [],
      "stateMutability": "nonpayable",
      "type": "function"
    }
  ],
  "bytecode": "0x608080604052346100735760008054336001600160a01b0319821681178355916001600160a01b03909116907f8be0079c531659141344cd1fd0a4f28419497f9722a3daafe3b4186f6b6457e09080a36001805560ff19600254166002556001600b556001600c55612f9790816100798239f35b600080fdfe6080604052600436101561001257600080fd5b60e0600035811c908163064956d7146129a75781630a1741d3146129105781630a17942e146128bf57816312f8a6ab1461286457816314ddd980146124825781632c6d9c85146123215781632e4ecae1146122465781632e6997fe146121ce5781633477ee2e1461211b57816335b8e820146120095781633f4ba83a14611f755781635c975abb14611f525781635e6fef0114611e4f5781636995604614611cd05781636d32dc4b14611bf15781636f77926b14611b13578163715018a614611aba57816376ff090814611a69578163778c6439146119035781637fd5f2681461188b5781638456cb59146117f857816389f98557146117b65781638da5cb5b1461178d5781639a70b327146117015781639c98bcbb1461165f5781639d7107771461152f578163a87430ba146114a2578163b384abef14611250578163d624fdb61461104b578163dc296ae114610fdd578163e2842d7914610f59578163e8ededa614610e23578163eb4129f714610ce8578163ee2128f21461079157508063f2fde38b146106cd578063f436297014610696578063fe09b5ec146106025763ff50e12f146101c157600080fd5b346105fd5760a03660031901126105fd576001600160401b036004358181116105fd576101f2903690600401612b22565b60249081358381116105fd5761020c903690600401612b22565b92610215612d26565b8151156105c15783511561057d57600c549261023084612dac565b600c5583600052602094600586526040600020908582556001938483018651908282116104c9576102618154612bac565b91601f928b84821161054e575b5050808b8482116001146104e9576000916104de575b50600019600383901b1c191690881b1790555b600284019280519283116104c9576102af8454612bac565b8a838211610490575b50508991831160011461042857600e949392916000918361041d575b5050600019600383901b1c191690861b1790555b6003810161ffff19908582825416179055600060405161030781612ae6565b526004820180546000825580610402575b50506044356009830155606435600a830155608435600b830155600c82019081541690556000600d820155018260ff19825416179055600a5491600160401b8310156103ed57820180600a558210156103d957506103ce8392837f52be7c4e77b4de76b7607d621492061fe13b58597e72dfb5e51ab8f6187ed14193600a6000527fc65a7bb8d6351c1cf70c95a316cc6a92839c986682d98bc35f958f4883f9d2a8015560405191829187835287830190612c8c565b0390a2604051908152f35b634e487b7160e01b60009081526032600452fd5b50634e487b7160e01b60009081526041600452fd5b610416916000528960002090810190612d95565b3880610318565b0151905038806102d4565b9392918691601f19821690846000528b6000209160005b8d82821061047a5750509683600e9810610461575b505050811b0190556102e8565b015160001960f88460031b161c19169055388080610454565b838a015185558b9690940193928301920161043f565b6104b9918660005284826000209181880160051c83019388106104c0575b0160051c0190612d95565b388a6102b8565b925081926104ae565b85634e487b7160e01b60005260416004526000fd5b905089015138610284565b60008481528d81208b94509190601f198416908f8e5b83831061053557505050831161051c575b5050811b019055610297565b8b015160001960f88460031b161c191690553880610510565b84015185558d969094019392830192908101908e6104ff565b610576918460005285826000209181860160051c83019386106104c0570160051c0190612d95565b388b61026e565b60405162461bcd60e51b815260206004820152601b818501527f4465736372697074696f6e2063616e6e6f7420626520656d70747900000000006044820152606490fd5b60405162461bcd60e51b815260206004820152601581850152745469746c652063616e6e6f7420626520656d70747960581b6044820152606490fd5b600080fd5b346105fd5760003660031901126105fd57604051806006549182815260208091019260066000527ff652222313e28459528d920b65115c16c04f3efc82aaedc97be59f3f377c0d3f916000905b828210610676576106728561066681890382612b01565b60405191829182612ce2565b0390f35b83546001600160a01b03168652948501946001938401939091019061064f565b346105fd5760203660031901126105fd576004356007548110156105fd576106bf602091612a41565b90546040519160031b1c8152f35b346105fd5760203660031901126105fd576106e6612a2b565b6106ee612d26565b6001600160a01b0390811690811561073d57600054826001600160601b0360a01b821617600055167f8be0079c531659141344cd1fd0a4f28419497f9722a3daafe3b4186f6b6457e0600080a3005b60405162461bcd60e51b815260206004820152602660248201527f4f776e61626c653a206e6577206f776e657220697320746865207a65726f206160448201526564647265737360d01b6064820152608490fd5b346105fd5760403660031901126105fd576004356001600160401b0381116105fd576107c1903690600401612b22565b906024356001600160401b0381116105fd576107e1903690600401612b22565b9133600052600360205260ff6003604060002001541615610cad57805115610c6857825115610c2a57600b549161081783612dac565b600b556040519061082782612aca565b83825233602083015282604083015284606083015260006080830152600060a0830152600060c08301526001818301528360005260046020526040600020825181556001810160018060a01b036020850151166001600160601b0360a01b82541617905560408301518051906001600160401b038211610a9f5781906108b06002850154612bac565b601f8111610bf5575b50602090601f8311600114610b8357600092610b78575b50508160011b916000199060031b1c19161760028201555b60608301518051906001600160401b038211610a9f5761090b6003840154612bac565b601f8111610b38575b50602090601f8311600114610ac057918061099996959492600694600092610ab5575b50508160011b916000199060031b1c19161760038201555b6080840151600482015560a08401516005820155019161098160c08201511515849060ff801983541691151516179055565b0151815461ff00191690151560081b61ff0016179055565b336000526003602052600160406000200161010061ff0019825416179055600754600160401b9081811015610a9f57836109dc8260016109f59401600755612a41565b90919082549060031b91821b91600019901b1916179055565b60095490811015610a9f576001810180600955811015610a89577f8ee8ba30b5c49eea6c2fdcd6424eb5fbe1d9ce7fbf823596ae760ec67778e8429183610a759260096000527f6e1540171b6c0c960b71a7020d9f60077f6af931a8bbf590da0223dacf75c7af0155610a84604051928392604084526040840190612c8c565b82810360208401523396612c8c565b0390a3005b634e487b7160e01b600052603260045260246000fd5b634e487b7160e01b600052604160045260246000fd5b015190508a80610937565b906003840160005260206000209160005b601f1985168110610b205750926109999695949260019260069583601f19811610610b07575b505050811b01600382015561094f565b015160001960f88460031b161c191690558a8080610af7565b91926020600181928685015181550194019201610ad1565b610b6890600385016000526020600020601f850160051c81019160208610610b6e575b601f0160051c0190612d95565b88610914565b9091508190610b5b565b0151905088806108d0565b9250600284016000526020600020906000935b601f1984168510610bda576001945083601f19811610610bc1575b505050811b0160028201556108e8565b015160001960f88460031b161c19169055888080610bb1565b81810151835560209485019460019093019290910190610b96565b610c2490600286016000526020600020601f850160051c81019160208610610b6e57601f0160051c0190612d95565b896108b9565b60405162461bcd60e51b815260206004820152601660248201527553796d626f6c2063616e6e6f7420626520656d70747960501b6044820152606490fd5b60405162461bcd60e51b815260206004820152601a60248201527f5061727479206e616d652063616e6e6f7420626520656d7074790000000000006044820152606490fd5b60405162461bcd60e51b8152602060048201526013602482015272155cd95c881b9bdd081c9959da5cdd195c9959606a1b6044820152606490fd5b346105fd5760203660031901126105fd5760043580600052600560205260ff610d1a81600e6040600020015416612e30565b8160005260056020526040600020600c810192835490838260081c161580610e12575b610d4357005b82600385940192835485811615610dcf575b50508254848116610d90575b5050505460081c169081610d84575b50610d7757005b805460ff19166001179055005b90508154161582610d70565b6101009061ffff19161783556008429101557f562cd572b2ba3b666cd989fc4ca98419ec81e75f04528df9d9d76fdb7807ee71600080a2848080610d61565b60ff1916600117845561ff0019168655426007820155817f159eee87222a0489c529f2153c26ad65d718f2cc33ebaa8d399d1dd5b39facaa600080a28680610d55565b5083600384015460081c1615610d3d565b346105fd576020806003193601126105fd576004358060005260058252610e5460ff600e6040600020015416612e30565b806000526005825260ff60036040600020015460081c1615610f1f5760005260058152610e876004604060002001612efe565b8051610e9281612d7e565b90610ea06040519283612b01565b808252610eaf601f1991612d7e565b01368483013760005b8251811015610ef55780610ecf610ef09285612f4d565b5160005260048552600460406000200154610eea8285612f4d565b52612dac565b610eb8565b50610f129261067291604051948594604086526040860190612b78565b9184830390850152612b78565b60405162461bcd60e51b8152600481018390526012602482015271115b1958dd1a5bdb881b9bdd08195b99195960721b6044820152606490fd5b346105fd5760003660031901126105fd57604051806008549182815260208091019260086000527ff3f7a9fe364faab93b216da50a3214154f22a0a2b415b23a84c8169e8b636ee3916000905b828210610fbd576106728561066681890382612b01565b83546001600160a01b031686529485019460019384019390910190610fa6565b346105fd5760403660031901126105fd57600435610ff9612a15565b9080600052600560205261101760ff600e6040600020015416612e30565b600052600560205260066040600020019060018060a01b0316600052602052602060ff604060002054166040519015158152f35b346105fd576020806003193601126105fd57611065612a2b565b9061106e612d26565b60018060a01b03809216918260005260039081835260ff82604060002001541615611215578360005281835260019260ff846040600020015460101c166111d957600085815290839052604081208401805462ff00ff191662010001179055835b6110fc575b847ffbb0a472171a6eb950c8a87421215268a1b2df816da0a48e920e72ade27cfcf7600080a2005b60068054808310156111d257868461111385612a78565b905490881b1c161461113057505061112a90612dac565b836110cf565b93945092600019918282019182116111bc5761115f8461115261117e94612a78565b905490891b1c1691612a78565b90919082549060031b9160018060a01b03809116831b921b1916179055565b825480156111a657019261119184612a78565b81939154921b1b1916905555818080806110d4565b634e487b7160e01b600052603160045260246000fd5b634e487b7160e01b600052601160045260246000fd5b50506110d4565b6064906040519062461bcd60e51b825260048201526015602482015274155cd95c88185b1c9958591e48185c1c1c9bdd9959605a1b6044820152fd5b60405162461bcd60e51b8152600481018490526013602482015272155cd95c88191bd95cc81b9bdd08195e1a5cdd606a1b6044820152606490fd5b346105fd5761125e36612ccc565b90336000526020916003835260019261128360ff856040600020015460101c16612ebe565b826000526005908181526112a160ff600e6040600020015416612e30565b82600052600481526112c060ff60066040600020015460081c16612de4565b600285541461145e5760028555836000528181528160406000200133600052815260ff60406000205416156114235783600052818152600660406000200133600052815260ff604060002054166113ef578260005260048152838260406000200154036113ab5783600052818152600660406000200133600052815260406000208560ff19825416179055826000526004815260046040600020016113658154612dac565b90558360005252600d60406000200161137e8154612dac565b905533917f7fe1d4e6b34e228b5dc059fcdc037c71b216fb2417f47c171e505144a5e4f5fc600080a48055005b6064906040519062461bcd60e51b82526004820152601e60248201527f43616e646964617465206e6f7420696e207468697320656c656374696f6e00006044820152fd5b6064906040519062461bcd60e51b82526004820152600d60248201526c105b1c9958591e481d9bdd1959609a1b6044820152fd5b6064906040519062461bcd60e51b8252600482015260146024820152734e6f7420656e726f6c6c656420746f20766f746560601b6044820152fd5b6064906040519062461bcd60e51b82526004820152601f60248201527f5265656e7472616e637947756172643a207265656e7472616e742063616c6c006044820152fd5b346105fd5760203660031901126105fd576001600160a01b036114c3612a2b565b16600052600360205261150160406000206114dd81612be6565b9060ff600360018301549201541660ff60405194859460a0865260a0860190612c8c565b9281811615156020860152818160081c161515604086015260101c1615156060840152151560808301520390f35b346105fd5760203660031901126105fd576004358060005260056020526040600020600e015460ff1661156190612e30565b600052600560205260406000209081549060038301549260078101549160088201546009830154600a84015490600b85015492600c86015494600d87015496600181016115ad90612be6565b9a6115ba60028301612be6565b916004016115c790612efe565b916040519c8d9c8d528c6101c06020819201528d016115e591612c8c565b8c810360408e01526115f691612c8c565b9060ff8116151560608d015260081c60ff16151560808c01528a810360a08c015261162091612b78565b9760c08a015288015261010087015261012086015261014085015260ff8116151561016085015260081c60ff1615156101808401526101a08301520390f35b346105fd5760203660031901126105fd5760043561167b612d26565b80600052600560205261169860ff600e6040600020015416612e30565b8060005260056020526116b560ff60036040600020015416612e7c565b80600052600560205260406000206003810161010061ffff198254161790556008429101557f562cd572b2ba3b666cd989fc4ca98419ec81e75f04528df9d9d76fdb7807ee71600080a2005b346105fd5760003660031901126105fd576040518060075480825282602080930160076000527fa66cc928b5edb82af9bd49922954155ab7b0942694bea4ce44661d9a8736c6889260005b858282106117775750505061176392500383612b01565b610672604051928284938452830190612b78565b855484526001958601958895509301920161174c565b346105fd5760003660031901126105fd576000546040516001600160a01b039091168152602090f35b346105fd5760203660031901126105fd576004356006548110156105fd576117df602091612a78565b905460405160039290921b1c6001600160a01b03168152f35b346105fd5760003660031901126105fd57611811612d26565b60025460ff81166118535760019060ff1916176002557f62e78cea01bee320cd4e420270b5ea74000d11b0c9f74754ebdbfc544b05a2586020604051338152a1005b60405162461bcd60e51b815260206004820152601060248201526f14185d5cd8589b194e881c185d5cd95960821b6044820152606490fd5b346105fd5760003660031901126105fd5760405180600a54808252826020809301600a6000527fc65a7bb8d6351c1cf70c95a316cc6a92839c986682d98bc35f958f4883f9d2a89260005b858282106118ed5750505061176392500383612b01565b85548452600195860195889550930192016118d6565b346105fd5761191136612ccc565b9061191a612d26565b8060005260206005815261193860ff600e6040600020015416612e30565b826000526004815261195760ff60066040600020015460081c16612de4565b826000526004815260ff6006604060002001541615611a2c5782600052600481526005604060002001546119d65760049082600052600581526119a08483604060002001612dbb565b8360005252806005604060002001557fa4e69db433ebec4ded108fd5357e7b35d8671bc745d7f88a516b6c92f86a046e600080a3005b6084906040519062461bcd60e51b82526004820152602960248201527f43616e64696461746520616c72656164792061737369676e656420746f20616e6044820152681032b632b1ba34b7b760b91b6064820152fd5b6064906040519062461bcd60e51b82526004820152601660248201527510d85b991a59185d19481b9bdd08185c1c1c9bdd995960521b6044820152fd5b346105fd5760203660031901126105fd57600435600a548110156105fd57602090600a6000527fc65a7bb8d6351c1cf70c95a316cc6a92839c986682d98bc35f958f4883f9d2a80154604051908152f35b346105fd5760003660031901126105fd57611ad3612d26565b600080546001600160a01b0319811682556001600160a01b03167f8be0079c531659141344cd1fd0a4f28419497f9722a3daafe3b4186f6b6457e08280a3005b346105fd5760203660031901126105fd576001600160a01b03611b34612a2b565b166000526003602052611bd46040600020610672604051611b5481612aaf565b611b5d83612be6565b8152600183015492602082019360ff811615158552604083019260ff8260081c161515845260ff606082019260101c161515825260ff6003611ba160028601612efe565b94856080850152015416151560a0820152519451151592511515905115159060405196879660a0885260a0880190612c8c565b936020870152604086015260608501528382036080850152612b78565b346105fd5760203660031901126105fd57600435611c0d612d26565b806000526005602052611c2a60ff600e6040600020015416612e30565b80600052600560205260046040600020015415611c8b57806000526005602052604060002060038101600160ff198254161790556007429101557f159eee87222a0489c529f2153c26ad65d718f2cc33ebaa8d399d1dd5b39facaa600080a2005b60405162461bcd60e51b815260206004820152601960248201527f4e6f2063616e6469646174657320696e20656c656374696f6e000000000000006044820152606490fd5b346105fd5760203660031901126105fd57600435611cec612d26565b806000526004602052611d0c60ff60066040600020015460081c16612de4565b80600052600460205260ff60066040600020015416611e0a578060005260046020528060066040600020016001908160ff19825416179055806000905b611d76575b827f24776d729722c25af4030aba0aa454b1bf0ce96bfdb29e2998c1a0bc3ded47d5600080a2005b6007805480831015611e0357611d8b83612a41565b959054600396871b1c14611daf575050611da6919250612dac565b90829181611d49565b909250600019918282019182116111bc576109dc611dcf611ddb93612a41565b905490871b1c91612a41565b815480156111a657810192611def84612a41565b81939154921b1b1916905555808280611d4e565b5050611d4e565b60405162461bcd60e51b815260206004820152601a60248201527f43616e64696461746520616c726561647920617070726f7665640000000000006044820152606490fd5b346105fd5760203660031901126105fd57600435600052600560205260406000209081549060018301611e8190612be6565b92611e8e60028201612be6565b906003810154926007820154906008830154906009840154600a85015491600b86015493600c87015495600d88015497600e015460ff16986040519c8d9c8d528c6101c06020819201528d01611ee391612c8c565b8c810360408e0152611ef491612c8c565b9960ff8116151560608d015260081c60ff16151560808c015260a08b015260c08a015288015261010087015261012086015260ff8116151561014086015260081c60ff16151561016085015261018084015215156101a08301520390f35b346105fd5760003660031901126105fd57602060ff600254166040519015158152f35b346105fd5760003660031901126105fd57611f8e612d26565b60025460ff811615611fcd5760ff19166002557f5db9ee0a495bf2e6ff9c91a7834c1ba4fdd244a5e8aa4e537bd38aeae4b073aa6020604051338152a1005b60405162461bcd60e51b815260206004820152601460248201527314185d5cd8589b194e881b9bdd081c185d5cd95960621b6044820152606490fd5b346105fd5760203660031901126105fd5760043580600052600460205261203d60ff60066040600020015460081c16612de4565b6000526004602052604060002060405161205681612aca565b8154815260018201546001600160a01b03908116602083019081529290919061210761208460028301612be6565b95604084019687526120f961209b60038501612be6565b9182606087015260048501549687608088015260066005870154968760a08a015201549660ff8089161515988960c084015260081c1615158382015251985116985190604051998a998a5260208a01528060408a0152880190612c8c565b908682036060880152612c8c565b92608085015260a084015260c08301520390f35b346105fd5760203660031901126105fd576004356000526004602052604060002080549060018060a01b036001820154169260ff61215b60028401612be6565b61216760038501612be6565b936121ab60048201549561219d60066005850154940154946040519a8b9a8b5260208b01526101008060408c01528a0190612c8c565b9088820360608a0152612c8c565b94608087015260a0860152818116151560c086015260081c161515908301520390f35b346105fd5760003660031901126105fd576040518060095480825282602080930160096000527f6e1540171b6c0c960b71a7020d9f60077f6af931a8bbf590da0223dacf75c7af9260005b858282106122305750505061176392500383612b01565b8554845260019586019588955093019201612219565b346105fd5760203660031901126105fd57600435612262612d26565b80600052600560205261227f60ff600e6040600020015416612e30565b80600052600560205261229c60ff60036040600020015416612e7c565b8060005260056020527fe9b0dfc8f12abac9dcf7ca6c9d3a8a0f8adef5c9a7f8bf9bd660cbe4f696daf0602060ff60406000206123116003600c8301926122fd85855460081c1615859061ff00825491151560081b169061ff001916179055565b01805460ff1981169085161560ff16179055565b5460081c166040519015158152a2005b346105fd576020806003193601126105fd5760043590336000526003815261235660ff60016040600020015460101c16612ebe565b81600052600580825261237360ff600e6040600020015416612e30565b8260005280825260ff60036040600020015460081c1661244857826000528082528060406000200133600052825260ff604060002054166124105790600391836000528082526040600020013360005281526040600020600160ff19825416179055526123e7816002604060002001612dbb565b33907f38dcbd2eb182b340b867c36ed9ed4dd8f7d99da76fcfb282c4bf5ca7f5c75b1d600080a3005b60405162461bcd60e51b815260048101839052601060248201526f105b1c9958591e48195b9c9bdb1b195960821b6044820152606490fd5b60405162461bcd60e51b8152600481018390526012602482015271115b1958dd1a5bdb881a185cc8195b99195960721b6044820152606490fd5b346105fd5760203660031901126105fd576004356001600160401b0381116105fd576124b2903690600401612b22565b33600052600360205260ff6003604060002001541661281f578051156127e3576040516124de81612ae6565b60008152604051906124ef82612aaf565b82825260208201600081526040830191600083526060840190600082526080850152600160a085015233600052600360205260406000209284518051906001600160401b038211610a9f576125448654612bac565b601f81116127b1575b50602090601f8311600114612743576125b493929160009183612738575b50508160011b916000199060031b1c19161785555b61259d6001860194511515859060ff801983541691151516179055565b51835461ff00191690151560081b61ff0016178355565b51815462ff0000191690151560101b62ff00001617905560808201518051909290600283016001600160401b038211610a9f57600160401b94858311610a9f57602090825484845580851061271b575b500190600052602060002060005b83811061270757878761263b88600360a08a0151151591019060ff801983541691151516179055565b60065481811015610a9f576126598160016126779301600655612a78565b81546001600160a01b0360039290921b91821b19163390911b179055565b60085490811015610a9f576001810180600855811015610a895760086000527ff3f7a9fe364faab93b216da50a3214154f22a0a2b415b23a84c8169e8b636ee301336001600160601b0360a01b8254161790557fe4e252ab55ecd86d160954e9237b0d7bf0efd0068b29c423b595c5177d0a5dc4604051602081528061270233946020830190612c8c565b0390a2005b600190602084519401938184015501612612565b612732908460005285846000209182019101612d95565b88612604565b01519050898061256b565b908660005260206000209160005b601f198516811061279957509183916001936125b49695601f19811610612780575b505050811b018555612580565b015160001960f88460031b161c19169055898080612773565b91926020600181928685015181550194019201612751565b6127dd90876000526020600020601f850160051c81019160208610610b6e57601f0160051c0190612d95565b8861254d565b60405162461bcd60e51b81526020600482015260146024820152734e616d652063616e6e6f7420626520656d70747960601b6044820152606490fd5b60405162461bcd60e51b815260206004820152601760248201527f5573657220616c726561647920726567697374657265640000000000000000006044820152606490fd5b346105fd5760203660031901126105fd576004356008548110156105fd5760086000527ff3f7a9fe364faab93b216da50a3214154f22a0a2b415b23a84c8169e8b636ee301546040516001600160a01b039091168152602090f35b346105fd5760203660031901126105fd576004356009548110156105fd5760209060096000527f6e1540171b6c0c960b71a7020d9f60077f6af931a8bbf590da0223dacf75c7af0154604051908152f35b346105fd5760803660031901126105fd576004357f739ebd6b0791f74b4760666c62eba700312c8bc1d9aa1ac74caf71c1eebae0766060602435606435604435612958612d26565b85600052600560205261297560ff600e6040600020015416612e30565b85600052600560205281600b604060002085600982015583600a820155015560405192835260208301526040820152a2005b346105fd5760403660031901126105fd576004356129c3612a15565b908060005260056020526129e160ff600e6040600020015416612e30565b600052600560205260056040600020019060018060a01b0316600052602052602060ff604060002054166040519015158152f35b602435906001600160a01b03821682036105fd57565b600435906001600160a01b03821682036105fd57565b600754811015610a895760076000527fa66cc928b5edb82af9bd49922954155ab7b0942694bea4ce44661d9a8736c6880190600090565b600654811015610a895760066000527ff652222313e28459528d920b65115c16c04f3efc82aaedc97be59f3f377c0d3f0190600090565b60c081019081106001600160401b03821117610a9f57604052565b61010081019081106001600160401b03821117610a9f57604052565b602081019081106001600160401b03821117610a9f57604052565b90601f801991011681019081106001600160401b03821117610a9f57604052565b81601f820112156105fd578035906001600160401b038211610a9f5760405192612b56601f8401601f191660200185612b01565b828452602083830101116105fd57816000926020809301838601378301015290565b90815180825260208080930193019160005b828110612b98575050505090565b835185529381019392810192600101612b8a565b90600182811c92168015612bdc575b6020831014612bc657565b634e487b7160e01b600052602260045260246000fd5b91607f1691612bbb565b9060405191826000825492612bfa84612bac565b908184526001948581169081600014612c695750600114612c26575b5050612c2492500383612b01565b565b9093915060005260209081600020936000915b818310612c51575050612c2493508201013880612c16565b85548884018501529485019487945091830191612c39565b915050612c2494506020925060ff191682840152151560051b8201013880612c16565b919082519283825260005b848110612cb8575050826000602080949584010152601f8019910116010190565b602081830181015184830182015201612c97565b60409060031901126105fd576004359060243590565b6020908160408183019282815285518094520193019160005b828110612d09575050505090565b83516001600160a01b031685529381019392810192600101612cfb565b6000546001600160a01b03163303612d3a57565b606460405162461bcd60e51b815260206004820152602060248201527f4f776e61626c653a2063616c6c6572206973206e6f7420746865206f776e65726044820152fd5b6001600160401b038111610a9f5760051b60200190565b818110612da0575050565b60008155600101612d95565b60001981146111bc5760010190565b805490600160401b821015610a9f5760018201808255821015610a895760005260206000200155565b15612deb57565b60405162461bcd60e51b815260206004820152601860248201527f43616e64696461746520646f6573206e6f7420657869737400000000000000006044820152606490fd5b15612e3757565b60405162461bcd60e51b815260206004820152601760248201527f456c656374696f6e20646f6573206e6f742065786973740000000000000000006044820152606490fd5b15612e8357565b60405162461bcd60e51b8152602060048201526013602482015272456c656374696f6e206e6f742061637469766560681b6044820152606490fd5b15612ec557565b60405162461bcd60e51b8152602060048201526011602482015270155cd95c881b9bdd08185c1c1c9bdd9959607a1b6044820152606490fd5b9060405191828154918282526020928383019160005283600020936000905b828210612f3357505050612c2492500383612b01565b855484526001958601958895509381019390910190612f1d565b8051821015610a895760209160051b01019056fea2646970667358221220f1899e1938fb4a2e8152c5fd756e3ba261699e222fb0eebf110dad02383ec89564736f6c63430008130033",
  "linkReferences": {},
  "deployedLinkReferences": {}
}